S00C00006D61696E2E7372656373
S11300000C9462000C94AA0A0C94D10A0C948A00F1
S11300100C948A000C948A000C948A000C948A0034
S11300200C948A000C948A000C948A000C942B0380
S11300300C948A000C948A000C948A000C948A0014
S11300400C94F80A0C948A000C94C0080C94F208DE
S11300500C948A000C948A000C948A000C948A00F4
S11300600C94281D0C948A00000000080002010072
S1130070000304070000000000000000010204085F
S113008010204080010204081020010204081020FE
S1130090040404040404040402020202020203032A
S11300A00303030300000000250028002B000000C8
S11300B00000240027002A006B031809F6103013EF
S11300C0991A750311241FBECFEFD8E0DEBFCDBF50
S11300D012E0A0E0B1E0E0E3F4E402C005900D9288
S11300E0AC37B107D9F726E0ACE7B2E001C01D9206
S11300F0A637B207E1F710E0C1E6D0E004C02197CB
S1130100FE010E949D20CC35D107C9F70E94AA03A5
S11301100C940B220C940000CF92DF92EF92FF928A
S11301200F931F93CF93DF93CDB7DEB76C970FB6C2
S1130130F894DEBF0FBECDBF6C017B0162EA71E0B3
S11301408FE992E00E9495098E010F5F1F4F88E1AD
S1130150F80111928A95E9F7F601C080D180C601B1
S11301600E94C40664E0C6010E94040581FFFACF20
S113017046E0B801C6010E946705680180E090E08E
S1130180AE01435E5F4FF6010191119121913191CE
S11301906F01098F1A8F2B8F3C8FDE0159969701BF
S11301A0280F391FA417B50729F06D91F901619340
S11301B09F01F8CF04968831910529F788E16C9660
S11301C00FB6F894DEBF0FBECDBFDF91CF911F9164
S11301D00F91FF90EF90DF90CF900895EF92FF92F0
S11301E00F931F93CF93DF93CDB7DEB728970FB646
S11301F0F894DEBF0FBECDBF8C017B0165E971E0D1
S11302008FE992E00E949509F80100811181C801EB
S11302100E9456076D837E838F839887C8010E944E
S1130220710769837A838B839C83DE011596B701FA
S1130230CE010196AE01475F5F4FA417B50751F099
S11302402D91FB012193BF01FC012191CF01FB0101
S11302502383F3CF88E028960FB6F894DEBF0FBE51
S1130260CDBFDF91CF911F910F91FF90EF90089533
S113027081E08093850283B78E7F83BF81E00C94F5
S1130280980A0F931F93CF93DF938C01EB0166E1E0
S113029072E08FE992E00E949509F801C00FD11F26
S11302A080E090E0EC17FD0721F02191820F911D71
S11302B0F9CFDF91CF911F910F910895EF92FF92A3
S11302C00F931F93CF93DF938C017B01C42F6BE0BB
S11302D072E08FE992E00E9495096EE071E08FE987
S11302E092E00E948809B8018FE992E00E94950982
S11302F06BE171E08FE992E00E9488094AE050E0E6
S11303006C2F8FE992E00E94040A8701D0E0C801B3
S11303108E199F098C179D0784F4F80161918F0150
S11303204AE050E08FE992E00E94FD096BE271E03F
S11303308FE992E00E948809EACF8FE992E0DF9189
S1130340CF911F910F91FF90EF900C949109D82FAA
S1130350192F6EEF71E08FE992E00E949509D0FDAC
S11303600AC0D3FD0AC0D4FD0AC0D2FD0AC0D1FF21
S11303700AC0C5E009C0C1E007C0C2E005C0C3E0CF
S113038003C0C4E001C0C0E06EE271E08FE992E016
S11303900E9488094AE050E06D2F712F8FE992E0A6
S11303A00E94700A6DE371E08FE992E00E9488096F
S11303B04AE050E06C2F8FE992E00E94040AD0E0FA
S11303C000E010E00C171D07BCF461E082E00E941D
S11303D04F0C68EC70E080E090E00E94730B60E0EA
S11303E082E00E944F0C68EC70E080E090E00E9494
S11303F0730B0F5F1F4FE6CF60E971E080E090E080
S11304000E94730BDDCF1F93CF93DF93CDB7DEB77D
S11304102A970FB6F894DEBF0FBECDBF182F62EF38
S113042071E08FE992E00E9495098EE08E838EE15F
S11304308F8388879CE099872FE029838B839C8313
S1130440CE01069690938D0280938C02059790932B
S11304508F0280938E028AE892E00E94530F62E03A
S113046083E00E94130C112331F062E679E081E409
S113047092E60E94670E2A960FB6F894DEBF0FBE6E
S1130480CDBFDF91CF911F9108956EED71E08FE99B
S113049092E00E94950961E082E00E94130CF894B6
S11304A010928000E1E8F0E080818F7E808380817B
S11304B08860808380818460808380818D7F808355
S11304C0808181608083109285001092840080ED89
S11304D093E09093890080938800EFE6F0E08081B8
S11304E0826080837894089567EC71E08FE992E0EC
S11304F00E949509EFE6F0E080818D7F808360E0C3
S113050082E00E944F0C81E090E0909387028093F8
S113051086020895CF93DF93EC016BEB71E08FE9D2
S113052092E00E94950968EA75E081E992E00E94F0
S11305306906811115C06DE471E08FE992E00E94B3
S113054088096BEB71E08FE992E00E9488096EE6FE
S113055071E08FE992E00E94950982E090E00AC080
S113056081E992E0998388838CE890E09B838A8375
S113057080E090E0DF91CF910895CF93DF93EC0179
S11305806EEA71E08FE992E00E94950960E480E9E7
S113059092E00E940F0741E061E080E992E00E944E
S11305A0FC0680E992E00E94860780359041A9F01C
S11305B06DE471E08FE992E00E9488096EEA71E0CF
S11305C08FE992E00E9488096EE671E08FE992E07B
S11305D00E94950984E090E00AC080E992E0998342
S11305E088838EEE90E09B838A8380E090E0DF91A5
S11305F0CF910895CF93DF9326E040E855E260E081
S113060070E08FE992E00E9457086FE172E08FE991
S113061092E00E9495090E94450288EA95E00E94B2
S1130620FB1980E00E9403028BE992E00E948A0297
S1130630EC0187E992E00E94BD02C82BD92B64EF3C
S113064071E080E090E00E94730B0E947402CE017E
S1130650DF91CF9108951F920F920FB60F9211243C
S11306602F933F934F935F936F937F938F939F93B6
S1130670AF93BF93EF93FF9380918602909187028B
S1130680892BC1F48091880290918902892B29F0E9
S1130690109289021092880206C081E090E0909343
S11306A0890280938802609188027091890282E0B5
S11306B00E944F0CFF91EF91BF91AF919F918F9149
S11306C07F916F915F914F913F912F910F900FBE4A
S11306D00F901F901895E1E9F2E01182108289E4ED
S11306E0828380E992E00C94D90681E992E00C942B
S11306F09C046AE871E08FE992E00E949509809178
S11307007D02811107C080917A0080937C0281E090
S113071080937D0210927A0083B7817F846083BFC7
S113072083B7816083BF80E685BF80E485BFF8948A
S113073040E050E068E371E081E00E94780A789438
S11307408FE992E00E943508889580917C0280931D
S11307507A000895CF93DF93CDB7DEB7C457D1099C
S11307600FB6F894DEBF0FBECDBF0E94AF0B0E9440
S1130770FA02009711F00E94A7018E010F5F1F4F2C
S1130780380180E4F80111928A95E9F70E94D70EA6
S113079020E831E541E050E00E94F11FE5962CAFDE
S11307A03DAF4EAF5FAFE59720E2222E2E01F1E47C
S11307B04F0E511C4E0101E6800E911C6AE272E05C
S11307C08FE992E00E949509F201E22C1192EA94D9
S11307D0E9F780918502882309F49FC061E082E0F3
S11307E00E944F0C0E94D70EAB01BC012AE030E0FE
S11307F08FE992E00E94160A109285020E94D70E99
S11308007B018C0120E030E0A901AA966FAFAA9782
S1130810AB96FFAEAB97AC960FAFAC97AD961FAF50
S1130820AD97AE962FAFAE97AF963FAFAF97E0962A
S11308304FAFE097E1965FAFE197F4016083F182F7
S11308400283138314821582168217823896D30189
S113085082918D93E815F905D9F7E0919D02F09105
S11308609E02BE01675F7F4F8BE992E0099518E015
S1130870180FB301610F711DE0919902F0919A0272
S113088087E992E00995312E380E032D10E0B80166
S1130890C3010E944101F301E00FF11F908391E035
S11308A0930DF301E90FF11D808380E8A82E91E5F3
S11308B0B92ECC24C394D12CE12CF12C00E010E00F
S11308C0AA962FADAA97AB963FADAB97AC964FAD1A
S11308D0AC97AD965FADAD9760E070E080E090E0DE
S11308E00E943720C901E3962EAD3FADE397821BEA
S11308F0930B4AE060E070E00E94D621BC01C20183
S11309000E94CF2165E871E0C2010E94C42142E047
S1130910430DB301C2010E945E0160E082E00E94C7
S11309204F0C0E9479034ACFFC0180818E7F089589
S1130930FC0180818F730895FC018081918100976F
S113094011F00C9447090895EF920F931F93CF93DE
S1130950DF931F92CDB7DEB76983022F10E0E12C3D
S11309609A0141E050E0BE016F5F7F4FFC0180813E
S113097091810E94C4100F90DF91CF911F910F912C
S1130980EF900895CF93DF931F92CDB7DEB721E0A8
S1130990AE014F5F5F4F0E94A40489810F90DF91E5
S11309A0CF910895EF92FF920F931F93CF93DF930C
S11309B01F92CDB7DEB7362FBA013983422F50E0EC
S11309C0EE24E394F12C8E010F5F1F4F21E0FC0114
S11309D0808191810E94F90F0F90DF91CF911F9137
S11309E00F91FF90EF900895CF93DF931F92CDB7AF
S11309F0DEB7498321E0AE014F5F5F4F0E94D2040E
S1130A000F90DF91CF910895FF920F931F93CF938F
S1130A10DF9300D0CDB7DEB78C01F62E60E0C801BD
S1130A200E94C2048A838A8181FDF8CF4F2D61E040
S1130A30C8010E94F40460E0C8010E94C2048A83D1
S1130A408A8180FFF8CF62E0C8010E94C2048983D2
S1130A5089810F900F90DF91CF911F910F91FF909B
S1130A600895CF92DF92EF92FF920F931F93CF934B
S1130A70DF93EC01162F0E940405082F61E0610F3B
S1130A80CE010E940405C82ED12CE12CF12C760154
S1130A90DD24CC24F02A62E0610FCE010E9404051B
S1130AA0082F63E0610FCE010E940405A70196019F
S1130AB0282BDA01C901BC01CD01702BDF91CF9144
S1130AC01F910F91FF90EF90DF90CF900895CF92F8
S1130AD0DF92EF92FF920F931F93CF93DF938C01DA
S1130AE07B01C0E0D0E0C42ED12CCC15DD050CF088
S1130AF04EC0C230D10561F184F42097F9F0C130C1
S1130B00D10509F042C068E1C8010E943105F7012E
S1130B10648375838683978338C0C430D10561F1BB
S1130B200CF1C530D10589F568E2C8010E94310590
S1130B30F701648B758B868B978B27C064E1C801A2
S1130B400E943105F70160837183828393831DC002
S1130B506CE1C8010E943105F701608771878287C3
S1130B60938713C060E2C8010E943105F7016487CE
S1130B7075878687978709C064E2C8010E9431059A
S1130B80F701608B718B828B938B2196AECFDF91B3
S1130B90CF911F910F91FF90EF90DF90CF90089528
S1130BA0EF92FF920F931F93CF93DF931F92CDB7D2
S1130BB0DEB78C01F62EE42E60E0C8010E94C20468
S1130BC08983898181FDF8CF4F2D406861E0C80198
S1130BD00E94F40460E0C8010E94C20489838981F0
S1130BE081FDF8CF4E2D61E0C8010E94F4040F90FE
S1130BF0DF91CF911F910F91FF90EF900895CF93C4
S1130C00DF93EC018D81877F8D83CE0105960E9451
S1130C109804482F67E0CE01DF91CF910C94D00562
S1130C20CF93DF93EC016370862F8295807F6D8173
S1130C306F7C682B6D83CE0105960E949804482F23
S1130C4067E0CE01DF91CF910C94D005CF93DF9371
S1130C50EC016370862F880F880F6B81637F682B8C
S1130C606B83CE0103960E949404482F64E0CE0166
S1130C70DF91CF910C94D005CF93DF93EC01637097
S1130C80862F8295807F6B816F7C682B6B83CE016E
S1130C9003960E949404482F64E0CE01DF91CF9123
S1130CA00C94D005462FFC01648365E00C94D005B8
S1130CB0CF93DF93EC018B8180648B83CE01039609
S1130CC00E949404482F64E0CE01DF91CF910C94EC
S1130CD0D005EF92FF920F931F93CF93DF93EC0114
S1130CE07B0188819981009711F00E94470986E071
S1130CF090E00E9445098C01A7016A810E94BA0F05
S1130D001983088361E0C8010E94E10F182F811143
S1130D1002C010E031C08B8180688B83CE010396C2
S1130D200E949404482F64E0CE010E94D0058B8178
S1130D308F778B8368EE73E080E090E00E94730B02
S1130D4060E0CE010E940405803419F7CE010E94B0
S1130D50580660E0CE010E941006CE010E94FF05F5
S1130D6062E3CE010E94520663E0CE010E943C067B
S1130D7063E0CE010E942606812FDF91CF911F915F
S1130D800F91FF90EF900895CF93DF93EC018B8147
S1130D908D7F8B83CE0103960E949404482F64E0D8
S1130DA0CE010E94D00563E0CE01DF91CF910C9477
S1130DB026060895CF93C62FFC01608188EA95E04A
S1130DC00E940D1A62E088EA95E00E94BC196C2F1B
S1130DD088EA95E00E94BC1960E088EA95E00E94E8
S1130DE0BC1988EA95E00E94961A6AE070E080E0F7
S1130DF090E0CF910C94730B262F60E0413011F0FA
S1130E006B7F01C06460222329F0213029F46C7FB8
S1130E10616002C06C7F62600E94DA060895CF931D
S1130E20DF93EC01688388EA95E00E94FB1942E0B5
S1130E3062E0CE01DF91CF910C94FC06FF920F93F8
S1130E401F93CF93DF938C01F62EFC01608188EA17
S1130E5095E00E940D1A6F2D88EA95E00E94BC1956
S1130E6088EA95E00E94961A69E070E080E090E0DC
S1130E700E94730B42E0F801608188EA95E00E94C9
S1130E80901A88EA95E00E943519182F88EA95E0AF
S1130E900E943519D12FF0E0CF2F9E01282BC901D4
S1130EA0DF91CF911F910F91FF90089560E00E9410
S1130EB01E07BC0180E090E00E94C21E20E030E0EA
S1130EC040E857E30E94501F20E030E045E253E43D
S1130ED00E94501F20E030E040E252E40E94551E80
S1130EE0089561E00E941E07BC0180E090E00E942A
S1130EF0C21E20E030E040E857E30E94501F20E08B
S1130F0030E048EC52E40E94501F08956FEF0C94B7
S1130F101E07FC01918D228D892F90E0805C9F4FEC
S1130F20821B91098F7399270895FC01918D828DFD
S1130F30981731F0828DE80FF11D858D90E00895AA
S1130F408FEF9FEF0895FC01918D828D981761F0CA
S1130F50828DDF01A80FB11D5D968C91928D9F5FEC
S1130F609F73928F90E008958FEF9FEF0895FC0197
S1130F70538D448D252F30E0842F90E0821B930BFA
S1130F80541710F0CF96089501970895FC01848DAD
S1130F90DF01A80FB11DA35ABF4F2C91848D90E09F
S1130FA001968F739927848FA689B7892C93A0897A
S1130FB0B1898C91837080648C93938D848D981304
S1130FC006C00288F389E02D80818F7D8083089597
S1130FD0EF92FF920F931F93CF93DF93EC0181E085
S1130FE0888F9B8D8C8D981305C0E889F989808141
S1130FF085FD26C0F62E0B8D10E00F5F1F4F0F737B
S11310001127E02E8C8DE8120CC00FB607FCFACF26
S1131010E889F989808185FFF5CFCE010E94C60752
S1131020F1CF8B8DFE01E80FF11DE35AFF4FF082E3
S11310309FB7F8940B8FEA89FB89808180620AC08C
S11310409FB7F894EE89FF896083E889F9898081E4
S11310508370806480839FBF81E090E0DF91CF91B3
S11310601F910F91FF90EF900895CF93DF93EC01C0
S1131070888D8823C9F0EA89FB89808185FD05C0B4
S1131080A889B9898C9186FD0FC00FB607FCF5CFEE
S1131090808185FFF2CFA889B9898C9185FFEDCF36
S11310A0CE010E94C607E7CFDF91CF910895CF927A
S11310B0DF92EF92FF921F93CF93DF93EC016A01CB
S11310C07B01122FE889F98982E080834115514E12
S11310D061057105B1F060E079E08DE390E0A7016E
S11310E096010E94F11FDA01C9010197A109B10912
S11310F0B695A795979587959C01211580E13807AA
S1131100A8F0E889F989108260E874E88EE190E03B
S1131110A70196010E94F11FDA01C9010197A109F3
S1131120B109B695A795979587959C01EC85FD85A2
S11311303083EE85FF852083188EEC89FD8910832A
S1131140EA89FB89808180618083EA89FB898081C7
S113115088608083EA89FB89808180688083EA894A
S1131160FB8980818F7D8083DF91CF911F91FF90D8
S1131170EF90DF90CF90089580E090E00895089577
S11311801F920F920FB60F9211242F938F939F9358
S1131190EF93FF93E091AF02F091B0028081E09170
S11311A0B502F091B60282FD12C090818091B8021E
S11311B08F5F8F732091B902821751F0E091B802CA
S11311C0F0E0E156FD4F958F8093B80201C0808115
S11311D0FF91EF919F918F912F910F900FBE0F90E0
S11311E01F9018951F920F920FB60F9211242F93F0
S11311F03F934F935F936F937F938F939F93AF939B
S1131200BF93EF93FF938FE992E00E94C607FF918B
S1131210EF91BF91AF919F918F917F916F915F916A
S11312204F913F912F910F900FBE0F901F901895E3
S1131230EFE9F2E01382128288EE93E0A0E0B0E0DE
S113124084839583A683B78383E392E09183808329
S113125085EC90E09587848784EC90E09787868777
S113126080EC90E0918B808B81EC90E0938B828B6F
S113127082EC90E0958B848B86EC90E0978B868B48
S1131280118E128E138E148E08950C94A3200C9438
S11312903B21CF92DF92EF92FF920F931F93CF9354
S11312A0DF936C017A018B01C0E0D0E0CE15DF053D
S11312B081F0D8016D918D01D601ED91FC910190E1
S11312C0F081E02DC6010995892B11F02196EECF0E
S11312D07E01C701DF91CF911F910F91FF90EF9095
S11312E0DF90CF9008956115710579F0FB010190AD
S11312F00020E9F73197AF01461B570BDC01ED9154
S1131300FC910280F381E02D099480E090E008953F
S11313100C947309DC01ED91FC910190F081E02DB6
S1131320099461E472E00C9473090F931F93CF93B3
S1131330DF93EC010E9473098C01CE010E94910994
S1131340800F911FDF91CF911F910F9108958F927C
S11313509F92AF92BF92EF92FF920F931F93CF93FE
S1131360DF93CDB7DEB7A1970FB6F894DEBF0FBEFB
S1131370CDBF7C01FA01CB0119A2223008F42AE086
S11313808E010F5D1F4F822E912CA12CB12CBF0119
S1131390A50194010E94F11FF901CA01015011092C
S11313A06A3010F4605D01C0695CD8016C93232B32
S11313B0242B252B61F7B801C7010E947309A1965C
S11313C00FB6F894DEBF0FBECDBFDF91CF911F9152
S11313D00F91FF90EF90BF90AF909F908F900895E2
S11313E02115310541F4DC01ED91FC910190F0816E
S11313F0E02D642F09940C94A7099A01462F50E01C
S113140060E070E00C94F0090F931F93CF93DF9387
S1131410EC010E94FD098C01CE010E949109800F0C
S1131420911FDF91CF911F910F9108950F931F93F7
S1131430CF93DF93EC010E94F0098C01CE010E944E
S11314409109800F911FDF91CF911F910F91089502
S1131450CF92DF92EF92FF920F931F93CF93DF937C
S11314602115310581F4DC01ED91FC910190F081AD
S1131470E02D642FDF91CF911F910F91FF90EF909A
S1131480DF90CF9009942A30310501F577FF1DC014
S11314906A017B01EC016DE20E948A098C014427F8
S11314A05527BA014C195D096E097F092AE0CE015E
S11314B00E94A709800F911FDF91CF911F910F9177
S11314C0FF90EF90DF90CF9008952AE0DF91CF91C5
S11314D01F910F91FF90EF90DF90CF900C94A7098C
S11314E09A01AB01770F660B770B0C94280A0895C9
S11314F08230E8F4E82FF0E0EE0FFF1FEA5FFE4FC2
S113150071836083813041F0809169008C7F482B26
S113151040936900E89A089580916900837F440F9D
S1131520551F440F551F482B40936900E99A0895AD
S1131530823078F4813011F0E89801C0E998E82FFE
S1131540F0E0EE0FFF1FEA5FFE4F87E79AE091831A
S1131550808308951F920F920FB60F9211242F9338
S11315603F934F935F936F937F938F939F93AF9327
S1131570BF93EF93FF93E0910601F0910701099562
S1131580FF91EF91BF91AF919F918F917F916F9157
S11315905F914F913F912F910F900FBE0F901F902D
S11315A018951F920F920FB60F9211242F933F9309
S11315B04F935F936F937F938F939F93AF93BF9357
S11315C0EF93FF93E0910801F09109010995FF91D0
S11315D0EF91BF91AF919F918F917F916F915F91A7
S11315E04F913F912F910F900FBE0F901F90189520
S11315F01F920F920FB60F9211242F933F938F9344
S11316009F93AF93BF9380913D0390913E03A0912C
S11316103F03B091400330913C0323E0230F2D3767
S113162020F40196A11DB11D05C026E8230F0296E2
S1131630A11DB11D20933C0380933D0390933E0371
S1131640A0933F03B09340038091410390914203E0
S1131650A0914303B09144030196A11DB11D809351
S1131660410390934203A0934303B0934403BF9177
S1131670AF919F918F913F912F910F900FBE0F903B
S11316801F9018952FB7F89460913D0370913E0315
S113169080913F03909140032FBF08953FB7F89482
S11316A08091410390914203A0914303B09144037C
S11316B026B5A89B05C02F3F19F00196A11DB11DA9
S11316C03FBFBA2FA92F982F8827820F911DA11DE4
S11316D0B11DBC01CD0142E0660F771F881F991F21
S11316E04A95D1F708958F929F92AF92BF92CF926D
S11316F0DF92EF92FF926B017C010E944E0B4B0133
S11317005C01C114D104E104F10401F10E949D1AA9
S11317100E944E0BDC01CB0188199909AA09BB0967
S1131720883E9340A105B10560F321E0C21AD108B7
S1131730E108F10888EE880E83E0981EA11CB11C14
S1131740C114D104E104F10419F7DBCFFF90EF9049
S1131750DF90CF90BF90AF909F908F900895789432
S113176084B5826084BD84B5816084BD85B58260A2
S113177085BD85B5816085BDEEE6F0E08081816040
S11317808083E1E8F0E01082808182608083808140
S113179081608083E0E8F0E0808181608083E1EB18
S11317A0F0E0808184608083E0EBF0E08081816000
S11317B08083EAE7F0E080818460808380818260B6
S11317C0808380818160808380818068808310929F
S11317D0C1000895833081F028F4813099F082307B
S11317E0A1F008958730A9F08830B9F08430D1F49D
S11317F0809180008F7D03C0809180008F778093DB
S11318008000089584B58F7702C084B58F7D84BD30
S113181008958091B0008F7703C08091B0008F7DD0
S11318208093B0000895CF93DF9390E0FC01E458D7
S1131830FF4F2491FC01E057FF4F8491882361F10D
S113184090E0880F991FFC01E255FF4FC591D49198
S1131850FC01EC55FF4FA591B491611109C09FB7EC
S1131860F8948881209582238883EC912E230BC0E1
S1131870623061F49FB7F8948881322F30958323C6
S11318808883EC912E2B2C939FBF06C08FB7F894BE
S1131890E8812E2B28838FBFDF91CF9108951F936A
S11318A0CF93DF93282F30E0F901E859FF4F84915B
S11318B0F901E458FF4FD491F901E057FF4FC49167
S11318C0CC23C1F0162F81110E94EA0BEC2FF0E01B
S11318D0EE0FFF1FEC55FF4FA591B4919FB7F894FD
S11318E0111104C08C91D095D82302C0EC91DE2B49
S11318F0DC939FBFDF91CF911F9108958F929F92A8
S1131900AF92BF92CF92DF92EF92FF920F931F9309
S1131910CF93DF936B017C0120EDC21A29E8D20A30
S11319202DE6E20A28E3F20A60934C0370934D0318
S113193080934E0390934F03E1EDF7E0C4E6D0E0CB
S113194000E911E09F012150310981E8C81683E3C1
S1131950D80681EEE80681E0F80610F1C90183702B
S11319609927892BA1F4C901BE010E94C91F892BA3
S113197031F4C901B8010E94C91F892B41F425E83B
S1131980D21A22EEE20A21E0F20A3196DBCF80E895
S1131990C81A83E3D80A81EEE80A81E0F80AF5CF91
S11319A030934B0320934A03C2E5D2E0FE01E25593
S11319B0F240A991B0E020E831E541E050E00E9416
S11319C022206C157D058E059F0528F4C61AD70ABA
S11319D0E80AF90AEBCFEF5FE0934903C701B601C8
S11319E020E831E541E050E00E94F11F4B015C0129
S11319F02F5F209348032CE3C22ED12CE12CF12C31
S1131A00A70196010E94F11F60934503C501B4012B
S1131A1020E13EE040E050E00E94F11FC22FA70108
S1131A2096010E94F11F20934603C0934703DF9160
S1131A30CF911F910F91FF90EF90DF90CF90BF90C7
S1131A40AF909F908F9008952F923F924F925F9204
S1131A506F927F928F929F92AF92BF92CF92DF92BA
S1131A60EF92FF920F931F93CF93DF93CDB7DEB71F
S1131A702C970FB6F894DEBF0FBECDBFC0904603BF
S1131A80809145030CE3C09E60011124C80ED11C53
S1131A900D2C000CEE08FF082091470330E0A0E174
S1131AA0BEE00E941320C60ED71EE81EF91E1601C2
S1131AB02701612C712C4301E0904A03F0904B0301
S1131AC0FC82EB82C70183709927892B81F4C701BB
S1131AD064E670E00E94DD1F892B59F4C70160E9B8
S1131AE071E00E94DD1F01E00983892B21F0198236
S1131AF002C011E01983E0EDF7E084E6E82EF12C52
S1131B0000E911E02B813C81E217F3077CF5CF015A
S1131B1083709927892BC1F4CF01B7010E94DD1F7F
S1131B20892B31F4CF01B8010E94DD1F892B61F4A8
S1131B309101A201B301C4013B574D415E4F6F4F68
S1131B407F4F8F4F9F4F0CC09101A201B301C4017D
S1131B5020583C4C4E415E4F6F4F7F4F8F4F9F4FED
S1131B6019012A013B014C013196CCCF3091490334
S1131B703A83432F50E0415051095C834B83E2E5A3
S1131B80F2E0CF0182559240EB80FC808E159F05D8
S1131B90DCF4A191B0E020E831E541E050E00E949E
S1131BA022205B016C019B01A60160E070E080E0F3
S1131BB090E051016201730184010E949420190193
S1131BC02A013B014C01DDCFA0914803B0E01197FD
S1131BD020E831E541E050E00E942D207B018C019A
S1131BE09B01A80160E070E080E090E05101620197
S1131BF0730184010E94942049015A010981002340
S1131C0069F01A81133050F020583E4A4E4F5F4F0E
S1131C106F4F7F4F8F4F9F4F49015A0120E3821A24
S1131C2026E7920A22E9A20A27ECB20A80924C0320
S1131C3090924D03A0924E03B0924F032C960FB690
S1131C40F894DEBF0FBECDBFDF91CF911F910F91EE
S1131C50FF90EF90DF90CF90BF90AF909F908F90C8
S1131C607F906F905F904F903F902F9008952AE05F
S1131C70622F0E94BD1F392F0E94BD1F20E1929F39
S1131C80C0011124832B0895982F92959F708F7013
S1131C902AE0929F800D11240895CF93DF93D82FCB
S1131CA0C62F68E670E088EA95E00E94171A6D2F47
S1131CB088EA95E00E94BC196C2F88EA95E00E949E
S1131CC0BC1988EA95E0DF91CF910C94961ACF93D2
S1131CD0DF930E947E0CC5E4D3E088810E94370E16
S1131CE0682F80E00E944D0E89810E94370E682F74
S1131CF081E00E944D0E8A810E94370E682F82E097
S1131D000E944D0E8B810E94370E682F84E00E9442
S1131D104D0E8C810E94370E682F85E00E944D0E77
S1131D208D81805D0E94370E682F86E00E944D0EE3
S1131D3080E090E0DF91CF910895CF92DF92EF920F
S1131D40FF92F82E68E670E088EA95E00E94171A80
S1131D506F2D88EA95E00E94BC1988EA95E00E94FC
S1131D60961A0E94420B6B017C010E94420BDC011B
S1131D70CB018C199D09AE09BF0984369105A105D3
S1131D80B10578F441E050E068E670E088EA95E057
S1131D900E94931A813049F788EA95E00E94351928
S1131DA001C080E0FF90EF90DF90CF900895CF9333
S1131DB08FE00E949D0EC82F80FF04C060E08FE07A
S1131DC00E944D0EC1FF04C060E08FE00E944D0EE2
S1131DD080E00E949D0E0E94440E8093450381E0A2
S1131DE00E949D0E0E94440E8093460382E00E944E
S1131DF09D0E0E94440E8093470384E00E949D0E32
S1131E000E94440E8093480385E00E949D0E0E9428
S1131E10440E8093490386E00E949D0E0E94440E66
S1131E2090E08053984F90934B0380934A030E9411
S1131E30240D60914C0370914D0380914E03909159
S1131E404F03CF910895EF92FF920F931F93CF9377
S1131E50DF93C62FD0E0FE01E05BFD4F1081E82E3A
S1131E60F12CC430D105C4F4812F0E949D0EB7011A
S1131E700C2E02C0759567950A94E2F77695762F35
S1131E80662777956795682B01E0010F812F0E94E3
S1131E904D0E2196102FE5CFDF91CF911F910F9119
S1131EA0FF90EF9008951F93CF93DF93EC01EA81A5
S1131EB0FB81309751F181810E94370E682F87E0B2
S1131EC00E944D0EEA81FB8182810E94370E682FA9
S1131ED088E00E944D0EEA81FB8183810E94370EC7
S1131EE0682F89E00E944D0EEA81FB8184810E9463
S1131EF0370E682F8AE00E944D0EEA81FB8160E074
S1131F0080810E94230F61E001C060E0EC81FD81CB
S1131F10309711F1162F126082810E94370E682FBC
S1131F208BE00E944D0EEC81FD8183810E94370E6F
S1131F30682F8CE00E944D0EEC81FD8184810E940B
S1131F40370E682F8DE00E944D0EEC81FD8161E01B
S1131F5080810E94230F03C0662319F011E0612FD2
S1131F6064608EE00E944D0E80E090E0DF91CF919E
S1131F701F910895FC01608352834183138280E2A0
S1131F8090E0958384830895CF93DF93EC018B8154
S1131F90811107C061E0CE010E94E10F982F8823D0
S1131FA061F0688189819A810E940D1A89819A81E0
S1131FB00E94961A91E0811190E0892FDF91CF91D0
S1131FC008951F93CF93DF93EC01162F89819A8193
S1131FD00E94FB1981E08B83112331F0CE01DF9144
S1131FE0CF911F910C94C40F81E0DF91CF911F9189
S1131FF008958F929F92BF92CF92DF92EF92FF92B9
S11320000F931F93CF93DF93DA01AE0DBF1DEC0145
S1132010EC81FD81EA17FB07A0F1B22E6A014B01A6
S1132020EC01688189819A810E940D1AE114F104FE
S113203079F489819A81DC01ED91FC910280F3812C
S1132040E02DA601B4010995C816D906D1F412C031
S11320500115110571F389819A81DC01ED91FC91DF
S11320600280F381E02DA701B8010995E816F9066D
S113207041F4DFCF6B2D89819A810E94191A91E076
S1132080811190E0892FDF91CF911F910F91FF90E3
S1132090EF90DF90CF90BF909F908F900895CF9254
S11320A0DF92EF92FF920F931F93CF93DF937C0104
S11320B06B018A01DC016C9111968D919C911297B0
S11320C00E94801A90E00817190791F4E6010C0D9C
S11320D01D1DC017D10771F0F70181819281DC01C8
S11320E0ED91FC910284F385E02D09958993F1CF5C
S11320F080E001C081E0DF91CF911F910F91FF90AB
S1132100EF90DF90CF9008959F92AF92BF92CF92BD
S1132110DF92EF92FF920F931F93CF93DF936C01A3
S11321205B017A01922EC0E0D0E0CE15DF05F8F411
S1132130F6018481958187010C1B1D0B8017910783
S113214008F48C01C701801B910BC817D90710F044
S1132150292D01C020E0A801B5016C0F7D1FC60127
S11321600E944F10882321F0C00FD11FDECF81E0E1
S1132170DF91CF911F910F91FF90EF90DF90CF905F
S1132180BF90AF909F900895AF92BF92CF92DF928D
S1132190EF92FF920F931F93CF93DF93EC016901AA
S11321A058012E2DE12CF12C00E010E00E94F90FD3
S11321B0882381F021E0A501B601CE01DF91CF9102
S11321C01F910F91FF90EF90DF90CF90BF90AF9051
S11321D00C94841080E0DF91CF911F910F91FF90B8
S11321E0EF90DF90CF90BF90AF900895E0E5F3E0DB
S11321F0158216821186138682E090E0A0E0B0E09A
S113220084879587A687B78713A215A614A682E6A6
S113221092E093A782A717A608959FB7F8942091F8
S1132220A7058091A505213019F48DBB9FBF0895A2
S11322308FBF08952091A705222399F04FB7F894F2
S11322402091A705213059F42DB32093A5053DB362
S11322502091A605209523232DBB4FBF02C0409398
S1132260A5058CBD9DBD08958EBD00000DB407FE6F
S1132270FDCF8EB508958FEF0C94341161E0FC010D
S113228084810E944F0C80919903882339F0109225
S113229099038091A70581110C940D110895CF9392
S11322A0DF93EC0180919903811109C081E080934F
S11322B0990380919A0390919B030E941A1160E004
S11322C08C81DF91CF910C944F0CCF93DF93EC0171
S11322D08E81882389F08F8198859C012F5F3F4FE1
S11322E038872F838230924018F40E943B11F3CF39
S11322F0CE010E943E111E82DF91CF9108950F936B
S11323001F93CF93DF93EB010E94420B8B010E943A
S11323103B118F3F49F00E94420B601B710B6C17FD
S11323207D07A8F380E001C081E0DF91CF911F9188
S11323300F9108958F929F92AF92BF92FF920F9345
S11323401F93CF93DF93EC01F62E49015A010E94AB
S11323506511CE010E944F116CE271E0CE010E9422
S11323607F118F2D80640E94341108E110E0D501A3
S1132370C401002E04C0B695A795979587950A9435
S1132380D2F70E94341108501109083F8FEF180743
S113239071F7FF2029F088E0F81204C087E803C031
S11323A085E901C08FEF0E94341110E00E943B11B7
S11323B08A8787FF04C01F3F11F01F5FF7CFDF91AB
S11323C0CF911F910F91FF90BF90AF909F908F90EE
S11323D008950F931F93CF93DF93EC010E94420B58
S11323E08B010E943B118A878F3F49F40E94420B64
S11323F0601B710B6D327140A0F38FE003C08E3F00
S113240039F08DE08D83CE010E943E1180E001C041
S113241081E0DF91CF911F910F910895CF92DF92C8
S1132420EF92FF920F931F93CF93DF93EC01690117
S1132430C801820F931F8130924008F05CC08E81E6
S1132440882371F088819981AA81BB8184179507BB
S1132450A607B70729F48F819885C816D90610F501
S1132460488359836A837B838B85833039F089E081
S1132470440F551F661F771F8A95D1F79A01AB0148
S113248061E1CE010E949A11882319F083E08D83C3
S113249032C0CE010E94E911882369F118861F8297
S11324A081E08E838F8198858C159D0540F40E9470
S11324B03B118F819885019698878F83F3CF6701AD
S11324C0E00EF11ECE14DF0431F00E943B11F60140
S11324D081936F01F7CF8F819885080F191F188793
S11324E00F838985882319F00115124048F0CE0125
S11324F00E94651105C0CE010E943E1180E001C01A
S113250081E0DF91CF911F910F91FF90EF90DF90C9
S1132510CF900895EF92FF920F931F93790100E0FB
S113252012E020E030E00E940E121F910F91FF9004
S1132530EF900895EF92FF920F931F93CF93DF9341
S11325408C01862F7A010E943411E7018EEFF81A6C
S113255089910E943411CE15DF05D1F78FEF0E94C7
S113256034118FEF0E9434110E943B11F8018287CD
S11325708F71853039F081E18583C8010E943E1155
S113258080E001C081E0DF91CF911F910F91FF9016
S1132590EF900895EF92FF920F93CF93DF93EC01A6
S11325A07901411551056105710511F482E139C0C4
S11325B08B85833039F089E0440F551F661F771FE0
S11325C08A95D1F79A01AB0168E1CE010E949A1174
S11325D0882311F084E025C0A7016EEFCE010E948C
S11325E09A128823F9F0011105C0CE010E943E1110
S11325F081E01CC068E572E0CE010E947F11811168
S113260002C085E10EC020E030E0A9016DE0CE01FA
S11326100E949A11811104C00E943B11882329F35E
S113262084E18D83CE010E943E1180E0DF91CF9141
S11326300F91FF90EF9008951F93CF93DF93EC01D8
S11326400E944F110E943B11182FCE010E943E118F
S113265081E01F3F09F480E0DF91CF911F9108953D
S1132660EAE9F3E080E5808311820895CF93DF9354
S1132670EC019C012A5F3F4F41E050E060E070E0D4
S11326808B8D9C8D0E9418188823B9F08F89988DA2
S1132690A98DBA8D892B8A2B8B2B59F48E819F811E
S11326A0A885B9858F8B988FA98FBA8F8C81806804
S11326B08C838C8180628C8381E0DF91CF9108953B
S11326C0CF93DF93EC01462F6E857F8588899989A6
S11326D00E94B816882341F08A8920E2829FC001B3
S11326E011248B559C4F02C080E090E0DF91CF9184
S11326F008958F929F92AF92BF92CF92DF92EF9202
S1132700FF920F931F93CF93DF93EC018D8181117F
S113271002C080E078C00B891C892D893E8904178A
S1132720150726073707A8F36A017B01823029F4CD
S1132730CA86DB86EC86FD860DC0C114D104E10493
S1132740F10451F41E821F82188619861A861B868C
S11327501C861D8681E057C08A849B84AC84BD841A
S1132760EB8DFC8D258530E0275F3F4FB501A4013B
S11327704150510961097109022E04C0769567958B
S1132780579547950A94D2F7D701C6010197A10935
S1132790B10904C0B695A795979587952A95D2F760
S11327A084179507A607B70720F089288A288B285D
S11327B071F44F89588D698D7A8D4E835F83688754
S11327C079874C015D018E010A5F1F4F16C0841B7F
S11327D0950BA60BB70BF5CF4E815F816885798584
S11327E098018B8D9C8D0E94F41691E0891A9108B2
S11327F0A108B108882309F48CCF81149104A104A1
S1132800B10451F795CFDF91CF911F910F91FF90B4
S1132810EF90DF90CF90BF90AF909F908F900895EE
S1132820FF920F931F93CF93DF93FC012581222303
S113283009F442C0F62EEC01848187FF30C061E0C8
S1132840CF010E9460138C01892BB1F18D818230FC
S113285048F48B899C89AD89BE89F801848F958F52
S1132860A68FB78F8F89988DA98DBA8DF801938F14
S1132870828FB58BA48BE0919C03F0919D033097DC
S113288059F0B8016A5E7F4FC80148960995F8016E
S1132890808D918D938B828B8C818F778C83F110BB
S11328A003C08C818F7E8C838F2DDF91CF911F91FC
S11328B00F91FF900C948F1680E0DF91CF911F91C0
S11328C00F91FF900895CF93DF93EC018D818130B8
S11328D0D1F48C8181FF17C082FF0DC04B895C89C4
S11328E06D897E898A859B85AC85BD85841795070E
S11328F0A607B70759F48091A3039091A4030E94FB
S11329001C13882349F080E090E02AC0CE010E9485
S113291079138111F0CFF7CF8C8185FF08C060E077
S1132920CE010E9410148C818F7D8C83ECCF40915A
S11329309E0350919F036091A0037091A103452BC6
S1132940462B472B21F080E00E946B16DCCF806180
S11329508C832A853B85317080E092E0821B930B47
S1132960DF91CF9108952F923F924F925F926F9291
S11329707F928F929F92AF92BF92CF92DF92EF920B
S1132980FF920F931F93CF93DF9300D000D01F9239
S1132990CDB7DEB77C016B011A01DC0115968C9171
S11329A015978130C9F414961C9111FF15C012FFBC
S11329B01DC0F70143895489658976898285938589
S11329C0A485B58584179507A607B70779F0C701CD
S11329D00E94791381110AC081E090E0D701139617
S11329E09C938E93129780E090E04CC14101129524
S11329F01F70109511701D8380C05B968D919C9102
S1132A005C97FC0174807A94B901A80129E0769559
S1132A106795579547952A95D1F7742211707720B9
S1132A2009F477C080E092E0801B910B5401881573
S1132A30990508F45C01D7015B962D913C915C9754
S1132A4016968D919D910D90BC91A02D0297A10990
S1132A50B109F901058404C0880F991FAA1FBB1F7F
S1132A600A94D2F74685578560897189840F951F2A
S1132A70A61FB71F9C01AD01270D311D411D511D1E
S1132A8029013A01A11432E0B30609F089C080910A
S1132A900A0190910B01A0910C01B0910D0148160F
S1132AA059066A067B0659F48FEF9FEFDC01809389
S1132AB00A0190930B01A0930C01B0930D010D81B9
S1132AC09601B301A2018091A3039091A4030E94F3
S1132AD0CA12882309F480CF9EEFD91A8A189B085A
S1132AE0F70182859385A485B5858A0D9B1DA11D5B
S1132AF0B11D82879387A487B587D7011A960D9154
S1132B001D912D913C911D978114910409F075CF6D
S1132B1088C00115110509F085CF16964D915D9178
S1132B206D917C911997411551056105710559F411
S1132B3057968D919D910D90BC91A02D0097A10564
S1132B40B10541F521C09E012F5F3F4F0E94F4164D
S1132B50882309F449CF89819A81AB81BC81F7012B
S1132B60238D348DF9012789203129F048EF5FEF57
S1132B706FEF7FE004C048EF5FEF60E070E0841720
S1132B809507A607B70730F0C7010E9436138111D5
S1132B9049CF22CFF70186839783A087B18742CF9D
S1132BA00115110531F5D7011A964D915D916D917D
S1132BB07C911D9753968D919D910D90BC91A02D64
S1132BC0481759076A077B07A0F081E00E948F1617
S1132BD0882309F401CF40920A0150920B016092BC
S1132BE00C0170920D018091A20381608093A20375
S1132BF008C041E0C301B2010E94B816882309F459
S1132C00EBCED601F801EB55FC4F9F012A0D3B1D7D
S1132C102E173F0719F08D918193FACFCA0CDB1C54
S1132C205DCFD70153964D915D916D917C915697EF
S1132C3014968C91401751076207730740F4F7010B
S1132C40038B148B258B368B806884830DC0209175
S1132C509C0330919D03232B39F02114310421F07E
S1132C608068D70114968C93F701848183FD02C098
S1132C70C10108C061E0C7010E941014882309F44F
S1132C80ABCEF6CF0F900F900F900F900F90DF9177
S1132C90CF911F910F91FF90EF90DF90CF90BF9055
S1132CA0AF909F908F907F906F905F904F903F90E8
S1132CB02F900895CF93DF931F92CDB7DEB769832A
S1132CC041E050E0BE016F5F7F4F0E94B3140F904C
S1132CD0DF91CF9108950F9340919E0350919F03EC
S1132CE06091A0037091A10341155105610571051F
S1132CF099F0082F25EA33E08091A3039091A4036F
S1132D000E94CA12882349F010929E0310929F03D6
S1132D101092A0031092A10381E00F9108950F93E4
S1132D20CF939091A2039923F9F0C82F40910A01FF
S1132D3050910B0160910C0170910D01082F25EA4F
S1132D4033E08091A3039091A4030E94CA128111DD
S1132D5002C080E00AC0CC2339F08C2F0E946B168D
S1132D608823B9F31092A20381E0CF910F910895C3
S1132D70CF92DF92EF92FF92CF936B017C01C42F2D
S1132D8080910A0190910B01A0910C01B0910D0169
S1132D908C159D05AE05BF05D9F081E00E948F1604
S1132DA0811102C080E01AC025EA33E0B701A60110
S1132DB08091A3039091A4030E948A12882391F323
S1132DC0C0920A01D0920B01E0920C01F0920D0125
S1132DD08091A203C82BC093A20381E0CF91FF90FE
S1132DE0EF90DF90CF9008958F929F92AF92BF9211
S1132DF0CF92DF92EF92FF920F931F93CF93DF93C3
S1132E00FC0181859285A385B4850196A11DB11D20
S1132E1084179507A607B70710F480E05BC0838882
S1132E209488A588B6888789803129F4BB27A72F81
S1132E30962F852F09C0DB01CA01C7E0B695A79577
S1132E4097958795CA95D1F7E9016A017B018F01AE
S1132E50BC01CD01680D791D8A1D9B1D80900A015E
S1132E6090900B01A0900C01B0900D0168157905AC
S1132E708A059B0591F4F80187898031A1F4DD244A
S1132E80EE24FF24C601880F991FFC01EB55FC4F6B
S1132E9080819181A0E0B0E018C040E00E94B816A3
S1132EA08111E9CFBACFE894C7F8DD24EE24FF24DA
S1132EB0C601880F991F880F991FFC01EB55FC4F21
S1132EC080819181A281B381BF7088839983AA8311
S1132ED0BB8381E0DF91CF911F910F91FF90EF9021
S1132EE0DF90CF90BF90AF909F908F9008954F92B6
S1132EF05F926F927F928F929F92AF92BF92CF9286
S1132F00DF92EF92FF920F931F93CF93DF93EC0125
S1132F10423051056105710510F480E078C089855F
S1132F209A85AB85BC850196A11DB11D84179507B3
S1132F30A607B70790F3CB88DC88ED88FE888F89D5
S1132F40803129F4BB27A72F962F852F09C0DB01D9
S1132F50CA01E7E0B695A79597958795EA95D1F7C5
S1132F60480159012A013B01C80ED91EEA1EFB1E65
S1132F7080910A0190910B01A0910C01B0910D0177
S1132F80C816D906EA06FB0681F48F898031A9F4B4
S1132F90B301A201552766277727440F551FFA016D
S1132FA0EB55FC4F9182808219C040E0C701B60105
S1132FB00E94B8168111E9CFB0CFB301A2014F77B7
S1132FC0552766277727440F551F440F551FFA01CD
S1132FD0EB55FC4F80829182A282B3828091A2033E
S1132FE081608093A2038A89823080F08D819E81E2
S1132FF0AF81B885C80ED91EEA1EFB1EC0929E037F
S1133000D0929F03E092A003F092A10381E0DF91AC
S1133010CF911F910F91FF90EF90DF90CF90BF90D1
S1133020AF909F908F907F906F905F904F90089596
S11330302F923F924F925F926F927F929F92AF92A4
S1133040BF92CF92DF92EF92FF920F931F93CF9391
S1133050DF93CDB7DEB760970FB6F894DEBF0FBE2F
S1133060CDBF5C0149875A876B877C871901D901D9
S1133070CD90DD90ED90FC90C114D104E104F104F5
S113308031F0BFEFCB1ADB0AEB0AFB0A10C0FC01DC
S1133090C080D180E280F3809924939409851A85B5
S11330A02B853C85013011052105310509F0912C52
S11330B0F50181859285A385B4858C019D010F5FFF
S11330C01F4F2F4F3F4F0D871E872F87388B2601A9
S11330D037011D821E821F821886F5018185928523
S11330E0A385B4850D811E812F81388508171907A2
S11330F02A073B0708F056C02D853E854F85588921
S1133100241535054605570550F482E0482E512C08
S1133110612C712C92E0C92ED12CE12CF12C9E0152
S11331202F5F3F4FB301A201C5010E94F41688230B
S1133130C9F149815A816B817C81D301C201019615
S1133140A11DB11D452B462B472B19F06C017D01A8
S11331500FC0AC01BD014C195D096E097F090985D9
S11331601A852B853C85041715072607370779F040
S11331702D813E814F8158852F5F3F4F4F4F5F4FC9
S11331802D833E834F8358872C013D01A6CF0FEF3B
S11331901FEF2FEF3FE0B301A201C5010E94771793
S11331A0811118C080E041C0D301C2010197A10977
S11331B0B1098D839E83AF83B88793018201AC01EB
S11331C0BD01C5010E947717882361F34D805E809D
S11331D06F807884C414D504E604F70428F3D1017D
S11331E04D915D916D917C9141155105610571057C
S11331F099F4F101C082D182E282F3829920A1F094
S1133200FFEFCF1ADF0AEF0AFF0AD501CD92DD9254
S1133210ED92FC92139708C097018601C5010E94A4
S113322077178111E6CFBECF81E060960FB6F89490
S1133230DEBF0FBECDBFDF91CF911F910F91FF90E5
S1133240EF90DF90CF90BF90AF909F907F906F9062
S11332505F904F903F902F9008958091DC0590E00F
S11332602091DD05821B910908959091DD058091DF
S1133270DC05981750F4E92FF0E0E252FA4F208170
S113328030E09F5F9093DD0502C02FEF3FEFC9014F
S11332900895E091DD058091DC05E81730F4F0E055
S11332A0E252FA4F808190E008958FEF9FEF0895E6
S11332B00895CF93DF93EC01E091B405F091B50547
S11332C03097F1F09091DD058091DC059817C0F0FE
S11332D090E0292F30E02617370754F4DE01A20FBF
S11332E0B31F4C91D901A252BA4F4C939F5FF1CFB7
S11332F01092DD056093DC05CB01DF91CF91099439
S1133300DF91CF910895E091B605F091B70530971C
S113331029F01092BA051092B90509940895CF9234
S1133320DF92EF92FF920F931F93CF93DF937C0171
S1133330CB018A012091B805222389F0EB016B01AE
S1133340C40ED51ECC15DD0569F06991D701ED9148
S1133350FC910190F081E02DC7010995F3CF642F12
S11333600E94C91AC801DF91CF911F910F91FF905C
S1133370EF90DF90CF900895CF93DF931F92CDB756
S1133380DEB769832091B8052223D1F02091B905D5
S1133390203240F021E030E0FC013383228380E0DE
S11333A090E015C08091BA05E82FF0E0E554FA4F9B
S11333B0998190838F5F8093BA058093B90505C086
S11333C061E0CE0101960E94C91A81E090E00F905D
S11333D0DF91CF910895FC011382128288EE93E06D
S11333E0A0E0B0E084839583A683B7838EE692E061
S11333F09183808308951092DD051092DC0510926C
S1133400BA051092B9050E949E1A83E899E10E94B8
S1133410F61A89E599E10C94F11A81E08093B805D4
S11334206093DB051092BA051092B90508950C94C7
S11334300D1A0F93062F21E04091B9056BEB75E04F
S11334408091DB050E94001C1092BA051092B90508
S11334501092B8050F9108954F925F926F927F92E8
S1133460AF92BF92CF92EF92FF920F931F93CF939D
S1133470DF935C01F62ED42F28013901EE2021F1CF
S11334800E940D1ACE2DC43008F0C3E0C150C0F024
S113349028E0C29FC0011124A301920104C05695E3
S11334A04795379527958A95D2F7CA01B901D50171
S11334B0ED91FC910190F081E02DC5010995E6CFD5
S11334C060E0C5010E94191A4D2FD13208F040E284
S11334D02C2D6EED75E08F2D0E94171B1092DD05CB
S11334E08093DC05DF91CF911F910F91FF90EF90B6
S11334F0CF90BF90AF907F906F905F904F90089562
S1133500CF92EF920F931F93C22EE12C00E010E0B4
S113351098010E942C1A1F910F91EF90CF9008955B
S113352021E00C94801A21E00C94801A61E00C9440
S1133530191A88EA95E00C94EB1908951092710613
S113354081E080936F0610926E0661E082E10E9432
S11335504F0C61E083E10E944F0CE9EBF0E08081C5
S11335608E7F808380818D7F808388E48093B80000
S113357085E48093BC000895ECEBF0E080818A7BC5
S1133580808360E082E10E944F0C60E083E10C9450
S11335904F0C40912006262F30E0240F311D21329C
S11335A03105DCF4209171062430C9F4FC0180E07B
S11335B090E0861758F4309120062191DC01AE5D2D
S11335C0B94FA30FB11D2C930196F3CF8091200620
S11335D0680F6093200680E0089581E0089582E0FA
S11335E00895909365068093640608959093670602
S11335F080936606089585EC8093BC001092710652
S11336000895CF93DF9391E090936906882361F046
S1133610C091B800D091BA000E94BC1A0E949E1AB0
S1133620D093BA00C093B800DF91CF9108954F9220
S11336305F926F927F928F929F92AF92BF92CF923E
S1133640DF92EF92FF920F931F93CF93DF93F82EA5
S1133650162F072FC42FE22E413208F0BEC00E945D
S11336604E0B4B015C01D0917106DD2331F1809149
S11336706A0690916B06A0916C06B0916D06892B39
S11336808A2B8B2B81F30E944E0B40906A0650903C
S11336906B0660906C0670906D06DC01CB01881996
S11336A09909AA09BB09481659066A067B06D8F681
S11336B0809168060E94011B90C081E0809371068E
S11336C0E0926F069FEF9093FE05109243069C0FC5
S11336D09093420680937006909170068F2D880F08
S11336E0892B8093700680916E06813089F5109243
S11336F06E060E944E0B6B017C01809170068093D4
S1133700BB0080916A0690916B06A0916C06B09103
S11337106D06892B8A2B8B2BA9F00E944E0B80906F
S11337206A0690906B06A0906C06B0906D06DC0162
S1133730CB018C199D09AE09BF0988169906AA0602
S1133740BB0690F18091BC0083FDD7CF85EC01C00E
S113375085EE8093BC000E944E0B6B017C0180912E
S11337607106813031F580916A0690916B06A091C3
S11337706C06B0916D06892B8A2B8B2B81F30E94EA
S11337804E0B80906A0690906B06A0906C06B090E9
S11337906D06DC01CB018C199D09AE09BF098816A1
S11337A09906AA06BB06D8F6809168060E94011BFA
S11337B015C0809143068C1710F4C0914306A4E40D
S11337C0B6E0912FE12FF02F8E2F891B8C1718F460
S11337D08D918193F9CFDC2F01C0D0E08D2FDF9143
S11337E0CF911F910F91FF90EF90DF90CF90BF90FA
S11337F0AF909F908F907F906F905F904F900895BF
S11338004F925F926F927F928F929F92AF92BF92EC
S1133810CF92DF92EF92FF920F931F93CF93DF9398
S1133820413208F0C6C0122FF42ED72EE62ED82F20
S11338300E944E0B4B015C01C0917106CC2311F127
S113384080916A0690916B06A0916C06B0916D060A
S1133850892B8A2B8B2B81F30E944E0B40906A0696
S113386050906B0660906C0670906D06DC01CB0185
S113387088199909AA09BB09481659066A067B06DC
S1133880D8F683C082E08093710600936F068FEFB1
S11338908093FE0510924306F09242069E2DA4E406
S11338A0B6E0EE2DFD2D8E2F891B8F1518F4819116
S11338B08D93F9CF1092700690917006DD0FD92B7D
S11338C0D093700680916E06813089F510926E0651
S11338D00E944E0B6B017C01809170068093BB00AB
S11338E080916A0690916B06A0916C06B0916D066A
S11338F0892B8A2B8B2BA9F00E944E0B80906A0691
S113390090906B06A0906C06B0906D06DC01CB0124
S11339108C199D09AE09BF0988169906AA06BB062B
S1133920A0F18091BC0083FDD7CF85EC01C085EE6A
S11339308093BC000E944E0B6B017C01112359F152
S113394080917106823039F580916A0690916B06F8
S1133950A0916C06B0916D06892B8A2B8B2B71F389
S11339600E944E0B80906A0690906B06A0906C06A5
S1133970B0906D06DC01CB018C199D09AE09BF091D
S113398088169906AA06BB06C8F6809168060E94A6
S1133990011BC5E013C08091FE058F3F79F0809133
S11339A0FE05803241F08091FE05803331F0C4E0A1
S11339B005C0C1E003C0C2E001C0C3E08C2FDF91A9
S11339C0CF911F910F91FF90EF90DF90CF90BF9018
S11339D0AF909F908F907F906F905F904F900895DD
S11339E085ED8093BC0080916A0690916B06A0914E
S11339F06C06B0916D060796A11DB11D23E0B69526
S1133A00A795979587952A95D1F72091BC0024FF17
S1133A101CC040916A0650916B0660916C067091CF
S1133A206D06452B462B472B81F30097A105B10565
S1133A3041F025E32A95F1F700000197A109B109A6
S1133A40E4CF809168060C94011B109271060895CE
S1133A501F920F920FB60F9211242F933F934F93FF
S1133A605F936F937F938F939F93AF93BF93EF93E2
S1133A70FF938091B900887F803609F49EC078F561
S1133A80883209F45DC090F4803109F456C038F4EA
S1133A90882309F4F5C0883009F44FC0F5C0883193
S1133AA009F44EC0803209F45FC0EEC0803409F4DA
S1133AB06AC058F4803309F457C0883309F0E4C06D
S1133AC08093FE050E94FB1ADFC0803509F44FC0C5
S1133AD0883509F45DC0883409F0D6C0D3C088396C
S1133AE009F4C4C0A8F4883709F467C038F48836E8
S1133AF009F463C0803709F460C0C6C0883809F48B
S1133B00B5C0803909F45FC0803809F0BDC05BC01E
S1133B10803B09F483C038F4803A09F466C0883ADB
S1133B2009F47CC0B1C0803C09F4A4C0883C09F409
S1133B30A1C0883B09F487C0A7C08091700610C05B
S1133B409091430680914206981770F5E0914306E0
S1133B5081E08E0F80934306F0E0EC5BF94F8081A7
S1133B608093BB0085EC83C08093FE058BC0E091FD
S1133B70430681E08E0F809343068091BB00F0E002
S1133B80EC5BF94F808390914306809142066BC0B1
S1133B90E091430681E08E0F809343068091BB0041
S1133BA0F0E0EC5BF94F808380916F0681116AC06D
S1133BB081E080936E0684EA5EC083E080937106A0
S1133BC01092FF05CFCF8091FF05803208F04EC0E0
S1133BD0E091FF0581E08E0F8093FF058091BB008B
S1133BE0F0E0E050FA4F8083BDCF0E94FB1A809131
S1133BF0FF05803230F4E091FF05F0E0E050FA4F29
S1133C0010826091FF0570E0E0916406F091650612
S1133C1080E096E009951092FF0536C084E0809319
S1133C2071061092210610922006E0916606F0912A
S1133C306706099580912006811105C081E0809373
S1133C40200610922206E091210681E08E0F8093D7
S1133C502106F0E0EE5DF94F80818093BB009091E6
S1133C60210680912006981708F47CCF85E880937C
S1133C70BC000AC085EC8093BC001092710604C09D
S1133C801092FE050E94F01CFF91EF91BF91AF913D
S1133C909F918F917F916F915F914F913F912F9160
S1133CA00F900FBE0F901F9018955058BB27AA274E
S1133CB00E946D1E0C94161F0E94081F38F00E946B
S1133CC00F1F20F039F49F3F19F426F40C94051FBC
S1133CD00EF4E095E7FB0C94FF1EE92F0E94271FCA
S1133CE058F3BA17620773078407950720F079F42D
S1133CF0A6F50C94491F0EF4E0950B2EBA2FA02DB7
S1133D000B01B90190010C01CA01A0011124FF2784
S1133D10591B99F0593F50F4503E68F11A16F0407F
S1133D20A22F232F342F4427585FF3CF469537957E
S1133D302795A795F0405395C9F77EF41F16BA0B43
S1133D40620B730B840BBAF09150A1F0FF0FBB1FF1
S1133D50661F771F881FC2F70EC0BA0F621F731F3A
S1133D60841F48F4879577956795B795F7959E3F97
S1133D7008F0B0CF9395880F08F09927EE0F979528
S1133D8087950895E89409C097FB3EF49095809533
S1133D90709561957F4F8F4F9F4F9923A9F0F92F0D
S1133DA096E9BB279395F695879577956795B7958B
S1133DB0F111F8CFFAF4BB0F11F460FF1BC06F5F71
S1133DC07F4F8F4F9F4F16C0882311F096E911C083
S1133DD0772321F09EE8872F762F05C0662371F0A4
S1133DE096E8862F70E060E02AF09A95660F771FB8
S1133DF0881FDAF7880F9695879597F9089597F9AC
S1133E009F6780E870E060E008959FEF80EC08957C
S1133E1000240A94161617061806090608950024A5
S1133E200A9412161306140605060895092E03941F
S1133E30000C11F4882352F0BB0F40F4BF2B11F493
S1133E4060FF04C06F5F7F4F8F4F9F4F089557FDF2
S1133E509058440F551F59F05F3F71F04795880FF4
S1133E6097FB991F61F09F3F79F08795089512168B
S1133E7013061406551FF2CF4695F1DF08C0161637
S1133E8017061806991FF1CF8695710561050894E8
S1133E900895E894BB2766277727CB0197F90895FF
S1133EA00E94631F0C94161F0E94081F38F00E9482
S1133EB00F1F20F0952311F00C94FF1E0C94051F86
S1133EC011240C944A1F0E94271F70F3959FC1F37D
S1133ED0950F50E0551F629FF001729FBB27F00DB4
S1133EE0B11D639FAA27F00DB11DAA1F649F662709
S1133EF0B00DA11D661F829F2227B00DA11D621F58
S1133F00739FB00DA11D621F839FA00D611D221F11
S1133F10749F3327A00D611D231F849F600D211DF5
S1133F20822F762F6A2F11249F5750409AF0F1F078
S1133F3088234AF0EE0FFF1FBB1F661F771F881FE1
S1133F4091505040A9F79E3F510580F00C94FF1EFC
S1133F500C944A1F5F3FE4F3983ED4F3869577951B
S1133F606795B795F795E7959F5FC1F7FE2B880F87
S1133F70911D9695879597F90895991B79E004C04A
S1133F80991F961708F0961B881F7A95C9F7809594
S1133F900895AA1BBB1B51E107C0AA1FBB1FA6178C
S1133FA0B70710F0A61BB70B881F991F5A95A9F7DE
S1133FB080959095BC01CD01089597FB072E16F4CA
S1133FC0009407D077FD09D00E94C91F07FC05D0D3
S1133FD03EF4909581959F4F0895709561957F4F1C
S1133FE00895A1E21A2EAA1BBB1BFD010DC0AA1F36
S1133FF0BB1FEE1FFF1FA217B307E407F50720F04E
S1134000A21BB30BE40BF50B661F771F881F991FC8
S11340101A9469F760957095809590959B01AC0111
S1134020BD01CF010895A29FB001B39FC001A39F1A
S1134030700D811D1124911DB29F700D811D1124DD
S1134040911D08950E941320A59F900DB49F900D7B
S1134050A49F800D911D11240895B7FF0C94222074
S11340600E942220821B930B0895689401C0E89457
S11340708F929F92CF93DF930E944320DF91CF9141
S11340809F908F90089588249924F401E401B0E46A
S11340909F93AA279A158B049C04ED05FE05CF0572
S11340A0D007A10798F4AD2FDC2FCF2FFE2FE92DD9
S11340B0982C892E982F872F762F652F542F432FD6
S11340C0322F2227B85031F7BF9127C01B2EBF9142
S11340D0BB27220F331F441F551F661F771F881FDE
S11340E0991F881C991CEE1FFF1FCC1FDD1FAA1FE0
S11340F0BB1F8A149B04EC05FD05CE05DF05A00754
S1134100B10748F08A189B08EC09FD09CE09DF09BC
S1134110A00BB10B21601A94E1F62EF49401AF01C7
S1134120BE01CD01000C08952A0D3B1D4C1D5D1DE3
S11341306E1D7F1D801F911F0895EE0FFF1F0590B8
S1134140F491E02D09940F931F93CF93DF93823062
S1134150910510F482E090E0E0917406F091750608
S113416020E030E0A0E0B0E0309719F140815181C7
S11341700281138148175907C8F08417950769F419
S1134180109731F012960C93129713961C9327C034
S1134190009374061093750622C02115310519F099
S11341A04217530718F49A01BD01EF01DF01F8012A
S11341B0DBCF21153105F9F0281B390B24303105EB
S11341C080F48A819B816115710521F0FB01938341
S11341D0828304C09093750680937406FE01329620
S11341E044C0FE01E20FF31F8193919322503109E1
S11341F0398328833AC02091720630917306232BA9
S113420041F420910201309103013093730620930D
S1134210720620910001309101012115310541F40C
S11342202DB73EB74091040150910501241B350B75
S1134230E0917206F0917306E217F307A0F42E1BC7
S11342403F0B2817390778F0AC014E5F5F4F2417F6
S1134250350748F04E0F5F1F509373064093720664
S11342608193919302C0E0E0F0E0CF01DF91CF9120
S11342701F910F910895CF93DF93009709F481C0A4
S1134280FC01329713821282A0917406B0917506D4
S1134290109781F420813181820F931F209172063F
S11342A0309173062817390751F5F0937306E0939C
S11342B0720667C0ED0120E030E0CE17DF0740F45E
S11342C04A815B819E0141155105F1F0EA01F5CF68
S11342D0D383C28340815181840F951FC817D907A6
S11342E059F488819981840F951F02969183808364
S11342F08A819B81938382832115310529F4F0936C
S11343007506E09374063DC0E901FB83EA83499195
S11343105991C40FD51FEC17FD0761F48081918179
S1134320840F951F0296E901998388838281938182
S11343309B838A83E0E0F0E012968D919C91139721
S1134340009719F0FD01DC01F7CF8D919C91119735
S11343509D012E5F3F4F820F931F20917206309173
S113436073062817390769F4309729F410927506F3
S11343701092740602C013821282B0937306A09343
S11343807206DF91CF910895FB01DC010D900020AE
S1134390E9F7119701900D920020E1F70895FB01D0
S11343A0DC0101900D920020E1F70895BB274A300B
S11343B031F4992322F4BDE2909581959F4F0C949A
S11343C0E221BB27FB015527AA27880F991FAA1FA3
S11343D0A41710F0A41B83955051B9F7A05DAA331C
S11343E008F0A95DA193009779F7B111B1931192E7
S11343F0CB010C94FB21DC01FC01672F7191772325
S1134400E1F7329704C07C916D9370836291AE178B
S1134410BF07C8F3089510E0C1E6D0E004C0FE0170
S11344200E949D202196C236D107C9F7F894FFCF88
S1134430000076062000770A770AFFFFFFFF46692F
S11344406C65206E616D65203A20004672616D6571
S1134450206C656E676874203A20002C0900457250
S1134460726F722076616C7565203A200009426C87
S1134470696E6B20636F756E74203A20004552524A
S11344804F52203A2000203A205344206361726442
S113449020756E726561636861626C652E00203AF6
S11344A02053656E736F7220756E72656163686107
S11344B0626C652E002E62696E00676F746F5F73A5
S11344C06C65657000686463313038305F726561B3
S11344D064006173373236325F7265616400686408
S11344E063313038305F696E697400617337323616
S11344F0325F696E6974007374617475735F626CA2
S1134500696E6B65725F64697361626C6500737474
S1134510617475735F626C696E6B65725F696E69F5
S113452074006473333233315F696E697400736984
S1134530676E616C5F6572726F7200736176655F3E
S11345406672616D6500636865636B73756D0069A0
S11345506E69745F7365747570006D61696E0000D7
S1134560000000E8074909B70735088907A307953C
S1134570070D0A006E616E00696E66006F76660054
S1134580070B1F1C1F1E1F1E1F1F1E1F1E1F0000A8
S113459000005A1649096314BF0800000000BC1942
S10F45A08F19BC0858192D193519491938
S9030000FC
