:100000000C9460000C9469120C9490120C9488006B
:100010000C9488000C9488000C9488000C94880040
:100020000C9488000C9488000C9488000C94F10DBA
:100030000C9488000C9488000C9488000C94880020
:100040000C9408050C9488000C9472020C94A40281
:100050000C9488000C9488000C9488000C94880000
:100060000C947D160C94880000000008000201002A
:100070000003040700000000000000000102040863
:100080001020408001020408102001020408102002
:10009000040404040404040402020202020203032E
:1000A0000303030300000000250028002B000000CC
:1000B0000000240027002A00CA02440B080D120D7C
:1000C00011241FBECFEFD8E0DEBFCDBF13E0A0E00C
:1000D000B1E0E6E3F7E302C005900D92A030B1076E
:1000E000D9F724E0A0E0B3E001C01D92A03AB20726
:1000F000E1F710E0CFE5D0E004C02197FE010E94B7
:10010000671ACC35D107C9F70E94D5000C948E1B15
:100110000C940000CF93DF9326E040E855E260E0C6
:1001200070E080E093E00E940A0261E371E080E009
:1001300093E00E9443030E94AC0D81EB93E00E9488
:10014000A60A0E94390FEC010E94830EC82BD92BFE
:100150000E94BD0CC82BD92B64EF71E080E090E0C9
:100160000E9483050E94DB0DCE01DF91CF9108959F
:100170000F931F93CF93DF938C01EB0168E271E043
:1001800080E093E00E944303F801C00FD11F80E09C
:1001900090E0EC17FD0721F02191820F911DF9CF1E
:1001A000DF91CF911F910F910895CF93DF93CDB73A
:1001B000DEB7C854D1090FB6F894DEBF0FBECDBF6D
:1001C0000E94BF050E948A00009711F00E94500D06
:1001D000CE0101967C0180E4F70111928A95E9F73E
:1001E0008E010F5B1F4F6CE371E080E093E00E9493
:1001F0004303809123048823C1F161E082E00E94DF
:100200005F06109223040E94E6089B01AC01F801EE
:10021000208331834283538314821582168217828E
:100220003896D70182918D93E017F107D9F7CE0167
:1002300009960E94DC0CB82E88E08B0DC82ED12CBC
:10024000B601C7010E94B800F701EC0DFD1D9083B7
:1002500099E09B0DF701E90FF11D80834AE04B0DFA
:10026000B7018CE191E00E94310E60E082E00E94D3
:100270005F060E941F0DB7CFFC01918D228D892F43
:1002800090E0805C9F4F821B91098F73992708959E
:10029000FC01918D828D981731F0828DE80FF11D50
:1002A000858D90E008958FEF9FEF0895FC01918D6B
:1002B000828D981761F0828DDF01A80FB11D5D96C8
:1002C0008C91928D9F5F9F73928F90E008958FEF36
:1002D0009FEF0895FC01538D448D252F30E0842F2E
:1002E00090E0821B930B541710F0CF96089501975E
:1002F0000895FC01848DDF01A80FB11DA35ABF4FE3
:100300002C91848D90E001968F739927848FA68914
:10031000B7892C93A089B1898C91837080648C9368
:10032000938D848D981306C00288F389E02D808117
:100330008F7D80830895EF92FF920F931F93CF9349
:10034000DF93EC0181E0888F9B8D8C8D981305C025
:10035000E889F989808185FD26C0F62E0B8D10E095
:100360000F5F1F4F0F731127E02E8C8DE8120CC00A
:100370000FB607FCFACFE889F989808185FFF5CFB0
:10038000CE010E947901F1CF8B8DFE01E80FF11DA6
:10039000E35AFF4FF0829FB7F8940B8FEA89FB89ED
:1003A000808180620AC09FB7F894EE89FF896083DC
:1003B000E889F98980818370806480839FBF81E0B0
:1003C00090E0DF91CF911F910F91FF90EF900895F2
:1003D000CF93DF93EC01888D8823C9F0EA89FB89EC
:1003E000808185FD05C0A889B9898C9186FD0FC0E3
:1003F0000FB607FCF5CF808185FFF2CFA889B989B8
:100400008C9185FFEDCFCE010E947901E7CFDF917E
:10041000CF910895CF92DF92EF92FF921F93CF93E7
:10042000DF93EC016A017B01122FE889F98982E0F0
:1004300080834115514E61057105B1F060E079E0AE
:100440008DE390E0A70196010E941A1ADA01C90112
:100450000197A109B109B695A795979587959C0134
:10046000211580E13807A8F0E889F989108260E851
:1004700074E88EE190E0A70196010E941A1ADA0151
:10048000C9010197A109B109B695A79597958795D7
:100490009C01EC85FD853083EE85FF852083188ED9
:1004A000EC89FD891083EA89FB89808180618083E2
:1004B000EA89FB89808188608083EA89FB89808161
:1004C00080688083EA89FB8980818F7D8083DF91CA
:1004D000CF911F91FF90EF90DF90CF90089580E033
:1004E00090E008951F920F920FB60F9211242F9350
:1004F0008F939F93EF93FF93E0911003F09111037B
:100500008081E0911603F091170382FD12C0908163
:10051000809119038F5F8F7320911A03821751F016
:10052000E0911903F0E0E050FD4F958F809319039F
:1005300001C08081FF91EF919F918F912F910F903A
:100540000FBE0F901F9018951F920F920FB60F922B
:1005500011242F933F934F935F936F937F938F93C8
:100560009F93AF93BF93EF93FF9380E093E00E943C
:100570007901FF91EF91BF91AF919F918F917F9101
:100580006F915F914F913F912F910F900FBE0F9000
:100590001F901895E0E0F3E01382128288EE93E05A
:1005A000A0E0B0E084839583A683B78385E491E0DF
:1005B0009183808385EC90E09587848784EC90E03C
:1005C0009787868780EC90E0918B808B81EC90E020
:1005D000938B828B82EC90E0958B848B86EC90E001
:1005E000978B868B118E128E138E148E0895CF9258
:1005F000DF92EF92FF920F931F93CF93DF936C01E3
:100600007A018B01C0E0D0E0CE15DF0581F0D80182
:100610006D918D01D601ED91FC910190F081E02D5D
:10062000C6010995892B11F02196EECF7E01C701F5
:10063000DF91CF911F910F91FF90EF90DF90CF90BE
:1006400008956115710579F0FB0101900020E9F72B
:100650003197AF01461B570BDC01ED91FC910280F5
:10066000F381E02D099480E090E008950C9421033B
:10067000DC01ED91FC910190F081E02D099463E59E
:1006800071E00C9421030F931F93CF93DF93EC0140
:100690000E9421038C01CE010E943F03800F911F15
:1006A000DF91CF911F910F9108958F929F92AF92FA
:1006B000BF92EF92FF920F931F93CF93DF93CDB72B
:1006C000DEB7A1970FB6F894DEBF0FBECDBF7C0199
:1006D000FA01CB0119A2223008F42AE08E010F5D45
:1006E0001F4F822E912CA12CB12CBF01A50194018A
:1006F0000E941A1AF901CA01015011096A3010F456
:10070000605D01C0695CD8016C93232B242B252BE1
:1007100061F7B801C7010E942103A1960FB6F894B2
:10072000DEBF0FBECDBFDF91CF911F910F91FF9024
:10073000EF90BF90AF909F908F9008952115310555
:1007400041F4DC01ED91FC910190F081E02D642FEA
:1007500009940C9455039A01462F50E060E070E034
:100760000C949E030F931F93CF93DF93EC010E9491
:10077000AB038C01CE010E943F03800F911FDF91DC
:10078000CF911F910F9108959A01AB0160E070E045
:100790000C949E03CF92DF92EF92FF920F931F93E0
:1007A000CF93DF932115310581F4DC01ED91FC91AC
:1007B0000190F081E02D642FDF91CF911F910F9177
:1007C000FF90EF90DF90CF9009942A30310501F52A
:1007D00077FF1DC06A017B01EC016DE20E943803C6
:1007E0008C0144275527BA014C195D096E097F0910
:1007F0002AE0CE010E945503800F911FDF91CF9117
:100800001F910F91FF90EF90DF90CF9008952AE015
:10081000DF91CF911F910F91FF90EF90DF90CF90DC
:100820000C9455039A01AB01770F660B770B0C9470
:10083000CA037F928F929F92AF92BF92CF92DF9224
:10084000EF92FF920F931F93CF93DF938C016A0176
:100850007B01722E9A01AB01C701B6010E94E1191A
:10086000882319F066E571E027C046015701E89436
:10087000B7F82FEF3FEF4FE75FE7C501B4010E94E4
:10088000E11981110DC02FEF3FEF4FE75FE7C50181
:10089000B4010E94171818161CF46AE571E00CC028
:1008A0002FEF3FEF4FE75FE4C701B6010E946F19DA
:1008B000181694F46EE571E0C801DF91CF911F9195
:1008C0000F91FF90EF90DF90CF90BF90AF909F90EF
:1008D0008F907F900C9421032FEF3FEF4FE75FEC59
:1008E000C701B6010E94171887FDE4CF20E030E071
:1008F000A901C701B6010E94171887FF0AC06DE25F
:10090000C8010E943803EC01F7FAF094F7F8F0946C
:1009100002C0C0E0D0E0B12C60E070E080E09FE376
:100920007B1441F020E030E040E251E40E941C18CA
:10093000B394F6CFA70196010E94AB176B017C011F
:100940000E948E184B015C012AE0AB01BC01C8017A
:100950000E945503C80FD91F7720B9F1C501B40112
:100960000E94BD189B01AC01C701B6010E94AA17E5
:100970006B017C016EE2C8010E943803C80FD91FC9
:1009800020E030E040E251E4C701B6010E94741952
:100990004B015C010E948E186B017C014AE050E023
:1009A000C8010E94C403C80FD91FB60180E090E0BF
:1009B0000E94BD189B01AC01C501B4010E94AA1799
:1009C0006B017C017A947110DBCFCE01DF91CF9166
:1009D0001F910F91FF90EF90DF90CF90BF90AF905D
:1009E0009F908F907F9008950C9419040F931F93FC
:1009F000CF93DF93EC010E9419048C01CE010E9479
:100A00003F03800F911FDF91CF911F910F910895A8
:100A10001F920F920FB60F9211242F933F938F9333
:100A20009F93AF93BF9380919E0390919F03A0915A
:100A3000A003B091A10330919D0323E0230F2D3734
:100A400020F40196A11DB11D05C026E8230F0296D2
:100A5000A11DB11D20939D0380939E0390939F033E
:100A6000A093A003B093A1038091A2039091A3034C
:100A7000A091A403B091A5030196A11DB11D80937F
:100A8000A2039093A303A093A403B093A503BF91E3
:100A9000AF919F918F913F912F910F900FBE0F902B
:100AA0001F9018952FB7F89460919E0370919F0343
:100AB0008091A0039091A1032FBF08953FB7F894B0
:100AC0008091A2039091A303A091A403B091A503E8
:100AD00026B5A89B05C02F3F19F00196A11DB11D99
:100AE0003FBFBA2FA92F982F8827820F911DA11DD4
:100AF000B11DBC01CD0142E0660F771F881F991F11
:100B00004A95D1F708958F929F92AF92BF92CF925C
:100B1000DF92EF92FF926B017C010E945E054B0118
:100B20005C01C114D104E104F10401F10E9431120D
:100B30000E945E05DC01CB0188199909AA09BB094D
:100B4000883E9340A105B10560F321E0C21AD108A7
:100B5000E108F10888EE880E83E0981EA11CB11C04
:100B6000C114D104E104F10419F7DBCFFF90EF9039
:100B7000DF90CF90BF90AF909F908F900895789422
:100B800084B5826084BD84B5816084BD85B5826092
:100B900085BD85B5816085BDEEE6F0E08081816030
:100BA0008083E1E8F0E01082808182608083808130
:100BB00081608083E0E8F0E0808181608083E1EB08
:100BC000F0E0808184608083E0EBF0E080818160F0
:100BD0008083EAE7F0E080818460808380818260A6
:100BE000808380818160808380818068808310928F
:100BF000C1000895833081F028F4813099F082306B
:100C0000A1F008958730A9F08830B9F08430D1F48C
:100C1000809180008F7D03C0809180008F778093CA
:100C20008000089584B58F7702C084B58F7D84BD20
:100C300008958091B0008F7703C08091B0008F7DC0
:100C40008093B0000895CF93DF9390E0FC01E458C7
:100C5000FF4F2491FC01E057FF4F8491882361F1FD
:100C600090E0880F991FFC01E255FF4FC591D49188
:100C7000FC01EC55FF4FA591B491611109C09FB7DC
:100C8000F8948881209582238883EC912E230BC0D1
:100C9000623061F49FB7F8948881322F30958323B6
:100CA0008883EC912E2B2C939FBF06C08FB7F894AE
:100CB000E8812E2B28838FBFDF91CF9108951F935A
:100CC000CF93DF93282F30E0F901E859FF4F84914B
:100CD000F901E458FF4FD491F901E057FF4FC49157
:100CE000CC23C1F0162F81110E94FA05EC2FF0E001
:100CF000EE0FFF1FEC55FF4FA591B4919FB7F894ED
:100D0000111104C08C91D095D82302C0EC91DE2B38
:100D1000DC939FBFDF91CF911F9108958F929F9297
:100D2000AF92BF92CF92DF92EF92FF920F931F93F9
:100D3000CF93DF93C090AD03D090AE03E090AF03AC
:100D4000F090B00380EDC81A89E8D80A8DE6E80A69
:100D500088E3F80AE1EDF7E0C4E6D0E000E911E04D
:100D60009F012150310981E8C81683E3D80681EE3E
:100D7000E80681E0F80610F1C90183709927892BF4
:100D8000A1F4C901BE010E94F219892B31F4C901F5
:100D9000B8010E94F219892B41F485E8D81A82EE35
:100DA000E80A81E0F80A3196DBCF80E8C81A83E3CD
:100DB000D80A81EEE80A81E0F80AF5CF3093AC0357
:100DC0002093AB03C4E6D1E0FE01E456F140A991C3
:100DD000B0E020E831E541E050E00E944B1A6C158C
:100DE0007D058E059F0528F4C61AD70AE80AF90A78
:100DF000EBCFEF5FE093AA03C701B60120E831E52E
:100E000041E050E00E941A1A4B015C012F5F2093D1
:100E1000A9032CE3C22ED12CE12CF12CA7019601C1
:100E20000E941A1A6093A603C501B40120E13EE0B6
:100E300040E050E00E941A1AC22FA70196010E94BA
:100E40001A1A2093A703C093A803DF91CF911F9193
:100E50000F91FF90EF90DF90CF90BF90AF909F9059
:100E60008F9008952F923F924F925F926F927F9250
:100E70008F929F92AF92BF92CF92DF92EF92FF92AA
:100E80000F931F93CF93DF93CDB7DEB72C970FB699
:100E9000F894DEBF0FBECDBFC090A7038091A6031C
:100EA0000CE3C09E60011124C80ED11C0D2C000C57
:100EB000EE08FF082091A80330E0A0E1BEE00E9408
:100EC0003C1AC60ED71EE81EF91E16012701612C1A
:100ED000712C4301E090AB03F090AC03FC82EB82F9
:100EE000C70183709927892B81F4C70164E670E0FC
:100EF0000E94061A892B59F4C70160E971E00E942B
:100F0000061A01E00983892B21F0198202C011E041
:100F10001983E0EDF7E084E6E82EF12C00E911E01A
:100F20002B813C81E217F3077CF5CF018370992771
:100F3000892BC1F4CF01B7010E94061A892B31F425
:100F4000CF01B8010E94061A892B61F49101A20118
:100F5000B301C4013B574D415E4F6F4F7F4F8F4FE1
:100F60009F4F0CC09101A201B301C40120583C4C19
:100F70004E415E4F6F4F7F4F8F4F9F4F19012A0198
:100F80003B014C013196CCCF3091AA033A83432FD9
:100F900050E0415051095C834B83E4E6F1E0CF011E
:100FA00084569140EB80FC808E159F05DCF4A19166
:100FB000B0E020E831E541E050E00E944B1A5B01CF
:100FC0006C019B01A60160E070E080E090E05101BF
:100FD0006201730184010E945E1A19012A013B011A
:100FE0004C01DDCFA091A903B0E0119720E831E5D5
:100FF00041E050E00E94561A7B018C019B01A80140
:1010000060E070E080E090E05101620173018401D2
:101010000E945E1A49015A010981002369F01A8170
:10102000133050F020583E4A4E4F5F4F6F4F7F4F66
:101030008F4F9F4F49015A0120E3821A26E7920AF7
:1010400022E9A20A27ECB20A8092AD039092AE0385
:10105000A092AF03B092B0032C960FB6F894DEBF07
:101060000FBECDBFDF91CF911F910F91FF90EF90F9
:10107000DF90CF90BF90AF909F908F907F906F90B8
:101080005F904F903F902F9008952AE0622F0E942A
:10109000E619392F0E94E61920E1929FC001112420
:1010A000832B0895982F92959F708F702AE0929FBE
:1010B000800D11240895CF93DF93D82FC62F68E6B3
:1010C00070E081EB93E00E94C20A6D2F81EB93E008
:1010D0000E94670A6C2F81EB93E00E94670A81EB04
:1010E00093E0DF91CF910C94410BCF93DF93C6EA4D
:1010F000D3E06F83788789879A870E948E068881DC
:101100000E944508682F80E00E945B0889810E9448
:101110004508682F81E00E945B088A810E9445088B
:10112000682F82E00E945B088B810E944508682F2F
:1011300084E00E945B088C810E944508682F85E04E
:101140000E945B088D81805D0E944508682F86E0C3
:10115000DF91CF910C945B08CF92DF92EF92FF92D8
:10116000F82E68E670E081EB93E00E94C20A6F2DD2
:1011700081EB93E00E94670A81EB93E00E94410BB0
:101180000E9452056B017C010E945205DC01CB01DB
:101190008C199D09AE09BF0984369105A105B105D9
:1011A00078F441E050E068E670E081EB93E00E9463
:1011B0003E0B813049F781EB93E00E94E00901C0CA
:1011C00080E0FF90EF90DF90CF900895CF938FE075
:1011D0000E94AC08C82F80FF04C060E08FE00E942E
:1011E0005B08C1FF04C060E08FE00E945B0880E004
:1011F0000E94AC080E9452088093A60381E00E94DE
:10120000AC080E9452088093A70382E00E94AC08B9
:101210000E9452088093A80384E00E94AC080E94B8
:1012200052088093A90385E00E94AC080E945208EE
:101230008093AA0386E00E94AC080E94520890E0C6
:101240008053984F9093AC038093AB030E94320776
:101250006091AD037091AE038091AF039091B003A4
:10126000CF910895EF92FF920F931F93CF93DF9347
:10127000623030F5C62FD0E0FE01EE59FE4FF0800F
:10128000082F10E08F2D0E94AC08B8010C2E02C070
:10129000759567950A94E2F77695762F6627779588
:1012A0006795682BEE24E394EF0C8F2D0E945B086A
:1012B0002196FE2CC430D10529F780E090E002C0D1
:1012C0008FEF9FEFDF91CF911F910F91FF90EF90E4
:1012D0000895EF92FF921F93CF93DF93EC01EA8181
:1012E000FB81309759F181810E944508682F87E082
:1012F0000E945B08EA81FB8182810E944508682F79
:1013000088E00E945B08EA81FB8183810E94450896
:10131000682F89E00E945B08EA81FB8184810E943A
:101320004508682F8AE00E945B08EA81FB8160E043
:1013300080810E9432097C0161E003C060E0E12C01
:10134000F12CEC81FD81309721F1162F1260828102
:101350000E944508682F8BE00E945B08EC81FD81AC
:1013600083810E944508682F8CE00E945B08EC8115
:10137000FD8184810E944508682F8DE00E945B08F2
:10138000EC81FD8161E080810E943209E82AF92A1E
:1013900003C0662319F011E0612F64608EE00E94A3
:1013A0005B08C701DF91CF911F91FF90EF900895E7
:1013B0008091E50390E02091E603821B9109089556
:1013C0009091E6038091E503981750F4E92FF0E03F
:1013D000E951FC4F208130E09F5F9093E60302C00B
:1013E0002FEF3FEFC9010895E091E6038091E503F7
:1013F000E81730F4F0E0E951FC4F808190E0089567
:101400008FEF9FEF08950895CF93DF93EC01E09164
:10141000BD03F091BE033097F1F09091E603809107
:10142000E5039817C0F090E0292F30E02617370722
:1014300054F4DE01A20FB31F4C91D901A951BC4F46
:101440004C939F5FF1CF1092E6036093E503CB01CD
:10145000DF91CF910994DF91CF910895E091BF037F
:10146000F091C003309729F01092C3031092C20389
:1014700009940895CF92DF92EF92FF920F931F93FA
:10148000CF93DF937C01CB018A012091C1032223FA
:1014900089F0EB016B01C40ED51ECC15DD0569F09A
:1014A0006991D701ED91FC910190F081E02DC70188
:1014B0000995F3CF642F0E941E14C801DF91CF91CC
:1014C0001F910F91FF90EF90DF90CF900895CF93F1
:1014D000DF931F92CDB7DEB769832091C10322232A
:1014E000D1F02091C203203240F021E030E0FC0135
:1014F0003383228380E090E015C08091C303E82FFE
:10150000F0E0EC53FC4F998190838F5F8093C3038D
:101510008093C20305C061E0CE0101960E941E14B3
:1015200081E090E00F90DF91CF910895FC0113824C
:10153000128288EE93E0A0E0B0E084839583A683D6
:10154000B78384E791E09183808308951092E60346
:101550001092E5031092C3031092C2030E94F3138A
:101560008EE29AE00E944B1484E09AE00C944614B8
:1015700081E08093C1036093E4031092C30310924F
:10158000C20308950C94B80A0F93062F21E04091EE
:10159000C20364EC73E08091E4030E94551510923D
:1015A000C3031092C2031092C1030F9108954F928A
:1015B0005F926F927F92AF92BF92CF92EF92FF9223
:1015C0000F931F93CF93DF935C01F62ED42F280146
:1015D0003901EE2021F10E94B80ACE2DC43008F066
:1015E000C3E0C150C0F028E0C29FC0011124A30194
:1015F000920104C056954795379527958A95D2F75D
:10160000CA01B901D501ED91FC910190F081E02D65
:10161000C5010995E6CF60E0C5010E94C40A4D2FBF
:10162000D13208F040E22C2D67EE73E08F2D0E943E
:101630006C141092E6038093E503DF91CF911F9124
:101640000F91FF90EF90CF90BF90AF907F906F90F1
:101650005F904F900895CF92EF920F931F93C22EF9
:10166000E12C00E010E098010E94D70A1F910F9131
:10167000EF90CF90089521E00C942B0B21E00C9477
:101680002B0B61E00C94C40A81EB93E00C94960A56
:101690008F929F92AF92BF92CF92DF92EF92FF9282
:1016A0000F931F93CF93DF93CDB7DEB76C970FB631
:1016B000F894DEBF0FBECDBF7C015B016AEE71E026
:1016C00080E093E00E9443038E010F5F1F4F88E18B
:1016D000F80111928A95E9F7F701E080F180C701DE
:1016E0000E946C1164E0C7010E94AC0F81FFFACF29
:1016F00046E0B801C7010E940F1068018501E12C86
:10170000F12C5E01FDE1AF0EB11C4601F6018191A5
:101710009191A191B1916F01898F9A8FAB8FBC8FFD
:1017200062E871E080E093E00E9436034AE050E016
:10173000B70180E093E00E94120464E872E080E068
:1017400093E00E943603F4014081518162817381EC
:1017500022E030E080E093E00E94F40464E872E06C
:1017600080E093E00E943603FE017996D801EA15E5
:10177000FB0519F081918D93FACFFFEFEF1AFF0A65
:101780000C5F1F4F86E0E816F10409F0BECF80E041
:1017900093E00E943F0388E16C960FB6F894DEBF99
:1017A0000FBECDBFDF91CF911F910F91FF90EF90B2
:1017B000DF90CF90BF90AF909F908F9008958F92C1
:1017C0009F92AF92BF92CF92DF92EF92FF920F93D0
:1017D0001F93CF93DF93CDB7DEB728970FB6F8945A
:1017E000DEBF0FBECDBF7C018B016EEC71E080E0EF
:1017F00093E00E944303F701E080F180C7010E945B
:10180000FE114B015C016D837E838F839887C70136
:101810000E9419126B017C0169837A838B839C83FC
:1018200067E871E080E093E00E94360322E030E058
:10183000B501A40180E093E00E94F4046EE871E039
:1018400080E093E00E94360322E030E0B701A60179
:1018500080E093E00E94F604DE011596B801CE0107
:101860000196AE01475F5F4FA417B50751F02D9168
:10187000FB012193BF01FC012191CF01FB012383D7
:10188000F3CF88E028960FB6F894DEBF0FBECDBF29
:10189000DF91CF911F910F91FF90EF90DF90CF904C
:1018A000BF90AF909F908F900895CF93DF93EC01FE
:1018B00067EF71E080E093E00E94430361EB73E027
:1018C00088E094E00E941111811115C064E971E073
:1018D00080E093E00E94360367EF71E080E093E0E0
:1018E0000E9436036DE971E080E093E00E944303BB
:1018F00082E090E006C088E094E09983888380E0ED
:1019000090E0DF91CF910895CF93DF93EC016CEDE0
:1019100071E080E093E00E94430360E487E094E09C
:101920000E94B71141E061E087E094E00E94A411B9
:1019300087E094E00E942E1280359041A9F064E97E
:1019400071E080E093E00E9436036CED71E080E08E
:1019500093E00E9436036DE971E080E093E00E941D
:10196000430384E090E006C087E094E09983888395
:1019700080E090E0DF91CF9108950F931F93CF9374
:10198000DF9361EC71E080E093E00E944303C6E0E6
:10199000D1E000E010E088819981009739F0EA8178
:1019A000FB810995082B192B2696F5CFC801DF91ED
:1019B000CF911F910F910895EF92FF920F931F9374
:1019C000CF93DF937C0164EB71E080E093E00E94B1
:1019D000430306E011E0C0E0D0E0D8018D919C9176
:1019E0001197009769F0B7016C0F7D1F1496ED9168
:1019F000FC9115970995C80FD11D0A5F1F4FEDCFB8
:101A0000CE01DF91CF911F910F91FF90EF9008953C
:101A1000E8E0F4E01182108289E4828387E094E0B8
:101A20000C94811188E094E00C94440F81E0809341
:101A3000230483B78E7F83BF81E00C94571264E048
:101A400072E080E093E00E94430380911B048111C7
:101A500007C080917A0080931A0481E080931B0470
:101A600010927A0083B7817F846083BF83B78160DF
:101A700083BF80E685BF80E485BFF89440E050E0F6
:101A800066E17DE081E00E943712789480E093E087
:101A90000E94E801889580911A0480937A00089545
:101AA000D82F192F69E572E080E093E00E9443038C
:101AB000D0FD0AC0D3FD0AC0D4FD0AC0D2FD0AC0C1
:101AC000D1FF0AC0C5E009C0C1E007C0C2E005C03F
:101AD000C3E003C0C4E001C0C0E06FE072E080E09A
:101AE00093E00E9436034AE050E06D2F712F80E0B2
:101AF00093E00E9412046EE172E080E093E00E94A5
:101B000036034AE050E06C2F80E093E00E94B2037D
:101B1000D0E000E010E00C171D07BCF461E082E0AB
:101B20000E945F0668EC70E080E090E00E94830510
:101B300060E082E00E945F0668EC70E080E090E088
:101B40000E9483050F5F1F4FE6CF60E971E080E0E0
:101B500090E00E948305DDCF65E472E080E093E0D1
:101B60000E94430361E082E00E942306F8941092F1
:101B70008000E1E8F0E080818F7E80838081886052
:101B8000808380818460808380818D7F8083808159
:101B900081608083109285001092840080ED93E034
:101BA0009093890080938800EFE6F0E08081826066
:101BB0008083789408956EE272E080E093E00E9462
:101BC0004303EFE6F0E080818D7F808360E082E078
:101BD0000E945F0681E090E09093250480932404A6
:101BE00008951F920F920FB60F9211242F933F93D7
:101BF0004F935F936F937F938F939F93AF93BF9315
:101C0000EF93FF938091240490912504892BC1F4D4
:101C10008091260490912704892B29F010922704A3
:101C20001092260406C081E090E0909327048093F0
:101C30002604609126047091270482E00E945F06CA
:101C4000FF91EF91BF91AF919F918F917F916F9194
:101C50005F914F913F912F910F900FBE0F901F906A
:101C60001895EF92FF920F931F93CF93DF938C0100
:101C70007B01C42F6EE872E080E093E00E94430392
:101C800066E672E080E093E00E943603B80180E0EF
:101C900093E00E94430363E772E080E093E00E94D8
:101CA00036034AE050E06C2F80E093E00E94B203DC
:101CB0008701D0E0C8018E199F098C179D0784F415
:101CC000F80161918F014AE050E080E093E00E94CA
:101CD000AB0363E872E080E093E00E943603EACF52
:101CE00080E093E0DF91CF911F910F91FF90EF90F3
:101CF0000C943F0366E872E080E093E00E944303A7
:101D000080E090E008950C947A0EFF920F931F9359
:101D1000CF93DF93CDB7DEB760970FB6F894DEBFF1
:101D20000FBECDBFF82E63EF72E080E093E00E941B
:101D300043038E010F5F1F4F86E0F80111928A95D1
:101D4000E9F78EE08C878EE18D878E879CE09F87F8
:101D50002FE02F8389879A87CE010C969C838B83F3
:101D600005979E838D8369E972E080E093E00E948D
:101D70003603EB81FC814AE050E0608180E093E033
:101D80000E94B20366EA72E080E093E00E943603AC
:101D9000EB81FC814AE050E0618180E093E00E94A9
:101DA000B20362EB72E080E093E00E943603EB81C5
:101DB000FC814AE050E0628180E093E00E94B2033F
:101DC0006EEB72E080E093E00E943603EB81FC81D1
:101DD0004AE050E0638180E093E00E94B2036CEC43
:101DE00072E080E093E00E943603ED81FE814AE0DC
:101DF00050E0608180E093E00E94B20369ED72E000
:101E000080E093E00E943603ED81FE814AE050E0DD
:101E1000628180E093E00E94B20365EE72E080E0B0
:101E200093E00E943603ED81FE814AE050E0638139
:101E300080E093E00E94B203C8010E9469098C010E
:101E400062E083E00E942306FF2031F062E679E041
:101E500081E492E60E947508C80160960FB6F89476
:101E6000DEBF0FBECDBFDF91CF911F910F91FF90CD
:101E7000089580E00C94850EFC0180818E7F08958A
:101E8000FC0180818F730895FC018081918100970E
:101E900011F00C9434120895EF920F931F93CF9387
:101EA000DF931F92CDB7DEB76983022F10E0E12CDC
:101EB0009A0141E050E0BE016F5F7F4FFC018081DD
:101EC00091810E94C1130F90DF91CF911F910F91CB
:101ED000EF900895CF93DF931F92CDB7DEB721E047
:101EE000AE014F5F5F4F0E944C0F89810F90DF91D1
:101EF000CF910895EF92FF920F931F93CF93DF93AB
:101F00001F92CDB7DEB7362FBA013983422F50E08A
:101F1000EE24E394F12C8E010F5F1F4F21E0FC01B2
:101F2000808191810E94F6120F90DF91CF911F91D5
:101F30000F91FF90EF900895CF93DF931F92CDB74D
:101F4000DEB7498321E0AE014F5F5F4F0E947A0FF9
:101F50000F90DF91CF910895FF920F931F93CF932E
:101F6000DF9300D0CDB7DEB78C01F62E60E0C8015C
:101F70000E946A0F8A838A8181FDF8CF4F2D61E02C
:101F8000C8010E949C0F60E0C8010E946A0F8A830A
:101F90008A8180FFF8CF62E0C8010E946A0F8983BE
:101FA00089810F900F90DF91CF911F910F91FF903A
:101FB0000895CF92DF92EF92FF920F931F93CF93EA
:101FC000DF93EC01162F0E94AC0F082F61E0610F28
:101FD000CE010E94AC0FC82ED12CE12CF12C760141
:101FE000DD24CC24F02A62E0610FCE010E94AC0F08
:101FF000082F63E0610FCE010E94AC0FA70196018C
:10200000282BDA01C901BC01CD01702BDF91CF91E2
:102010001F910F91FF90EF90DF90CF900895CF9296
:10202000DF92EF92FF920F931F93CF93DF938C0178
:102030007B01C0E0D0E0C42ED12CCC15DD050CF026
:102040004EC0C230D10561F184F42097F9F0C1305F
:10205000D10509F042C068E1C8010E94D90FF7011B
:10206000648375838683978338C0C430D10561F15A
:102070000CF1C530D10589F568E2C8010E94D90F7D
:10208000F701648B758B868B978B27C064E1C80141
:102090000E94D90FF70160837183828393831DC0EF
:1020A0006CE1C8010E94D90FF701608771878287B0
:1020B000938713C060E2C8010E94D90FF7016487BB
:1020C00075878687978709C064E2C8010E94D90F87
:1020D000F701608B718B828B938B2196AECFDF9152
:1020E000CF911F910F91FF90EF90DF90CF900895C7
:1020F000EF92FF920F931F93CF93DF931F92CDB771
:10210000DEB78C01F62EE42E60E0C8010E946A0F53
:102110008983898181FDF8CF4F2D406861E0C80136
:102120000E949C0F60E0C8010E946A0F8983898128
:1021300081FDF8CF4E2D61E0C8010E949C0F0F90E9
:10214000DF91CF911F910F91FF90EF900895CF9362
:10215000DF93EC018D81877F8D83CE0105960E94F0
:10216000400F482F67E0CE01DF91CF910C9478109B
:10217000CF93DF93EC016370862F8295807F6D8112
:102180006F7C682B6D83CE0105960E94400F482F0F
:1021900067E0CE01DF91CF910C947810CF93DF935D
:1021A000EC016370862F880F880F6B81637F682B2B
:1021B0006B83CE0103960E943C0F482F64E0CE0152
:1021C000DF91CF910C947810CF93DF93EC01637083
:1021D000862F8295807F6B816F7C682B6B83CE010D
:1021E00003960E943C0F482F64E0CE01DF91CF910F
:1021F0000C947810462FFC01648365E00C947810F1
:10220000CF93DF93EC018B8180648B83CE010396A7
:102210000E943C0F482F64E0CE01DF91CF910C94D7
:102220007810EF92FF920F931F93CF93DF93EC01FF
:102230007B0188819981009711F00E94341286E019
:1022400090E00E9432128C01A7016A810E94B712AD
:102250001983088361E0C8010E94DE12182F8111E2
:1022600002C010E031C08B8180688B83CE01039661
:102270000E943C0F482F64E0CE010E9478108B81B1
:102280008F778B8368EE73E080E090E00E94830597
:1022900060E0CE010E94AC0F803419F7CE010E949D
:1022A000001160E0CE010E94B810CE010E94A7107C
:1022B00062E3CE010E94FA1063E0CE010E94E410B6
:1022C00063E0CE010E94CE10812FDF91CF911F914C
:1022D0000F91FF90EF900895CF93DF93EC018B81E6
:1022E0008D7F8B83CE0103960E943C0F482F64E0C4
:1022F000CE010E94781063E0CE01DF91CF910C9463
:10230000CE100895CF93C62FFC01608181EB93E03E
:102310000E94B80A62E081EB93E00E94670A6C2F8A
:1023200081EB93E00E94670A60E081EB93E00E94FA
:10233000670A81EB93E00E94410B6AE070E080E065
:1023400090E0CF910C948305262F60E0413011F08E
:102350006B7F01C06460222329F0213029F46C7F57
:10236000616002C06C7F62600E9482110895CF9309
:10237000DF93EC01688381EB93E00E94A60A42E0C0
:1023800062E0CE01DF91CF910C94A411FF920F93E4
:102390001F93CF93DF938C01F62EFC01608181EBBC
:1023A00093E00E94B80A6F2D81EB93E00E94670AC8
:1023B00081EB93E00E94410B69E070E080E090E0E7
:1023C0000E94830542E0F801608181EB93E00E9466
:1023D0003B0B81EB93E00E94E009182F81EB93E027
:1023E0000E94E009D12FF0E0CF2F9E01282BC901D8
:1023F000DF91CF911F910F91FF90089560E00E94AF
:10240000C611BC0180E090E00E94BD1820E030E0E1
:1024100040E857E30E94741920E030E045E253E4BD
:102420000E94741920E030E040E252E40E94AA17B2
:10243000089561E00E94C611BC0180E090E00E9416
:10244000BD1820E030E040E857E30E94741920E016
:1024500030E048EC52E40E94741908956FEF0C9438
:10246000C61108950C946D1A0C94051B08958230C2
:10247000E8F4E82FF0E0EE0FFF1FE85EFE4F7183F7
:102480006083813041F0809169008C7F482B4093BC
:102490006900E89A089580916900837F440F551F71
:1024A000440F551F482B40936900E99A08958230E4
:1024B00078F4813011F0E89801C0E998E82FF0E055
:1024C000EE0FFF1FE85EFE4F86E392E1918380836B
:1024D00008951F920F920FB60F9211242F933F93DE
:1024E0004F935F936F937F938F939F93AF93BF931C
:1024F000EF93FF93E0911801F09119010995FF9175
:10250000EF91BF91AF919F918F917F916F915F916B
:102510004F913F912F910F900FBE0F901F901895E4
:102520001F920F920FB60F9211242F933F934F9348
:102530005F936F937F938F939F93AF93BF93EF932B
:10254000FF93E0911A01F0911B010995FF91EF9122
:10255000BF91AF919F918F917F916F915F914F91BB
:102560003F912F910F900FBE0F901F901895FC0177
:10257000608352834183138280E290E09583848359
:102580000895CF93DF93EC018B81811107C061E047
:10259000CE010E94DE12982F882361F06881898124
:1025A0009A810E94B80A89819A810E94410B91E028
:1025B000811190E0892FDF91CF9108951F93CF93E0
:1025C000DF93EC01162F89819A810E94A60A81E08F
:1025D0008B83112331F0CE01DF91CF911F910C94A9
:1025E000C11281E0DF91CF911F9108958F929F9248
:1025F000BF92CF92DF92EF92FF920F931F93CF93F0
:10260000DF93DA01AE0DBF1DEC01EC81FD81EA170D
:10261000FB07A0F1B22E6A014B01EC0168818981B0
:102620009A810E94B80AE114F10479F489819A81AF
:10263000DC01ED91FC910280F381E02DA601B40153
:102640000995C816D906D1F412C00115110571F308
:1026500089819A81DC01ED91FC910280F381E02D6A
:10266000A701B8010995E816F90641F4DFCF6B2DF3
:1026700089819A810E94C40A91E0811190E0892F9A
:10268000DF91CF911F910F91FF90EF90DF90CF904E
:10269000BF909F908F900895CF92DF92EF92FF921C
:1026A0000F931F93CF93DF937C016B018A01DC01B1
:1026B0006C9111968D919C9112970E942B0B90E03A
:1026C0000817190791F4E6010C0D1D1DC017D1075D
:1026D00071F0F70181819281DC01ED91FC9102841E
:1026E000F385E02D09958993F1CF80E001C081E069
:1026F000DF91CF911F910F91FF90EF90DF90CF90DE
:1027000008959F92AF92BF92CF92DF92EF92FF9285
:102710000F931F93CF93DF936C015B017A01922E8D
:10272000C0E0D0E0CE15DF05F8F4F6018481958194
:1027300087010C1B1D0B8017910708F48C01C70142
:10274000801B910BC817D90710F0292D01C020E07C
:10275000A801B5016C0F7D1FC6010E944C13882390
:1027600021F0C00FD11FDECF81E0DF91CF911F910B
:102770000F91FF90EF90DF90CF90BF90AF909F9020
:102780000895AF92BF92CF92DF92EF92FF920F9394
:102790001F93CF93DF93EC01690158012E2DE12C9B
:1027A000F12C00E010E00E94F612882381F021E075
:1027B000A501B601CE01DF91CF911F910F91FF903E
:1027C000EF90DF90CF90BF90AF900C94811380E09A
:1027D000DF91CF911F910F91FF90EF90DF90CF90FD
:1027E000BF90AF90089510929B0481E0809399046C
:1027F0001092980461E082E10E945F0661E083E14B
:102800000E945F06E9EBF0E080818E7F808380810B
:102810008D7F808388E48093B80085E48093BC003A
:102820000895ECEBF0E080818A7B808360E082E1B8
:102830000E945F0660E083E10C945F0640914A04C9
:10284000262F30E0240F311D21323105DCF4209198
:102850009B042430C9F4FC0180E090E0861758F412
:1028600030914A042191DC01A45BBB4FA30FB11D41
:102870002C930196F3CF80914A04680F60934A0429
:1028800080E0089581E0089582E0089590938F0498
:1028900080938E04089590939104809390040895FA
:1028A00085EC8093BC0010929B040895CF93DF9336
:1028B00091E090939304882361F0C091B800D09187
:1028C000BA000E9411140E94F313D093BA00C0936F
:1028D000B800DF91CF9108954F925F926F927F92EF
:1028E0008F929F92AF92BF92CF92DF92EF92FF9220
:1028F0000F931F93CF93DF93F82E162F072FC42F1C
:10290000E22E413208F0BEC00E945E054B015C0120
:10291000D0919B04DD2331F1809194049091950432
:10292000A0919604B0919704892B8A2B8B2B81F36D
:102930000E945E0540909404509095046090960427
:1029400070909704DC01CB0188199909AA09BB0989
:10295000481659066A067B06D8F6809192040E94B2
:10296000561490C081E080939B04E09299049FEFFD
:102970009093280410926D049C0F90936C048093A4
:102980009A0490919A048F2D880F892B80939A0432
:1029900080919804813089F5109298040E945E0518
:1029A0006B017C0180919A048093BB008091940418
:1029B00090919504A0919604B0919704892B8A2B4D
:1029C0008B2BA9F00E945E05809094049090950452
:1029D000A0909604B0909704DC01CB018C199D095E
:1029E000AE09BF0988169906AA06BB0690F1809128
:1029F000BC0083FDD7CF85EC01C085EE8093BC0081
:102A00000E945E056B017C0180919B04813031F551
:102A10008091940490919504A0919604B0919704AC
:102A2000892B8A2B8B2B81F30E945E058090940466
:102A300090909504A0909604B0909704DC01CB018F
:102A40008C199D09AE09BF0988169906AA06BB060E
:102A5000D8F6809192040E94561415C080916D049E
:102A60008C1710F4C0916D04AEE6B4E0912FE12F05
:102A7000F02F8E2F891B8C1718F48D918193F9CF2D
:102A8000DC2F01C0D0E08D2FDF91CF911F910F91EE
:102A9000FF90EF90DF90CF90BF90AF909F908F907E
:102AA0007F906F905F904F9008954F925F926F92DA
:102AB0007F928F929F92AF92BF92CF92DF92EF92CE
:102AC000FF920F931F93CF93DF93413208F0C6C05C
:102AD000122FF42ED72EE62ED82F0E945E054B0122
:102AE0005C01C0919B04CC2311F1809194049091DE
:102AF0009504A0919604B0919704892B8A2B8B2B77
:102B000081F30E945E05409094045090950460907B
:102B1000960470909704DC01CB0188199909AA09E1
:102B2000BB09481659066A067B06D8F683C082E0C0
:102B300080939B04009399048FEF80932804109254
:102B40006D04F0926C049E2DAEE6B4E0EE2DFD2DEA
:102B50008E2F891B8F1518F481918D93F9CF1092C8
:102B60009A0490919A04DD0FD92BD0939A04809106
:102B70009804813089F5109298040E945E056B01DB
:102B80007C0180919A048093BB0080919404909181
:102B90009504A0919604B0919704892B8A2B8B2BD6
:102BA000A9F00E945E058090940490909504A090F6
:102BB0009604B0909704DC01CB018C199D09AE09F5
:102BC000BF0988169906AA06BB06A0F18091BC0031
:102BD00083FDD7CF85EC01C085EE8093BC000E94B9
:102BE0005E056B017C01112359F180919B048230B9
:102BF00039F58091940490919504A0919604B09138
:102C00009704892B8A2B8B2B71F30E945E05809091
:102C1000940490909504A0909604B0909704DC01E1
:102C2000CB018C199D09AE09BF0988169906AA0621
:102C3000BB06C8F6809192040E945614C5E013C0EA
:102C4000809128048F3F79F080912804803241F0F0
:102C500080912804803331F0C4E005C0C1E003C096
:102C6000C2E001C0C3E08C2FDF91CF911F910F9183
:102C7000FF90EF90DF90CF90BF90AF909F908F909C
:102C80007F906F905F904F90089585ED8093BC008A
:102C90008091940490919504A0919604B09197042A
:102CA0000796A11DB11D23E0B695A7959795879529
:102CB0002A95D1F72091BC0024FF1CC040919404B8
:102CC000509195046091960470919704452B462B82
:102CD000472B81F30097A105B10541F025E32A9523
:102CE000F1F700000197A109B109E4CF80919204A6
:102CF0000C94561410929B0408951F920F920FB6D5
:102D00000F9211242F933F934F935F936F937F9371
:102D10008F939F93AF93BF93EF93FF938091B900ED
:102D2000887F803609F49EC078F5883209F45DC04A
:102D300090F4803109F456C038F4882309F4F5C0C2
:102D4000883009F44FC0F5C0883109F44EC0803294
:102D500009F45FC0EEC0803409F46AC058F48033CF
:102D600009F457C0883309F0E4C0809328040E9416
:102D70005014DFC0803509F44FC0883509F45DC0B8
:102D8000883409F0D6C0D3C0883909F4C4C0A8F487
:102D9000883709F467C038F4883609F463C080378F
:102DA00009F460C0C6C0883809F4B5C0803909F498
:102DB0005FC0803809F0BDC05BC0803B09F483C0B0
:102DC00038F4803A09F466C0883A09F47CC0B1C08E
:102DD000803C09F4A4C0883C09F4A1C0883B09F4F4
:102DE00087C0A7C080919A0410C090916D04809113
:102DF0006C04981770F5E0916D0481E08E0F80935C
:102E00006D04F0E0E259FB4F80818093BB0085ECBC
:102E100083C0809328048BC0E0916D0481E08E0F05
:102E200080936D048091BB00F0E0E259FB4F8083FA
:102E300090916D0480916C046BC0E0916D0481E011
:102E40008E0F80936D048091BB00F0E0E259FB4F40
:102E500080838091990481116AC081E080939804F5
:102E600084EA5EC083E080939B0410922904CFCF54
:102E700080912904803208F04EC0E091290481E05D
:102E80008E0F809329048091BB00F0E0E65DFB4F3C
:102E90008083BDCF0E94501480912904803230F489
:102EA000E0912904F0E0E65DFB4F10826091290477
:102EB00070E0E0918E04F0918F048AE294E009952D
:102EC0001092290436C084E080939B0410924B0436
:102ED00010924A04E0919004F09191040995809138
:102EE0004A04811105C081E080934A0410924C0489
:102EF000E0914B0481E08E0F80934B04F0E0E45BA3
:102F0000FB4F80818093BB0090914B0480914A04D9
:102F1000981708F47CCF85E88093BC000AC085EC44
:102F20008093BC0010929B0404C0109228040E945D
:102F30004516FF91EF91BF91AF919F918F917F9136
:102F40006F915F914F913F912F910F900FBE0F9016
:102F50001F9018955058BB27AA270E94C2170C949F
:102F600035190E94271938F00E942E1920F039F4E3
:102F70009F3F19F426F40C9424190EF4E095E7FB16
:102F80000C941E19E92F0E94461958F3BA176207CC
:102F900073078407950720F079F4A6F50C94681957
:102FA0000EF4E0950B2EBA2FA02D0B01B901900164
:102FB0000C01CA01A0011124FF27591B99F0593FA8
:102FC00050F4503E68F11A16F040A22F232F342FF0
:102FD0004427585FF3CF469537952795A795F0403E
:102FE0005395C9F77EF41F16BA0B620B730B840B53
:102FF000BAF09150A1F0FF0FBB1F661F771F881F0B
:10300000C2F70EC0BA0F621F731F841F48F4879562
:1030100077956795B795F7959E3F08F0B0CF939554
:10302000880F08F09927EE0F9795879508950E94CD
:10303000FA1808F481E008950E9430180C943519AC
:103040000E942E1958F00E94271940F029F45F3F82
:1030500029F00C941E1951110C9469190C9424191F
:103060000E94461968F39923B1F3552391F3951BF8
:10307000550BBB27AA2762177307840738F09F5F99
:103080005F4F220F331F441FAA1FA9F335D00E2E06
:103090003AF0E0E832D091505040E695001CCAF773
:1030A0002BD0FE2F29D0660F771F881FBB1F261736
:1030B00037074807AB07B0E809F0BB0B802DBF010D
:1030C000FF2793585F4F3AF09E3F510578F00C94DC
:1030D0001E190C9469195F3FE4F3983ED4F386956A
:1030E00077956795B795F7959F5FC9F7880F911DFD
:1030F0009695879597F90895E1E0660F771F881FE9
:10310000BB1F621773078407BA0720F0621B730B9B
:10311000840BBA0BEE1F88F7E09508950E944E19B4
:1031200088F09F5798F0B92F9927B751B0F0E1F088
:10313000660F771F881F991F1AF0BA95C9F714C038
:10314000B13091F00E946819B1E008950C946819AB
:10315000672F782F8827B85F39F0B93FCCF3869571
:1031600077956795B395D9F73EF4909580957095CE
:1031700061957F4F8F4F9F4F0895E89409C097FB4B
:103180003EF490958095709561957F4F8F4F9F4F3E
:103190009923A9F0F92F96E9BB279395F695879582
:1031A00077956795B795F111F8CFFAF4BB0F11F445
:1031B00060FF1BC06F5F7F4F8F4F9F4F16C08823EC
:1031C00011F096E911C0772321F09EE8872F762F22
:1031D00005C0662371F096E8862F70E060E02AF063
:1031E0009A95660F771F881FDAF7880F969587954F
:1031F00097F90895990F0008550FAA0BE0E8FEEF24
:1032000016161706E807F907C0F012161306E407AA
:10321000F50798F0621B730B840B950B39F40A26A3
:1032200061F0232B242B252B21F408950A2609F481
:10323000A140A6958FEF811D811D089597F99F6785
:1032400080E870E060E008959FEF80EC089500242E
:103250000A941616170618060906089500240A94FB
:1032600012161306140605060895092E0394000C81
:1032700011F4882352F0BB0F40F4BF2B11F460FF10
:1032800004C06F5F7F4F8F4F9F4F089557FD905839
:10329000440F551F59F05F3F71F04795880F97FB1A
:1032A000991F61F09F3F79F08795089512161306D4
:1032B0001406551FF2CF4695F1DF08C01616170603
:1032C0001806991FF1CF8695710561050894089538
:1032D000E894BB2766277727CB0197F908950E94CA
:1032E000FA1808F48FEF08950E9487190C94351985
:1032F0000E94271938F00E942E1920F0952311F012
:103300000C941E190C94241911240C9469190E9410
:10331000461970F3959FC1F3950F50E0551F629FBA
:10332000F001729FBB27F00DB11D639FAA27F00D1E
:10333000B11DAA1F649F6627B00DA11D661F829F45
:103340002227B00DA11D621F739FB00DA11D621F2A
:10335000839FA00D611D221F749F3327A00D611D47
:10336000231F849F600D211D822F762F6A2F112429
:103370009F5750409AF0F1F088234AF0EE0FFF1F5C
:10338000BB1F661F771F881F91505040A9F79E3FB3
:10339000510580F00C941E190C9469195F3FE4F3F9
:1033A000983ED4F3869577956795B795F795E79509
:1033B0009F5FC1F7FE2B880F911D9695879597F912
:1033C00008950E94FA18880B990B0895991B79E0CB
:1033D00004C0991F961708F0961B881F7A95C9F7A5
:1033E00080950895AA1BBB1B51E107C0AA1FBB1FF4
:1033F000A617B70710F0A61BB70B881F991F5A9581
:10340000A9F780959095BC01CD01089597FB072EF3
:1034100016F4009407D077FD09D00E94F21907FC3A
:1034200005D03EF4909581959F4F089570956195D4
:103430007F4F0895A1E21A2EAA1BBB1BFD010DC0F0
:10344000AA1FBB1FEE1FFF1FA217B307E407F50754
:1034500020F0A21BB30BE40BF50B661F771F881F30
:10346000991F1A9469F760957095809590959B01C6
:10347000AC01BD01CF010895A29FB001B39FC0016F
:10348000A39F700D811D1124911DB29F700D811D90
:103490001124911D08950E943C1AA59F900DB49F80
:1034A000900DA49F800D911D11240895B7FF0C94D9
:1034B0004B1A0E944B1A821B930B08952A0D3B1D39
:1034C0004C1D5D1D6E1D7F1D801F911F0895EE0F09
:1034D000FF1F0590F491E02D09940F931F93CF9354
:1034E000DF938230910510F482E090E0E0919E0439
:1034F000F0919F0420E030E0A0E0B0E0309719F1B7
:10350000408151810281138148175907C8F08417FF
:10351000950769F4109731F012960C931297139651
:103520001C9327C000939E0410939F0422C0211572
:10353000310519F04217530718F49A01BD01EF0144
:10354000DF01F801DBCF21153105F9F0281B390B1C
:103550002430310580F48A819B816115710521F049
:10356000FB019383828304C090939F0480939E0405
:10357000FE01329644C0FE01E20FF31F8193919346
:1035800022503109398328833AC020919C0430911C
:103590009D04232B41F420910201309103013093CB
:1035A0009D0420939C04209100013091010121157C
:1035B000310541F42DB73EB740910401509105010A
:1035C000241B350BE0919C04F0919D04E217F30756
:1035D000A0F42E1B3F0B2817390778F0AC014E5F83
:1035E0005F4F2417350748F04E0F5F1F50939D041F
:1035F00040939C048193919302C0E0E0F0E0CF01FE
:10360000DF91CF911F910F910895CF93DF93009792
:1036100009F481C0FC01329713821282A0919E04AA
:10362000B0919F04109781F420813181820F931F04
:1036300020919C0430919D042817390751F5F0938F
:103640009D04E0939C0467C0ED0120E030E0CE17BC
:10365000DF0740F44A815B819E0141155105F1F07D
:10366000EA01F5CFD383C28340815181840F951F36
:10367000C817D90759F488819981840F951F02963C
:10368000918380838A819B81938382832115310575
:1036900029F4F0939F04E0939E043DC0E901FB836D
:1036A000EA8349915991C40FD51FEC17FD0761F4C6
:1036B00080819181840F951F0296E9019983888307
:1036C000828193819B838A83E0E0F0E012968D9162
:1036D0009C911397009719F0FD01DC01F7CF8D91B4
:1036E0009C9111979D012E5F3F4F820F931F209158
:1036F0009C0430919D042817390769F4309729F408
:1037000010929F0410929E0402C013821282B09302
:103710009D04A0939C04DF91CF91089510E0CFE524
:10372000D0E004C0FE010E94671A2196C036D1077E
:06373000C9F7F894FFCF79
:103736000000A00420001404550C480B0E04840C51
:10374600DF0B00000000000036123612646174615F
:103756006C6F672E62696E00636865636B73756D67
:1037660000696E69745F7365747570006D61696E6A
:1037760000000000009B01F7026A01E8013C0156C7
:103786000148010D0A006E616E00696E66006F7673
:103796006600070B1F1C1F1E1F1E1F1F1E1F1E1F3E
:1037A60000000000670A3A0A6F02030AD809E00916
:1037B600F40943483A200054656D703A20000952D6
:1037C600483A20004552524F52203A2000203A20D3
:1037D60053656E736F7220756E72656163686162A0
:1037E6006C652E00657865635F6D6F64756C6573D7
:1037F60000696E69745F6D6F64756C6573005F68F0
:103806006463313038305F72656164005F68646399
:10381600313038305F696E6974005F6173373236F4
:10382600325F72656164005F6173373236325F6999
:103836006E697400676F746F5F736C6565700045C1
:1038460072726F722076616C7565203A20000942AB
:103856006C696E6B20636F756E74203A200073740A
:10386600617475735F626C696E6B65725F646973B0
:1038760061626C65007374617475735F626C696E06
:103886006B65725F696E6974007369676E616C5F00
:103896006572726F720046696C65206E616D652097
:1038A6003A20004672616D65206C656E676874200B
:1038B6003A20002C090073645F696E6974007361B5
:1038C60076655F6672616D6500616C6D31206D6154
:1038D600736B203A2000616C6D3120736563203A6A
:1038E6002000616C6D31206D696E203A2000616C9C
:1038F6006D3120686F757273203A2000616C6D32ED
:10390600206D61736B203A2000616C6D32206D6909
:103916006E203A2000616C6D3220686F75727320DC
:103926003A20006473333233315F696E6974000084
:00000001FF
