S00C00006D61696E2E7372656373
S11300000C9460000C948A120C94B1120C94880025
S11300100C9488000C9488000C9488000C9488003C
S11300200C9488000C9488000C9488000C94B00EF6
S11300300C9488000C9488000C9488000C9488001C
S11300400C9450080C9488000C94BA050C94EC059C
S11300500C9488000C9488000C9488000C948800FC
S11300600C944F170C948800000000080002010053
S1130070000304070000000000000000010204085F
S113008010204080010204081020010204081020FE
S1130090040404040404040402020202020203032A
S11300A00303030300000000250028002B000000C8
S11300B00000240027002A001206AE0A620D7C0DFF
S11300C011241FBECFEFD8E0DEBFCDBF12E0A0E009
S11300D0B1E0EAEDF8E302C005900D92A83FB10744
S11300E0D9F724E0A8EFB2E001C01D92AC3BB207FF
S11300F0E1F710E0CFE5D0E004C02197FE010E94B3
S1130100391BCC35D107C9F70E94D5000C94601C6B
S11301100C940000CF93DF9326E040E855E260E0C2
S113012070E083E093E00E9452056EE371E083E0A7
S113013093E00E948B060E946B0E89EA93E00E9472
S1130140100A0E94D20DEC010E94040BC82BD92B7B
S11301500E94170DC82BD92B64EF71E080E090E06A
S11301600E94CB080E949A0ECE01DF91CF91089590
S11301700F931F93CF93DF938C01EB0165E371E041
S113018083E093E00E948B06F801C00FD11F80E04A
S113019090E0EC17FD0721F02191820F911DF9CF1A
S11301A0DF91CF911F910F910895CF93DF93CDB736
S11301B0DEB7E2970FB6F894DEBF0FBECDBF0E9444
S11301C007090E948A00009711F00E940F0E8E0109
S11301D00F5F1F4F8AE2F80111928A95E9F76E01C9
S11301E0FBE2CF0ED11C69E471E083E093E00E944E
S11301F08B0680913F048823D1F110923F0460ED77
S113020077E080E090E00E94CB080E9492039B017B
S1130210AC012BA73CA74DA75EA71FA618AA19AA35
S11302201AAAFE01F396D80182918D93EC15FD056F
S1130230D9F7CE0109960E94360DB82E88E08B0DB1
S1130240E82EF12CB701C8010E94B800F801EE0DA8
S1130250FF1D908399E09B0DF801E90FF11D808348
S11302604AE04B0DB80189E291E00E94B20A0E9473
S1130270DE0DB9CF8F929F92AF92BF92CF92DF9251
S1130280EF92FF920F931F93CF93DF93C090FF02DF
S1130290D0900003E0900103F090020380EDC81AAF
S11302A089E8D80A8DE6E80A88E3F80AE1EDF7E080
S11302B0C4E6D0E000E911E09F012150310981E852
S11302C0C81683E3D80681EEE80681E0F80610F14B
S11302D0C90183709927892BA1F4C901BE010E9429
S11302E0C41A892B31F4C901B8010E94C41A892B9C
S11302F041F485E8D81A82EEE80A81E0F80A3196DA
S1130300DBCF80E8C81A83E3D80A81EEE80A81E0EB
S1130310F80AF5CF3093FE022093FD02C0E5D1E048
S1130320FE01E055F140A991B0E020E831E541E05B
S113033050E00E941D1B6C157D058E059F0528F459
S1130340C61AD70AE80AF90AEBCFEF5FE093FC027A
S1130350C701B60120E831E541E050E00E94EC1A03
S11303604B015C012F5F2093FB022CE3C22ED12CA6
S1130370E12CF12CA70196010E94EC1A6093F8027B
S1130380C501B40120E13EE040E050E00E94EC1AD7
S1130390C22FA70196010E94EC1A2093F902C09380
S11303A0FA02DF91CF911F910F91FF90EF90DF90B0
S11303B0CF90BF90AF909F908F9008952F923F92CF
S11303C04F925F926F927F928F929F92AF92BF9261
S11303D0CF92DF92EF92FF920F931F93CF93DF930D
S11303E0CDB7DEB72C970FB6F894DEBF0FBECDBFE6
S11303F0C090F9028091F8020CE3C09E60011124C0
S1130400C80ED11C0D2C000CEE08FF082091FA0236
S113041030E0A0E1BEE00E940E1BC60ED71EE81E0F
S1130420F91E16012701612C712C4301E090FD0295
S1130430F090FE02FC82EB82C70183709927892B1E
S113044081F4C70164E670E00E94D81A892B59F43C
S1130450C70160E971E00E94D81A01E00983892B81
S113046021F0198202C011E01983E0EDF7E084E67F
S1130470E82EF12C00E911E02B813C81E217F3070F
S11304807CF5CF0183709927892BC1F4CF01B70183
S11304900E94D81A892B31F4CF01B8010E94D81ACE
S11304A0892B61F49101A201B301C4013B574D4171
S11304B05E4F6F4F7F4F8F4F9F4F0CC09101A20132
S11304C0B301C40120583C4C4E415E4F6F4F7F4FE7
S11304D08F4F9F4F19012A013B014C013196CCCF1C
S11304E03091FC023A83432F50E0415051095C8320
S11304F04B83E0E5F1E0CF0180559140EB80FC8037
S11305008E159F05DCF4A191B0E020E831E541E0CF
S113051050E00E941D1B5B016C019B01A60160E081
S113052070E080E090E051016201730184010E9457
S1130530301B19012A013B014C01DDCFA091FB02C4
S1130540B0E0119720E831E541E050E00E94281B1B
S11305507B018C019B01A80160E070E080E090E0E9
S113056051016201730184010E94301B49015A0147
S11305700981002369F01A81133050F020583E4A53
S11305804E4F5F4F6F4F7F4F8F4F9F4F49015A011F
S113059020E3821A26E7920A22E9A20A27ECB20A89
S11305A08092FF0290920003A0920103B092020392
S11305B02C960FB6F894DEBF0FBECDBFDF91CF915E
S11305C01F910F91FF90EF90DF90CF90BF90AF906D
S11305D09F908F907F906F905F904F903F902F905F
S11305E008952AE0622F0E94B81A392F0E94B81A7F
S11305F020E1929FC0011124832B0895982F929596
S11306009F708F702AE0929F800D11240895CF93DC
S1130610DF93D82FC62F68E670E089EA93E00E9442
S11306202C0A6D2F89EA93E00E94D1096C2F89EA84
S113063093E00E94D10989EA93E0DF91CF910C9471
S1130640AB0ACF93DF93C8EFD2E06F8378878987B3
S11306509A870E943A0188810E94F102682F80E003
S11306600E94070389810E94F102682F81E00E94A1
S113067007038A810E94F102682F82E00E94070327
S11306808B810E94F102682F84E00E9407038C8111
S11306900E94F102682F85E00E9407038D81805D2E
S11306A00E94F102682F86E0DF91CF910C9407033A
S11306B0CF92DF92EF92FF92F82E68E670E089EA1B
S11306C093E00E942C0A6F2D89EA93E00E94D109DD
S11306D089EA93E00E94AB0A0E949A086B017C01AC
S11306E00E949A08DC01CB018C199D09AE09BF094F
S11306F084369105A105B10578F441E050E068E63F
S113070070E089EA93E00E94A80A813049F789EAF7
S113071093E00E944A0901C080E0FF90EF90DF90CF
S1130720CF900895CF938FE00E945803C82F80FF85
S113073004C060E08FE00E940703C1FF04C060E0D2
S11307408FE00E94070380E00E9458030E94FE028B
S11307508093F80281E00E9458030E94FE02809375
S1130760F90282E00E9458030E94FE028093FA027A
S113077084E00E9458030E94FE028093FB0285E0FD
S11307800E9458030E94FE028093FC0286E00E94AD
S113079058030E94FE0290E08053984F9093FE020B
S11307A08093FD020E94DE016091FF0270910003BC
S11307B08091010390910203CF910895EF92FF92EB
S11307C00F931F93CF93DF93623030F5C62FD0E0A1
S11307D0FE01E25BFE4FF080082F10E08F2D0E9497
S11307E05803B8010C2E02C0759567950A94E2F778
S11307F07695762F662777956795682BEE24E39494
S1130800EF0C8F2D0E9407032196FE2CC430D105D6
S113081029F780E090E002C08FEF9FEFDF91CF9146
S11308201F910F91FF90EF900895EF92FF921F9305
S1130830CF93DF93EC01EA81FB81309759F18181F9
S11308400E94F102682F87E00E940703EA81FB817E
S113085082810E94F102682F88E00E940703EA81E6
S1130860FB8183810E94F102682F89E00E940703C3
S1130870EA81FB8184810E94F102682F8AE00E9450
S11308800703EA81FB8160E080810E94DE037C0132
S113089061E003C060E0E12CF12CEC81FD81309734
S11308A021F1162F126082810E94F102682F8BE0E1
S11308B00E940703EC81FD8183810E94F102682F6D
S11308C08CE00E940703EC81FD8184810E94F10287
S11308D0682F8DE00E940703EC81FD8161E0808137
S11308E00E94DE03E82AF92A03C0662319F011E006
S11308F0612F64608EE00E940703C701DF91CF91EE
S11309001F91FF90EF900895FC01918D228D892F06
S113091090E0805C9F4F821B91098F739927089503
S1130920FC01918D828D981731F0828DE80FF11DB5
S1130930858D90E008958FEF9FEF0895FC01918DD0
S1130940828D981761F0828DDF01A80FB11D5D962D
S11309508C91928D9F5F9F73928F90E008958FEF9B
S11309609FEF0895FC01538D448D252F30E0842F93
S113097090E0821B930B541710F0CF9608950197C3
S11309800895FC01848DDF01A80FB11DA35ABF4F48
S11309902C91848D90E001968F739927848FA6897A
S11309A0B7892C93A089B1898C91837080648C93CE
S11309B0938D848D981306C00288F389E02D80817D
S11309C08F7D80830895EF92FF920F931F93CF93AF
S11309D0DF93EC0181E0888F9B8D8C8D981305C08B
S11309E0E889F989808185FD26C0F62E0B8D10E0FB
S11309F00F5F1F4F0F731127E02E8C8DE8120CC070
S1130A000FB607FCFACFE889F989808185FFF5CF15
S1130A10CE010E94C104F1CF8B8DFE01E80FF11DC0
S1130A20E35AFF4FF0829FB7F8940B8FEA89FB8952
S1130A30808180620AC09FB7F894EE89FF89608341
S1130A40E889F98980818370806480839FBF81E015
S1130A5090E0DF91CF911F910F91FF90EF90089557
S1130A60CF93DF93EC01888D8823C9F0EA89FB8951
S1130A70808185FD05C0A889B9898C9186FD0FC048
S1130A800FB607FCF5CF808185FFF2CFA889B9891D
S1130A908C9185FFEDCFCE010E94C104E7CFDF9199
S1130AA0CF910895CF92DF92EF92FF921F93CF934D
S1130AB0DF93EC016A017B01122FE889F98982E056
S1130AC080834115514E61057105B1F060E079E014
S1130AD08DE390E0A70196010E94EC1ADA01C901A6
S1130AE00197A109B109B695A795979587959C019A
S1130AF0211580E13807A8F0E889F989108260E8B7
S1130B0074E88EE190E0A70196010E94EC1ADA01E4
S1130B10C9010197A109B109B695A795979587953C
S1130B209C01EC85FD853083EE85FF852083188E3E
S1130B30EC89FD891083EA89FB8980818061808347
S1130B40EA89FB89808188608083EA89FB898081C6
S1130B5080688083EA89FB8980818F7D8083DF912F
S1130B60CF911F91FF90EF90DF90CF90089580E098
S1130B7090E008951F920F920FB60F9211242F93B5
S1130B808F939F93EF93FF93E0911303F0911403DA
S1130B908081E0911903F0911A0382FD12C09081C3
S1130BA080911C038F5F8F7320911D03821751F076
S1130BB0E0911C03F0E0ED5FFC4F958F80931C03E4
S1130BC001C08081FF91EF919F918F912F910F90A0
S1130BD00FBE0F901F9018951F920F920FB60F9291
S1130BE011242F933F934F935F936F937F938F932E
S1130BF09F93AF93BF93EF93FF9383E093E00E949F
S1130C00C104FF91EF91BF91AF919F918F917F911B
S1130C106F915F914F913F912F910F900FBE0F9065
S1130C201F901895E3E0F3E01382128288EE93E0BC
S1130C30A0E0B0E084839583A683B78380E691E047
S1130C409183808385EC90E09587848784EC90E0A1
S1130C509787868780EC90E0918B808B81EC90E085
S1130C60938B828B82EC90E0958B848B86EC90E066
S1130C70978B868B118E128E138E148E0895CF92BD
S1130C80DF92EF92FF920F931F93CF93DF936C0148
S1130C907A018B01C0E0D0E0CE15DF0581F0D801E8
S1130CA06D918D01D601ED91FC910190F081E02DC3
S1130CB0C6010995892B11F02196EECF7E01C7015B
S1130CC0DF91CF911F910F91FF90EF90DF90CF9024
S1130CD008956115710579F0FB0101900020E9F791
S1130CE03197AF01461B570BDC01ED91FC9102805B
S1130CF0F381E02D099480E090E008950C94690656
S1130D00DC01ED91FC910190F081E02D09946EE6F7
S1130D1071E00C9469060F931F93CF93DF93EC015A
S1130D200E9469068C01CE010E948706800F911FE4
S1130D30DF91CF911F910F9108958F929F92AF925F
S1130D40BF92EF92FF920F931F93CF93DF93CDB790
S1130D50DEB7A1970FB6F894DEBF0FBECDBF7C01FE
S1130D60FA01CB0119A2223008F42AE08E010F5DAA
S1130D701F4F822E912CA12CB12CBF01A5019401EF
S1130D800E94EC1AF901CA01015011096A3010F4E9
S1130D90605D01C0695CD8016C93232B242B252B47
S1130DA061F7B801C7010E946906A1960FB6F894CD
S1130DB0DEBF0FBECDBFDF91CF911F910F91FF908A
S1130DC0EF90BF90AF909F908F90089521153105BB
S1130DD041F4DC01ED91FC910190F081E02D642F50
S1130DE009940C949D069A01462F50E060E070E04F
S1130DF00C94E6060F931F93CF93DF93EC010E94AC
S1130E00F3068C01CE010E948706800F911FDF91AB
S1130E10CF911F910F9108959A01AB0160E070E0AA
S1130E200C94E606CF92DF92EF92FF920F931F93FA
S1130E30CF93DF932115310581F4DC01ED91FC9111
S1130E400190F081E02D642FDF91CF911F910F91DC
S1130E50FF90EF90DF90CF9009942A30310501F58F
S1130E6077FF1DC06A017B01EC016DE20E948006E0
S1130E708C0144275527BA014C195D096E097F0975
S1130E802AE0CE010E949D06800F911FDF91CF9131
S1130E901F910F91FF90EF90DF90CF9008952AE07B
S1130EA0DF91CF911F910F91FF90EF90DF90CF9042
S1130EB00C949D069A01AB01770F660B770B0C948B
S1130EC012077F928F929F92AF92BF92CF92DF923E
S1130ED0EF92FF920F931F93CF93DF938C016A01DC
S1130EE07B01722E9A01AB01C701B6010E94B31AAD
S1130EF0882319F061E771E027C046015701E8949F
S1130F00B7F82FEF3FEF4FE75FE7C501B4010E9449
S1130F10B31A81110DC02FEF3FEF4FE75FE7C50113
S1130F20B4010E94E91818161CF465E771E00CC0BE
S1130F302FEF3FEF4FE75FE4C701B6010E94411A6C
S1130F40181694F469E771E0C801DF91CF911F91FD
S1130F500F91FF90EF90DF90CF90BF90AF909F9054
S1130F608F907F900C9469062FEF3FEF4FE75FEC73
S1130F70C701B6010E94E91887FDE4CF20E030E004
S1130F80A901C701B6010E94E91887FF0AC06DE2F2
S1130F90C8010E948006EC01F7FAF094F7F8F09487
S1130FA002C0C0E0D0E0B12C60E070E080E09FE3DC
S1130FB07B1441F020E030E040E251E40E94EE185E
S1130FC0B394F6CFA70196010E947D186B017C01B2
S1130FD00E9460194B015C012AE0AB01BC01C8010D
S1130FE00E949D06C80FD91F7720B9F1C501B4012D
S1130FF00E948F199B01AC01C701B6010E947C18A5
S11310006B017C016EE2C8010E948006C80FD91FE3
S113101020E030E040E251E4C701B6010E94461AE4
S11310204B015C010E9460196B017C014AE050E0B5
S1131030C8010E940C07C80FD91FB60180E090E0D8
S11310400E948F199B01AC01C501B4010E947C1858
S11310506B017C017A947110DBCFCE01DF91CF91CB
S11310601F910F91FF90EF90DF90CF90BF90AF90C2
S11310709F908F907F9008950C9461070F931F9316
S1131080CF93DF93EC010E9461078C01CE010E9493
S11310908706800F911FDF91CF911F910F910895C3
S11310A01F920F920FB60F9211242F933F938F9399
S11310B09F93AF93BF938091A1039091A203A091BA
S11310C0A303B091A4033091A00323E0230F2D3791
S11310D020F40196A11DB11D05C026E8230F029638
S11310E0A11DB11D2093A0038093A1039093A2039B
S11310F0A093A303B093A4038091A5039091A603A6
S1131100A091A703B091A8030196A11DB11D8093DE
S1131110A5039093A603A093A703B093A803BF913C
S1131120AF919F918F913F912F910F900FBE0F9090
S11311301F9018952FB7F8946091A1037091A203A2
S11311408091A3039091A4032FBF08953FB7F8940F
S11311508091A5039091A603A091A703B091A80341
S113116026B5A89B05C02F3F19F00196A11DB11DFE
S11311703FBFBA2FA92F982F8827820F911DA11D39
S1131180B11DBC01CD0142E0660F771F881F991F76
S11311904A95D1F708958F929F92AF92BF92CF92C2
S11311A0DF92EF92FF926B017C010E94A6084B0133
S11311B05C01C114D104E104F10401F10E94521252
S11311C00E94A608DC01CB0188199909AA09BB0968
S11311D0883E9340A105B10560F321E0C21AD1080D
S11311E0E108F10888EE880E83E0981EA11CB11C6A
S11311F0C114D104E104F10419F7DBCFFF90EF909F
S1131200DF90CF90BF90AF909F908F900895789487
S113121084B5826084BD84B5816084BD85B58260F7
S113122085BD85B5816085BDEEE6F0E08081816095
S11312308083E1E8F0E01082808182608083808195
S113124081608083E0E8F0E0808181608083E1EB6D
S1131250F0E0808184608083E0EBF0E08081816055
S11312608083EAE7F0E0808184608083808182600B
S113127080838081816080838081806880831092F4
S1131280C10008958091DD0390E02091DE03821B6C
S1131290910908959091DE038091DD03981750F42D
S11312A0E92FF0E0E152FC4F208130E09F5F909302
S11312B0DE0302C02FEF3FEFC9010895E091DE0382
S11312C08091DD03E81730F4F0E0E152FC4F8081B7
S11312D090E008958FEF9FEF08950895CF93DF93E3
S11312E0EC01E091B503F091B6033097F1F09091E1
S11312F0DE038091DD039817C0F090E0292F30E0E1
S11313002617370754F4DE01A20FB31F4C91D901FD
S1131310A152BC4F4C939F5FF1CF1092DE036093B8
S1131320DD03CB01DF91CF910994DF91CF91089533
S1131330E091B703F091B803309729F01092BB0302
S11313401092BA0309940895CF92DF92EF92FF921C
S11313500F931F93CF93DF937C01CB018A012091DC
S1131360B903222389F0EB016B01C40ED51ECC1501
S1131370DD0569F06991D701ED91FC910190F0814F
S1131380E02DC7010995F3CF642F0E94F014C80122
S1131390DF91CF911F910F91FF90EF90DF90CF904D
S11313A00895CF93DF931F92CDB7DEB76983209161
S11313B0B9032223D1F02091BA03203240F021E076
S11313C030E0FC013383228380E090E015C08091FB
S11313D0BB03E82FF0E0E454FC4F998190838F5FC6
S11313E08093BB038093BA0305C061E0CE010196EC
S11313F00E94F01481E090E00F90DF91CF91089566
S1131400FC011382128288EE93E0A0E0B0E08483B2
S11314109583A683B78381E891E0918380830895BF
S11314201092DE031092DD031092BB031092BA03F4
S11314300E94C51488E999E00E941D158EE699E082
S11314400C94181581E08093B9036093DC03109227
S1131450BB031092BA0308950C94220A0F93062F2B
S113146021E04091BA036CEB73E08091DC030E94AD
S113147027161092BB031092BA031092B9030F916E
S113148008954F925F926F927F92AF92BF92CF92E4
S1131490EF92FF920F931F93CF93DF935C01F62E8D
S11314A0D42F28013901EE2021F10E94220ACE2DE9
S11314B0C43008F0C3E0C150C0F028E0C29FC001AE
S11314C01124A301920104C0569547953795279599
S11314D08A95D2F7CA01B901D501ED91FC91019029
S11314E0F081E02DC5010995E6CF60E0C5010E94B9
S11314F02E0A4D2FD13208F040E22C2D6FED73E00F
S11315008F2D0E943E151092DE038093DD03DF9140
S1131510CF911F910F91FF90EF90CF90BF90AF901C
S11315207F906F905F904F900895CF92EF920F93BA
S11315301F93C22EE12C00E010E098010E94410AA2
S11315401F910F91EF90CF90089521E00C94950A8C
S113155021E00C94950A61E00C942E0A89EA93E048
S11315600C94000AEF92FF920F931F93CF93DF9393
S11315708C017B01C42F67EB71E083E093E00E9450
S11315808B066FE871E083E093E00E947E06B80169
S113159083E093E00E948B066CE971E083E093E0C2
S11315A00E947E064AE050E06C2F83E093E00E94A4
S11315B0FA068701D0E0C8018E199F098C179D0790
S11315C084F4F80161918F014AE050E083E093E0F4
S11315D00E94F3066CEA71E083E093E00E947E06C9
S11315E0EACF83E093E0DF91CF911F910F91FF90B9
S11315F0EF900C9487066FEA71E083E093E00E9419
S11316008B0680E090E0089562EC71E083E093E063
S11316100E948B060C94FB0ACF93DF93EC0163E6E4
S113162072E083E093E00E948B066FE070E08BE051
S113163094E00E942D128BE094E09983888380E0EB
S113164090E0DF91CF910895CF93DF93EC0162E5B1
S113165072E083E093E00E948B066EE070E08FEF0F
S113166093E00E943C118FEF93E09983888380E09C
S113167090E0DF91CF9108958F929F92AF92BF92A5
S1131680CF92DF92EF92FF920F931F93CF93DF934A
S1131690CDB7DEB76C970FB6F894DEBF0FBECDBFE3
S11316A07C015B0165E472E083E093E00E948B06B9
S11316B08E010F5F1F4F88E1F80111928A95E9F7B7
S11316C0F701E080F180C7010E94201164E0C701A6
S11316D00E94600F81FFFACF46E0B801C7010E9463
S11316E0C30F68018501E12CF12C5E01FDE1AF0E11
S11316F0B11C4601F60181919191A191B1916F01C3
S1131700898F9A8FAB8FBC8F6EEC71E083E093E08E
S11317100E947E064AE050E0B70183E093E00E9415
S11317205A076DEA71E083E093E00E947E06F401BB
S1131730408151816281738122E030E083E093E053
S11317400E943C086DEA71E083E093E00E947E060B
S1131750FE017996D801EA15FB0519F081918D9364
S1131760FACFFFEFEF1AFF0A0C5F1F4F86E0E8166F
S1131770F10409F0BECF83E093E00E94870688E17C
S11317806C960FB6F894DEBF0FBECDBFDF91CF913C
S11317901F910F91FF90EF90DF90CF90BF90AF908B
S11317A09F908F9008958F929F92AF92BF92CF9205
S11317B0DF92EF92FF920F931F93CF93DF93CDB7F6
S11317C0DEB728970FB6F894DEBF0FBECDBF7C01FD
S11317D08B0167E372E083E093E00E948B06F701DC
S11317E0E080F180C7010E94EF114B015C016D8321
S11317F07E838F839887C7010E940A126B017C0144
S113180069837A838B839C8363ED71E083E093E047
S11318100E947E0622E030E0B501A40183E093E05B
S11318200E943C086AED71E083E093E00E947E062A
S113183022E030E0B701A60183E093E00E943E0875
S1131840DE011596B801CE010196AE01475F5F4FE8
S1131850A417B50751F02D91FB012193BF01FC01A1
S11318602191CF01FB012383F3CF88E028960FB6A3
S1131870F894DEBF0FBECDBFDF91CF911F910F91C2
S1131880FF90EF90DF90CF90BF90AF909F908F909C
S11318900895EF92FF920F931F93CF93DF9300D09D
S11318A000D0CDB7DEB77C018B016BE272E083E040
S11318B093E00E948B06F701808191810E9431128E
S11318C069837A838B839C83DE011196F8019E01E0
S11318D02B5F3F4FA217B30719F08D918193FACF75
S11318E084E00F900F900F900F90DF91CF911F9194
S11318F00F91FF90EF900895EF92FF920F931F9333
S1131900CF93DF9300D000D0CDB7DEB77C018B013D
S11319106AE172E083E093E00E948B06F701808124
S113192091810E94401169837A838B839C83DE01B9
S11319301196F8019E012B5F3F4FA217B30719F0D0
S11319408D918193FACF84E00F900F900F900F90B8
S1131950DF91CF911F910F91FF90EF900895CF9356
S1131960DF93EC016DE772E083E093E00E948B0665
S113197069EA73E088E194E00E94C510811115C002
S113198060EE71E083E093E00E947E066DE772E012
S113199083E093E00E947E0669EE71E083E093E0C9
S11319A00E948B0682E090E006C088E194E099836F
S11319B0888380E090E0DF91CF910895CF93DF9307
S11319C0EC016FE672E083E093E00E948B0660E432
S11319D087E194E00E947C1141E061E087E194E0BA
S11319E00E94A41187E194E00E941F128035904167
S11319F0A9F060EE71E083E093E00E947E066FE65A
S1131A0072E083E093E00E947E0669EE71E083E079
S1131A1093E00E948B0684E090E006C087E194E0A6
S1131A209983888380E090E0DF91CF9108950F93AC
S1131A301F93CF93DF936DE072E083E093E00E9405
S1131A408B06C6E0D1E000E010E088819981009720
S1131A5039F0EA81FB810995082B192B2696F5CFDD
S1131A60C801DF91CF911F910F910895EF92FF92DA
S1131A700F931F93CF93DF937C0160E072E083E0C8
S1131A8093E00E948B0606E011E0C0E0D0E0D801AC
S1131A908D919C911197009769F0B7016C0F7D1F90
S1131AA01496ED91FC9115970995C80FD11D0A5F05
S1131AB01F4FEDCFCE01DF91CF911F910F91FF907A
S1131AC0EF900895E8E1F4E01182108289E48283C2
S1131AD087E194E00E947B112EEA37E441E350E46D
S1131AE06EE070E08BE094E00E9422126EE070E001
S1131AF08FEF93E00C9435118FEF93E00E943B112C
S1131B008BE094E00E942C1288E194E00C94F80E8F
S1131B10FF920F931F93CF93DF93CDB7DEB76097F8
S1131B200FB6F894DEBF0FBECDBFF82E6AE872E0A0
S1131B3083E093E00E948B06FE01319686E0DF018C
S1131B401D928A95E9F78EE08C879EE19D879E879A
S1131B508CE08F872FE02F8399878A87CE010C969C
S1131B609C838B8305979E838D83CF010E941504EC
S1131B708C0162E083E00E941E13FF2031F062E6D4
S1131B8079E081E492E60E942103C80160960FB6D1
S1131B90F894DEBF0FBECDBFDF91CF911F910F919F
S1131BA0FF90089580E00C94880D81E080933F04B9
S1131BB083B78E7F83BF81E00C94781266E972E06C
S1131BC083E093E00E948B0680913704811107C063
S1131BD080917A008093360481E0809337041092D8
S1131BE07A0083B7817F846083BF83B7816083BFBA
S1131BF080E685BF80E485BFF89440E050E065ED61
S1131C007DE081E00E945812789483E093E00E9482
S1131C10300588958091360480937A000895D82FF2
S1131C20192F6BEE72E083E093E00E948B06D0FDE7
S1131C300AC0D3FD0AC0D4FD0AC0D2FD0AC0D1FF38
S1131C400AC0C5E009C0C1E007C0C2E005C0C3E0E6
S1131C5003C0C4E001C0C0E061EA72E083E093E045
S1131C600E947E064AE050E06D2F712F83E093E0DE
S1131C700E945A0760EB72E083E093E00E947E06C4
S1131C804AE050E06C2F83E093E00E94FA06D0E033
S1131C9000E010E00C171D07BCF461E082E00E9434
S1131CA05A1368EC70E080E090E00E94CB0860E09A
S1131CB082E00E945A1368EC70E080E090E00E9499
S1131CC0CB080F5F1F4FE6CF60E971E080E090E042
S1131CD00E94CB08DDCF67ED72E083E093E00E94C1
S1131CE08B0661E082E00E941E13F894109280003B
S1131CF0E1E8F0E080818F7E80838081886080834A
S1131D0080818460808380818D7F808380818160F5
S1131D108083109285001092840080ED93E090936C
S1131D20890080938800EFE6F0E080818260808300
S1131D307894089560EC72E083E093E00E948B064F
S1131D40EFE6F0E080818D7F808360E082E00E9496
S1131D505A1381E090E090934104809340040895E5
S1131D601F920F920FB60F9211242F933F934F930C
S1131D705F936F937F938F939F93AF93BF93EF93EF
S1131D80FF938091400490914104892BC1F4809188
S1131D90420490914304892B29F010924304109239
S1131DA0420406C081E090E090934304809342048F
S1131DB0609142047091430482E00E945A13FF919F
S1131DC0EF91BF91AF919F918F917F916F915F91AF
S1131DD04F913F912F910F900FBE0F901F90189528
S1131DE0FC0180818E7F0895FC0180818F730895AA
S1131DF0FC0180819181009711F00C945512089593
S1131E00EF920F931F93CF93DF931F92CDB7DEB75B
S1131E106983022F10E0E12C9A0141E050E0BE01F9
S1131E206F5F7F4FFC01808191810E9493140F901A
S1131E30DF91CF911F910F91EF900895CF93DF938E
S1131E401F92CDB7DEB721E0AE014F5F5F4F0E9416
S1131E50000F89810F90DF91CF910895EF92FF9247
S1131E600F931F93CF93DF931F92CDB7DEB7362F17
S1131E70BA013983422F50E0EE24E394F12C8E0111
S1131E800F5F1F4F21E0FC01808191810E94C813E4
S1131E900F90DF91CF911F910F91FF90EF900895D4
S1131EA0CF93DF931F92CDB7DEB7498321E0AE0114
S1131EB04F5F5F4F0E942E0F0F90DF91CF910895D7
S1131EC0FF920F931F93CF93DF9300D0CDB7DEB76C
S1131ED08C01F62E60E0C8010E941E0F8A838A815D
S1131EE081FDF8CF4F2D61E0C8010E94500F60E0E2
S1131EF0C8010E941E0F8A838A8180FFF8CF62E0A6
S1131F00C8010E941E0F898389810F900F90DF9171
S1131F10CF911F910F91FF900895CF92DF92EF928E
S1131F20FF920F931F93CF93DF93EC01162F0E9420
S1131F30600F082F61E0610FCE010E94600FC82E70
S1131F40D12CE12CF12C7601DD24CC24F02A62E0A2
S1131F50610FCE010E94600F082F63E0610FCE0174
S1131F600E94600FA7019601282BDA01C901BC0168
S1131F70CD01702BDF91CF911F910F91FF90EF90C6
S1131F80DF90CF900895CF92DF92EF92FF920F935C
S1131F901F93CF93DF938C017B01C0E0D0E0C42E6C
S1131FA0D12CCC15DD050CF04EC0C230D10561F149
S1131FB084F42097F9F0C130D10509F042C068E1FA
S1131FC0C8010E948D0FF70164837583868397830C
S1131FD038C0C430D10561F10CF1C530D10589F5A3
S1131FE068E2C8010E948D0FF701648B758B868BA4
S1131FF0978B27C064E1C8010E948D0FF7016083AD
S11320007183828393831DC06CE1C8010E948D0F8C
S1132010F701608771878287938713C060E2C801E4
S11320200E948D0FF701648775878687978709C09B
S113203064E2C8010E948D0FF701608B718B828B63
S1132040938B2196AECFDF91CF911F910F91FF908B
S1132050EF90DF90CF900895EF92FF920F931F932C
S1132060CF93DF931F92CDB7DEB78C01F62EE42E0B
S113207060E0C8010E941E0F8983898181FDF8CF29
S11320804F2D406861E0C8010E94500F60E0C80114
S11320900E941E0F8983898181FDF8CF4E2D61E056
S11320A0C8010E94500F0F90DF91CF911F910F91A3
S11320B0FF90EF900895CF93DF93EC018D81877F9C
S11320C08D83CE0105960E94F40E482F67E0CE0161
S11320D0DF91CF910C942C10CF93DF93EC016370BC
S11320E0862F8295807F6D816F7C682B6D83CE01F6
S11320F005960E94F40E482F67E0CE01DF91CF9140
S11321000C942C10CF93DF93EC016370862F880F0F
S1132110880F6B81637F682B6B83CE0103960E94CB
S1132120F00E482F64E0CE01DF91CF910C942C1077
S1132130CF93DF93EC016370862F8295807F6B8150
S11321406F7C682B6B83CE0103960E94F00E482FA0
S113215064E0CE01DF91CF910C942C10462FFC014A
S1132160648365E00C942C10CF93DF93EC018B8196
S113217080648B83CE0103960E94F00E482F64E0A6
S1132180CE01DF91CF910C942C10EF92FF920F931C
S11321901F93CF93DF93EC017B0188819981009792
S11321A011F00E94551286E090E00E9453128C01B7
S11321B0A7016A810E9489131983088361E0C80119
S11321C00E94B013182F811102C010E031C08B811E
S11321D080688B83CE0103960E94F00E482F64E042
S11321E0CE010E942C108B818F778B8368EE73E075
S11321F080E090E00E94CB0860E0CE010E94600F76
S1132200803419F7CE010E94B41060E0CE010E9420
S11322106C10CE010E945B1062E3CE010E94AE10EE
S113222063E0CE010E94981063E0CE010E94821008
S1132230812FDF91CF911F910F91FF90EF9008951F
S1132240CF93DF93EC018B818D7F8B83CE0103963B
S11322500E94F00E482F64E0CE010E942C1063E02F
S1132260CE01DF91CF910C948210FC0175836483BD
S11322701782168208950895FC0175836483089576
S1132280CF92DF92EF92FF92CF93DF93EC018C8198
S11322900E94D8129F838E83BC01990F880B990BDF
S11322A00E94911921EE32EB4AEC5DE30E94461A3A
S11322B02AE939E941E051E40E947C186B017C0170
S11322C020E030E0A9010E94E91887FD05C0C88616
S11322D0D986EA86FB8604C0188619861A861B8668
S11322E0688579858A859B85DF91CF91FF90EF90F2
S11322F0DF90CF9008950895FC01608389EA93E00C
S11323000C94100ACF93C62FFC01608189EA93E0F4
S11323100E94220A62E089EA93E00E94D1096C2FAC
S113232089EA93E00E94D10960E089EA93E00E947F
S1132330D10989EA93E00E94AB0A6AE070E080E088
S113234090E0CF910C94CB08262F60E0413011F03F
S11323506B7F01C06460222329F0213029F46C7F53
S1132360616002C06C7F62600E9482110895FF92D6
S11323700F931F93CF93DF938C01F62EFC016081A2
S113238089EA93E00E94220A6F2D89EA93E00E9471
S1132390D10989EA93E00E94AB0A69E070E080E029
S11323A090E00E94CB0842E0F801608189EA93E062
S11323B00E94A50A89EA93E00E944A09182F89EA33
S11323C093E00E944A09D12FF0E0CF2F9E01282BE1
S11323D0C901DF91CF911F910F91FF90089560E0A3
S11323E00E94B711BC0180E090E00E948F1920E0A8
S11323F030E040E857E30E94461A20E030E045E22E
S113240053E40E94461A20E030E040E252E40E9485
S11324107C18089561E00E94B711BC0180E090E04F
S11324200E948F1920E030E040E857E30E94461AEA
S113243020E030E048EC52E40E94461A08956FEF21
S11324400C94B711FC012083318342835383758339
S113245064831782168208950895FC01758364834A
S11324600895CF93DF93EC018C810E94D8129F834F
S11324708E83BC01990F880B990B0E9491192DE74B
S11324803FEA4DE054E40E947C1825E436EF41E134
S11324905EE30E94461A688779878A879B87DF9163
S11324A0CF91089508950C943F1B0C94D71B089565
S11324B08230E8F4E82FF0E0EE0FFF1FEC5DFE4FF2
S11324C071836083813041F0809169008C7F482B57
S11324D040936900E89A089580916900837F440FCE
S11324E0551F440F551F482B40936900E99A0895DE
S11324F0823078F4813011F0E89801C0E998E82F2F
S1132500F0E0EE0FFF1FEC5DFE4F87E592E1918353
S1132510808308951F920F920FB60F9211242F9368
S11325203F934F935F936F937F938F939F93AF9357
S1132530BF93EF93FF93E0912401F0912501099556
S1132540FF91EF91BF91AF919F918F917F916F9187
S11325505F914F913F912F910F900FBE0F901F905D
S113256018951F920F920FB60F9211242F933F9339
S11325704F935F936F937F938F939F93AF93BF9387
S1132580EF93FF93E0912601F09127010995FF91C4
S1132590EF91BF91AF919F918F917F916F915F91D7
S11325A04F913F912F910F900FBE0F901F90189550
S11325B08E3008F08E502091280190E4299F9001DC
S11325C011248770822B80937C0080917A00806430
S11325D080937A0080917A0086FDFCCF8091780008
S11325E02091790090E0922B0895833081F028F4B3
S11325F0813099F08230A1F008958730A9F08830B5
S1132600B9F08430D1F4809180008F7D03C0809133
S113261080008F7780938000089584B58F7702C0FF
S113262084B58F7D84BD08958091B0008F7703C0F9
S11326308091B0008F7D8093B0000895CF93DF9395
S113264090E0FC01E458FF4F2491FC01E057FF4F58
S11326508491882361F190E0880F991FFC01E25571
S1132660FF4FC591D491FC01EC55FF4FA591B49156
S1132670611109C09FB7F8948881209582238883CB
S1132680EC912E230BC0623061F49FB7F8948881DB
S1132690322F309583238883EC912E2B2C939FBF6C
S11326A006C08FB7F894E8812E2B28838FBFDF9163
S11326B0CF9108951F93CF93DF93282F30E0F90132
S11326C0E859FF4F8491F901E458FF4FD491F9017F
S11326D0E057FF4FC491CC23C1F0162F81110E9403
S11326E0F512EC2FF0E0EE0FFF1FEC55FF4FA59114
S11326F0B4919FB7F894111104C08C91D095D8234C
S113270002C0EC91DE2BDC939FBFDF91CF911F9130
S11327100895FC01608352834183138280E290E038
S1132720958384830895CF93DF93EC018B8181118A
S113273007C061E0CE010E94B013982F882361F096
S1132740688189819A810E94220A89819A810E94E2
S1132750AB0A91E0811190E0892FDF91CF91089528
S11327601F93CF93DF93EC01162F89819A810E94E6
S1132770100A81E08B83112331F0CE01DF91CF91D8
S11327801F910C94931381E0DF91CF911F910895D1
S11327908F929F92BF92CF92DF92EF92FF920F930C
S11327A01F93CF93DF93DA01AE0DBF1DEC01EC81D3
S11327B0FD81EA17FB07A0F1B22E6A014B01EC017F
S11327C0688189819A810E94220AE114F10479F4D2
S11327D089819A81DC01ED91FC910280F381E02DE5
S11327E0A601B4010995C816D906D1F412C0011581
S11327F0110571F389819A81DC01ED91FC910280CC
S1132800F381E02DA701B8010995E816F90641F412
S1132810DFCF6B2D89819A810E942E0A91E081116C
S113282090E0892FDF91CF911F910F91FF90EF904E
S1132830DF90CF90BF909F908F900895CF92DF92BA
S1132840EF92FF920F931F93CF93DF937C016B0161
S11328508A01DC016C9111968D919C9112970E94D2
S1132860950A90E00817190791F4E6010C0D1D1D57
S1132870C017D10771F0F70181819281DC01ED91DC
S1132880FC910284F385E02D09958993F1CF80E0D2
S113289001C081E0DF91CF911F910F91FF90EF90E4
S11328A0DF90CF9008959F92AF92BF92CF92DF9224
S11328B0EF92FF920F931F93CF93DF936C015B0111
S11328C07A01922EC0E0D0E0CE15DF05F8F4F601CF
S11328D08481958187010C1B1D0B8017910708F4D7
S11328E08C01C701801B910BC817D90710F0292D43
S11328F001C020E0A801B5016C0F7D1FC6010E9434
S11329001E14882321F0C00FD11FDECF81E0DF9198
S1132910CF911F910F91FF90EF90DF90CF90BF90D8
S1132920AF909F900895AF92BF92CF92DF92EF92B3
S1132930FF920F931F93CF93DF93EC01690158012A
S11329402E2DE12CF12C00E010E00E94C813882306
S113295081F021E0A501B601CE01DF91CF911F9155
S11329600F91FF90EF90DF90CF90BF90AF900C94B9
S1132970531480E0DF91CF911F910F91FF90EF905E
S1132980DF90CF90BF90AF9008951092B70481E08C
S11329908093B5041092B40461E082E10E945A135A
S11329A061E083E10E945A13E9EBF0E080818E7FBD
S11329B0808380818D7F808388E48093B80085E460
S11329C08093BC000895ECEBF0E080818A7B8083E7
S11329D060E082E10E945A1360E083E10C945A1390
S11329E040916604262F30E0240F311D2132310539
S11329F0DCF42091B7042430C9F4FC0180E090E0B9
S1132A00861758F4309166042191DC01A859BB4F14
S1132A10A30FB11D2C930196F3CF80916604680F28
S1132A206093660480E0089581E0089582E008954B
S1132A309093AB048093AA0408959093AD0480937B
S1132A40AC04089585EC8093BC001092B7040895FB
S1132A50CF93DF9391E09093AF04882361F0C0910A
S1132A60B800D091BA000E94E3140E94C514D09318
S1132A70BA00C093B800DF91CF9108954F925F924E
S1132A806F927F928F929F92AF92BF92CF92DF927A
S1132A90EF92FF920F931F93CF93DF93F82E162F8D
S1132AA0072FC42FE22E413208F0BEC00E94A608B0
S1132AB04B015C01D091B704DD2331F18091B00466
S1132AC09091B104A091B204B091B304892B8A2BE4
S1132AD08B2B81F30E94A6084090B0045090B1045F
S1132AE06090B2047090B304DC01CB018819990999
S1132AF0AA09BB09481659066A067B06D8F68091CE
S1132B00AE040E94281590C081E08093B704E0923F
S1132B10B5049FEF90934404109289049C0F909302
S1132B2088048093B6049091B6048F2D880F892B66
S1132B308093B6048091B404813089F51092B40472
S1132B400E94A6086B017C018091B6048093BB00AF
S1132B508091B0049091B104A091B204B091B304F7
S1132B60892B8A2B8B2BA9F00E94A6088090B00495
S1132B709090B104A090B204B090B304DC01CB01F6
S1132B808C199D09AE09BF0988169906AA06BB06C9
S1132B9090F18091BC0083FDD7CF85EC01C085EE18
S1132BA08093BC000E94A6086B017C018091B7044D
S1132BB0813031F58091B0049091B104A091B204B8
S1132BC0B091B304892B8A2B8B2B81F30E94A60826
S1132BD08090B0049090B104A090B204B090B3047B
S1132BE0DC01CB018C199D09AE09BF098816990631
S1132BF0AA06BB06D8F68091AE040E94281515C01B
S1132C00809189048C1710F4C0918904AAE8B4E077
S1132C10912FE12FF02F8E2F891B8C1718F48D9193
S1132C208193F9CFDC2F01C0D0E08D2FDF91CF91BC
S1132C301F910F91FF90EF90DF90CF90BF90AF90D6
S1132C409F908F907F906F905F904F9008954F92D8
S1132C505F926F927F928F929F92AF92BF92CF9228
S1132C60DF92EF92FF920F931F93CF93DF93413242
S1132C7008F0C6C0122FF42ED72EE62ED82F0E94AD
S1132C80A6084B015C01C091B704CC2311F18091DB
S1132C90B0049091B104A091B204B091B304892B13
S1132CA08A2B8B2B81F30E94A6084090B00450908D
S1132CB0B1046090B2047090B304DC01CB018819B4
S1132CC09909AA09BB09481659066A067B06D8F66B
S1132CD083C082E08093B7040093B5048FEF8093A0
S1132CE0440410928904F09288049E2DAAE8B4E06A
S1132CF0EE2DFD2D8E2F891B8F1518F481918D9348
S1132D00F9CF1092B6049091B604DD0FD92BD0936D
S1132D10B6048091B404813089F51092B4040E9401
S1132D20A6086B017C018091B6048093BB0080915E
S1132D30B0049091B104A091B204B091B304892B72
S1132D408A2B8B2BA9F00E94A6088090B004909047
S1132D50B104A090B204B090B304DC01CB018C198F
S1132D609D09AE09BF0988169906AA06BB06A0F1FB
S1132D708091BC0083FDD7CF85EC01C085EE8093A4
S1132D80BC000E94A6086B017C01112359F18091BB
S1132D90B704823039F58091B0049091B104A091C8
S1132DA0B204B091B304892B8A2B8B2B71F30E944C
S1132DB0A6088090B0049090B104A090B204B090A2
S1132DC0B304DC01CB018C199D09AE09BF09881637
S1132DD09906AA06BB06C8F68091AE040E9428157F
S1132DE0C5E013C0809144048F3F79F0809144047E
S1132DF0803241F080914404803331F0C4E005C056
S1132E00C1E003C0C2E001C0C3E08C2FDF91CF91C9
S1132E101F910F91FF90EF90DF90CF90BF90AF90F4
S1132E209F908F907F906F905F904F90089585ED65
S1132E308093BC008091B0049091B104A091B2043D
S1132E40B091B3040796A11DB11D23E0B695A795D3
S1132E50979587952A95D1F72091BC0024FF1CC033
S1132E604091B0045091B1046091B2047091B304E4
S1132E70452B462B472B81F30097A105B10541F063
S1132E8025E32A95F1F700000197A109B109E4CFE0
S1132E908091AE040C9428151092B70408951F92E3
S1132EA00F920FB60F9211242F933F934F935F937A
S1132EB06F937F938F939F93AF93BF93EF93FF93FE
S1132EC08091B900887F803609F49EC078F58832F5
S1132ED009F45DC090F4803109F456C038F48823B5
S1132EE009F4F5C0883009F44FC0F5C0883109F4FD
S1132EF04EC0803209F45FC0EEC0803409F46AC069
S1132F0058F4803309F457C0883309F0E4C080933F
S1132F1044040E942215DFC0803509F44FC088356F
S1132F2009F45DC0883409F0D6C0D3C0883909F4E7
S1132F30C4C0A8F4883709F467C038F4883609F4A3
S1132F4063C0803709F460C0C6C0883809F4B5C0CE
S1132F50803909F45FC0803809F0BDC05BC0803B94
S1132F6009F483C038F4803A09F466C0883A09F455
S1132F707CC0B1C0803C09F4A4C0883C09F4A1C061
S1132F80883B09F487C0A7C08091B60410C0909113
S1132F90890480918804981770F5E091890481E090
S1132FA08E0F80938904F0E0E657FB4F8081809375
S1132FB0BB0085EC83C0809344048BC0E0918904FA
S1132FC081E08E0F809389048091BB00F0E0E65786
S1132FD0FB4F808390918904809188046BC0E091B9
S1132FE0890481E08E0F809389048091BB00F0E016
S1132FF0E657FB4F80838091B50481116AC081E05C
S11330008093B40484EA5EC083E08093B704109292
S11330104504CFCF80914504803208F04EC0E09142
S1133020450481E08E0F809345048091BB00F0E05D
S1133030EA5BFB4F8083BDCF0E942215809145043B
S1133040803230F4E0914504F0E0EA5BFB4F1082FB
S11330506091450470E0E091AA04F091AB0486E429
S113306094E009951092450436C084E08093B70437
S11330701092670410926604E091AC04F091AD04E0
S1133080099580916604811105C081E080936604EE
S113309010926804E091670481E08E0F80936704C6
S11330A0F0E0E859FB4F80818093BB009091670466
S11330B080916604981708F47CCF85E88093BC005F
S11330C00AC085EC8093BC001092B70404C010922F
S11330D044040E941717FF91EF91BF91AF919F9104
S11330E08F917F916F915F914F913F912F910F90AD
S11330F00FBE0F901F9018955058BB27AA270E9407
S113310094180C94071A0E94F91938F00E94001AB6
S113311020F039F49F3F19F426F40C94F6190EF4B8
S1133120E095E7FB0C94F019E92F0E94181A58F364
S1133130BA17620773078407950720F079F4A6F598
S11331400C943A1A0EF4E0950B2EBA2FA02D0B0115
S1133150B90190010C01CA01A0011124FF27591BD8
S113316099F0593F50F4503E68F11A16F040A22FDE
S1133170232F342F4427585FF3CF4695379527954F
S1133180A795F0405395C9F77EF41F16BA0B620B4E
S1133190730B840BBAF09150A1F0FF0FBB1F661F95
S11331A0771F881FC2F70EC0BA0F621F731F841FD8
S11331B048F4879577956795B795F7959E3F08F0FE
S11331C0B0CF9395880F08F09927EE0F97958795C0
S11331D008950E94CC1908F481E008950E94021910
S11331E00C94071A0E94001A58F00E94F91940F032
S11331F029F45F3F29F00C94F01951110C943B1AF7
S11332000C94F6190E94181A68F39923B1F3552304
S113321091F3951B550BBB27AA27621773078407E5
S113322038F09F5F5F4F220F331F441FAA1FA9F37B
S113323035D00E2E3AF0E0E832D091505040E69569
S1133240001CCAF72BD0FE2F29D0660F771F881FCA
S1133250BB1F261737074807AB07B0E809F0BB0BBD
S1133260802DBF01FF2793585F4F3AF09E3F5105D1
S113327078F00C94F0190C943B1A5F3FE4F3983EF9
S1133280D4F3869577956795B795F7959F5FC9F7BA
S1133290880F911D9695879597F90895E1E0660F3B
S11332A0771F881FBB1F621773078407BA0720F0B4
S11332B0621B730B840BBA0BEE1F88F7E09508951D
S11332C00E94201A88F09F5798F0B92F9927B75178
S11332D0B0F0E1F0660F771F881F991F1AF0BA95B6
S11332E0C9F714C0B13091F00E943A1AB1E00895C0
S11332F00C943A1A672F782F8827B85F39F0B93FB2
S1133300CCF3869577956795B395D9F73EF4909568
S11333108095709561957F4F8F4F9F4F0895E894E6
S113332009C097FB3EF490958095709561957F4F09
S11333308F4F9F4F9923A9F0F92F96E9BB279395B7
S1133340F695879577956795B795F111F8CFFAF4C7
S1133350BB0F11F460FF1BC06F5F7F4F8F4F9F4FF8
S113336016C0882311F096E911C0772321F09EE856
S1133370872F762F05C0662371F096E8862F70E0BC
S113338060E02AF09A95660F771F881FDAF7880F96
S11333909695879597F90895990F0008550FAA0BEC
S11333A0E0E8FEEF16161706E807F907C0F0121654
S11333B01306E407F50798F0621B730B840B950B57
S11333C039F40A2661F0232B242B252B21F40895AC
S11333D00A2609F4A140A6958FEF811D811D089549
S11333E097F99F6780E870E060E008959FEF80ECB4
S11333F0089500240A941616170618060906089557
S113340000240A9412161306140605060895092EBC
S11334100394000C11F4882352F0BB0F40F4BF2B2B
S113342011F460FF04C06F5F7F4F8F4F9F4F08956B
S113343057FD9058440F551F59F05F3F71F0479561
S1133440880F97FB991F61F09F3F79F08795089546
S1133450121613061406551FF2CF4695F1DF08C065
S1133460161617061806991FF1CF86957105610582
S113347008940895E894BB2766277727CB0197F92A
S113348008950E94CC1908F48FEF08950E94591AE8
S11334900C94071A0E94F91938F00E94001A20F0BF
S11334A0952311F00C94F0190C94F61911240C9432
S11334B03B1A0E94181A70F3959FC1F3950F50E0C0
S11334C0551F629FF001729FBB27F00DB11D639FD2
S11334D0AA27F00DB11DAA1F649F6627B00DA11D78
S11334E0661F829F2227B00DA11D621F739FB00D1E
S11334F0A11D621F839FA00D611D221F749F33278E
S1133500A00D611D231F849F600D211D822F762F26
S11335106A2F11249F5750409AF0F1F088234AF003
S1133520EE0FFF1FBB1F661F771F881F915050406F
S1133530A9F79E3F510580F00C94F0190C943B1AA6
S11335405F3FE4F3983ED4F3869577956795B795F6
S1133550F795E7959F5FC1F7FE2B880F911D969510
S1133560879597F908950E94CC19880B990B0895B3
S1133570991B79E004C0991F961708F0961B881FC1
S11335807A95C9F780950895AA1BBB1B51E107C022
S1133590AA1FBB1FA617B70710F0A61BB70B881FDF
S11335A0991F5A95A9F780959095BC01CD0108956E
S11335B097FB072E16F4009407D077FD09D00E94DC
S11335C0C41A07FC05D03EF4909581959F4F089549
S11335D0709561957F4F0895A1E21A2EAA1BBB1B1B
S11335E0FD010DC0AA1FBB1FEE1FFF1FA217B307CB
S11335F0E407F50720F0A21BB30BE40BF50B661FE1
S1133600771F881F991F1A9469F7609570958095A4
S113361090959B01AC01BD01CF010895A29FB0011B
S1133620B39FC001A39F700D811D1124911DB29FF2
S1133630700D811D1124911D08950E940E1BA59FDC
S1133640900DB49F900DA49F800D911D1124089599
S1133650B7FF0C941D1B0E941D1B821B930B089526
S11336602A0D3B1D4C1D5D1D6E1D7F1D801F911F6E
S11336700895EE0FFF1F0590F491E02D09940F9328
S11336801F93CF93DF938230910510F482E090E092
S1133690E091BA04F091BB0420E030E0A0E0B0E097
S11336A0309719F1408151810281138148175907DC
S11336B0C8F08417950769F4109731F012960C93AB
S11336C0129713961C9327C00093BA041093BB045B
S11336D022C02115310519F04217530718F49A0135
S11336E0BD01EF01DF01F801DBCF21153105F9F050
S11336F0281B390B2430310580F48A819B816115A4
S1133700710521F0FB019383828304C09093BB0471
S11337108093BA04FE01329644C0FE01E20FF31F07
S11337208193919322503109398328833AC020919F
S1133730B8043091B904232B41F420910201309153
S113374003013093B9042093B8042091000130910F
S113375001012115310541F42DB73EB74091040113
S113376050910501241B350BE091B804F091B90484
S1133770E217F307A0F42E1B3F0B2817390778F044
S1133780AC014E5F5F4F2417350748F04E0F5F1FA3
S11337905093B9044093B8048193919302C0E0E03C
S11337A0F0E0CF01DF91CF911F910F910895CF9356
S11337B0DF93009709F481C0FC01329713821282CF
S11337C0A091BA04B091BB04109781F42081318197
S11337D0820F931F2091B8043091B9042817390738
S11337E051F5F093B904E093B80467C0ED0120E00B
S11337F030E0CE17DF0740F44A815B819E0141151A
S11338005105F1F0EA01F5CFD383C28340815181A0
S1133810840F951FC817D90759F488819981840F9B
S1133820951F0296918380838A819B8193838283EF
S11338302115310529F4F093BB04E093BA043DC08B
S1133840E901FB83EA8349915991C40FD51FEC1711
S1133850FD0761F480819181840F951F0296E9012F
S113386099838883828193819B838A83E0E0F0E05B
S113387012968D919C911397009719F0FD01DC012C
S1133880F7CF8D919C9111979D012E5F3F4F820F31
S1133890931F2091B8043091B9042817390769F4AB
S11338A0309729F41092BB041092BA0402C0138218
S11338B01282B093B904A093B804DF91CF91089514
S11338C010E0CFE5D0E004C0FE010E94391B219630
S10D38D0C036D107C9F7F894FFCF02
S11338DA0000BC0420003004AF0C3C0B2A04DE0CAC
S11338EAD30B24040C0B490C1E04240B7C0C00007F
S11338FA000000005712571201646174616C6F670B
S113390A2E62696E00636865636B73756D00696E18
S113391A69745F7365747570006D61696E00070B75
S113392A1F1C1F1E1F1E1F1F1E1F1E1F000000001C
S113393AE3043F06B204300584049E0490040D0A8D
S113394A006E616E00696E66006F766600000000A4
S113395A00D109A409B7056D0942094A095E094655
S113396A696C65206E616D65203A20004672616D4E
S113397A65206C656E676874203A20002C09007310
S113398A645F696E697400736176655F6672616DFE
S113399A6500696E69745F6D656D6F72790043487D
S11339AA3A200054656D703A20000952483A2000C2
S11339BA4552524F52203A2000203A2053656E73E2
S11339CA6F7220756E726561636861626C652E0040
S11339DA657865635F6D6F64756C657300696E699C
S11339EA745F6D6F64756C6573005F616E656D6F8E
S11339FA6D657465725F72656164005F70743130FD
S1133A0A305F72656164005F686463313038305FC7
S1133A1A72656164005F6173373236325F72656161
S1133A2A64005F616E656D6F6D657465725F696E62
S1133A3A6974005F70743130305F696E6974005F55
S1133A4A686463313038305F696E6974005F61732A
S1133A5A373236325F696E697400647333323331D4
S1133A6A5F696E697400676F746F5F736C65657004
S1133A7A004572726F722076616C7565203A200077
S1133A8A09426C696E6B20636F756E74203A20006C
S1133A9A7374617475735F626C696E6B65725F646B
S1133AAA697361626C65007374617475735F626CC7
S1133ABA696E6B65725F696E6974007369676E61BA
S10B3ACA6C5F6572726F7200FB
S9030000FC
