S00C00006D61696E2E7372656373
S11300000C9460000C94ED130C9414140C9488005C
S11300100C9488000C9488000C9488000C9488003C
S11300200C9488000C9488000C9488000C94131091
S11300300C9488000C9488000C9488000C9488001C
S11300400C94C5080C9488000C942F060C9461063B
S11300500C9488000C9488000C9488000C948800FC
S11300600C941E180C948800000000080002010083
S1130070000304070000000000000000010204085F
S113008010204080010204081020010204081020FE
S1130090040404040404040402020202020203032A
S11300A00303030300000000250028002B000000C8
S11300B00000240027002A008706B70BA00EDF0EDD
S11300C011241FBECFEFD8E0DEBFCDBF13E0A0E008
S11300D0B1E0E8E7FAE302C005900D92A43AB10753
S11300E0D9F725E0A4EAB3E001C01D92AE36B20709
S11300F0E1F710E0CFE5D0E004C02197FE010E94B3
S1130100081CCC35D107C9F70E9435010C942F1D6A
S11301100C94000065E971E08FEA93E00E94000707
S113012061E085E00C94E00966E871E08FEA93E011
S11301300E94000760E085E00C941C0A65E771E00A
S11301408FEA93E00E94000761E085E00C941C0AAA
S113015064E671E08FEA93E00E94000761E087E0C3
S11301600E94E00961E088E00E94E00961E089E022
S11301700C94E0096FE471E08FEA93E00E940007B9
S113018061E087E00E941C0A61E088E00E941C0A8A
S113019061E089E00E941C0A68EE73E080E090E070
S11301A00C944009CF93DF9326E040E855E260E0E9
S11301B070E08FEA93E00E94C70560EA71E08FEA7D
S11301C093E00E9400070E94CE0F0E948A000E94C2
S11301D0A8000E94BA0085E594E00E94190B0E94D1
S11301E0350FEC010E940D0CC82BD92B0E94580E20
S11301F0C82BD92B64EF71E080E090E00E944009A5
S11302000E94FD0FCE01DF91CF91089568E371E064
S11302108FEA93E00E94000760E087E00E941C0AD6
S113022060E088E00E941C0A60E089E00C941C0AEB
S11302300F931F93CF93DF938C01EB016FE271E077
S11302408FEA93E00E940007F801C00FD11F80E0FD
S113025090E0EC17FD0721F02191820F911DF9CF59
S1130260DF91CF911F910F910895CF93DF93CDB775
S1130270DEB7E2970FB6F894DEBF0FBECDBF0E9483
S11302807C090E94D200009711F00E94720F8E0127
S11302900F5F1F4F8AE2F80111928A95E9F76E0108
S11302A0FBE2CF0ED11C6BEA71E08FEA93E00E946F
S11302B000078091F104882309F44EC01092F104E0
S11302C00E94BA0068EE73E080E090E00E9440096A
S11302D00E94580E009711F00E94720F0E940704AA
S11302E09B01AC016BA73CA74DA75EA71FA618AA4C
S11302F019AA1AAAFE01F396D80182918D93EC15DE
S1130300FD05D9F70E94940068EE73E080E090E068
S11303100E944009CE0109960E94780EB82E88E00A
S1130320E82EEB0C0E949E000E940601F12CB701FE
S1130330C8010E941801F801EE0DFF1D908399E099
S11303409B0DF801E90FF11D80834AE04B0DB801C4
S113035083E291E00E94BB0B0E94410FA4CF8F92D5
S11303609F92AF92BF92CF92DF92EF92FF920F9340
S11303701F93CF93DF93C090AB03D090AC03E09076
S1130380AD03F090AE0380EDC81A89E8D80A8DE673
S1130390E80A88E3F80AE1EDF7E0C4E6D0E000E912
S11303A011E09F012150310981E8C81683E3D80682
S11303B081EEE80681E0F80610F1C90183709927FF
S11303C0892BA1F4C901BE010E94931B892B31F42E
S11303D0C901B8010E94931B892B41F485E8D81AFE
S11303E082EEE80A81E0F80A3196DBCF80E8C81A89
S11303F083E3D80A81EEE80A81E0F80AF5CF309366
S1130400AA032093A903C2EBD1E0FE01E25BF14011
S1130410A991B0E020E831E541E050E00E94EC1BF6
S11304206C157D058E059F0528F4C61AD70AE80ABF
S1130430F90AEBCFEF5FE093A803C701B60120E808
S113044031E541E050E00E94BB1B4B015C012F5F92
S11304502093A7032CE3C22ED12CE12CF12CA7016D
S113046096010E94BB1B6093A403C501B40120E163
S11304703EE040E050E00E94BB1BC22FA701960162
S11304800E94BB1B2093A503C093A603DF91CF91C9
S11304901F910F91FF90EF90DF90CF90BF90AF909E
S11304A09F908F9008952F923F924F925F926F92F8
S11304B07F928F929F92AF92BF92CF92DF92EF92F0
S11304C0FF920F931F93CF93DF93CDB7DEB72C9793
S11304D00FB6F894DEBF0FBECDBFC090A5038091C8
S11304E0A4030CE3C09E60011124C80ED11C0D2C82
S11304F0000CEE08FF082091A60330E0A0E1BEE066
S11305000E94DD1BC60ED71EE81EF91E1601270128
S1130510612C712C4301E090A903F090AA03FC82A2
S1130520EB82C70183709927892B81F4C70164E6A4
S113053070E00E94A71B892B59F4C70160E971E0A0
S11305400E94A71B01E00983892B21F0198202C0B4
S113055011E01983E0EDF7E084E6E82EF12C00E9E0
S113056011E02B813C81E217F3077CF5CF01837006
S11305709927892BC1F4CF01B7010E94A71B892BAE
S113058031F4CF01B8010E94A71B892B61F49101BA
S1130590A201B301C4013B574D415E4F6F4F7F4FE2
S11305A08F4F9F4F0CC09101A201B301C401205889
S11305B03C4C4E415E4F6F4F7F4F8F4F9F4F190101
S11305C02A013B014C013196CCCF3091A8033A83E8
S11305D0432F50E0415051095C834B83E2EBF1E03F
S11305E0CF01825B9140EB80FC808E159F05DCF48B
S11305F0A191B0E020E831E541E050E00E94EC1B1D
S11306005B016C019B01A60160E070E080E090E07A
S113061051016201730184010E94FF1B19012A0127
S11306203B014C01DDCFA091A703B0E0119720E876
S113063031E541E050E00E94F71B7B018C019B01F6
S1130640A80160E070E080E090E051016201730174
S113065084010E94FF1B49015A010981002369F0AA
S11306601A81133050F020583E4A4E4F5F4F6F4F5F
S11306707F4F8F4F9F4F49015A0120E3821A26E78B
S1130680920A22E9A20A27ECB20A8092AB03909262
S1130690AC03A092AD03B092AE032C960FB6F894BF
S11306A0DEBF0FBECDBFDF91CF911F910F91FF90A1
S11306B0EF90DF90CF90BF90AF909F908F907F90FE
S11306C06F905F904F903F902F9008952AE0622F93
S11306D00E94871B392F0E94871B20E1929FC00133
S11306E01124832B0895982F92959F708F702AE080
S11306F0929F800D11240895CF93DF93D82FC62F96
S113070068E670E085E594E00E94350B6D2F85E581
S113071094E00E94DA0A6C2F85E594E00E94DA0ADC
S113072085E594E0DF91CF910C94B40BCF93DF93E4
S1130730C4EAD3E06F83788789879A870E94AF01E0
S113074088810E946603682F80E00E947C0389816F
S11307500E946603682F81E00E947C038A810E94C4
S11307606603682F82E00E947C038B810E946603EB
S1130770682F84E00E947C038C810E946603682FAA
S113078085E00E947C038D81805D0E946603682F52
S113079086E0DF91CF910C947C03CF92DF92EF92AD
S11307A0FF92F82E68E670E085E594E00E94350B30
S11307B06F2D85E594E00E94DA0A85E594E00E94B5
S11307C0B40B0E940F096B017C010E940F09DC012C
S11307D0CB018C199D09AE09BF0984369105A10589
S11307E0B10578F441E050E068E670E085E594E016
S11307F00E94B10B813049F785E594E00E94530AC9
S113080001C080E0FF90EF90DF90CF900895CF93E8
S11308108FE00E94CD03C82F80FF04C060E08FE00A
S11308200E947C03C1FF04C060E08FE00E947C034F
S113083080E00E94CD030E9473038093A40381E0AF
S11308400E94CD030E9473038093A50382E00E945B
S1130850CD030E9473038093A60384E00E94CD031A
S11308600E9473038093A70385E00E94CD030E9436
S113087073038093A80386E00E94CD030E94730350
S113088090E08053984F9093AA038093A9030E9409
S113089053026091AB037091AC038091AD039091CE
S11308A0AE03CF910895EF92FF920F931F93CF93CE
S11308B0DF93623030F5C62FD0E0FE01E055FE4FE5
S11308C0F080082F10E08F2D0E94CD03B8010C2E6C
S11308D002C0759567950A94E2F77695762F662798
S11308E077956795682BEE24E394EF0C8F2D0E9487
S11308F07C032196FE2CC430D10529F780E090E0DA
S113090002C08FEF9FEFDF91CF911F910F91FF9066
S1130910EF900895EF92FF921F93CF93DF93EC0132
S1130920EA81FB81309759F181810E946603682F27
S113093087E00E947C03EA81FB8182810E94660336
S1130940682F88E00E947C03EA81FB8183810E94F6
S11309506603682F89E00E947C03EA81FB8184811D
S11309600E946603682F8AE00E947C03EA81FB816F
S113097060E080810E9453047C0161E003C060E078
S1130980E12CF12CEC81FD81309721F1162F1260BE
S113099082810E946603682F8BE00E947C03EC81B5
S11309A0FD8183810E946603682F8CE00E947C0392
S11309B0EC81FD8184810E946603682F8DE00E9492
S11309C07C03EC81FD8161E080810E945304E82A6C
S11309D0F92A03C0662319F011E0612F64608EE0E8
S11309E00E947C03C701DF91CF911F91FF90EF908C
S11309F00895FC01918D228D892F90E0805C9F4F9A
S1130A00821B91098F7399270895FC01918D828D22
S1130A10981731F0828DE80FF11D858D90E00895CF
S1130A208FEF9FEF0895FC01918D828D981761F0EF
S1130A30828DDF01A80FB11D5D968C91928D9F5F11
S1130A409F73928F90E008958FEF9FEF0895FC01BC
S1130A50538D448D252F30E0842F90E0821B930B1F
S1130A60541710F0CF96089501970895FC01848DD2
S1130A70DF01A80FB11DA35ABF4F2C91848D90E0C4
S1130A8001968F739927848FA689B7892C93A0899F
S1130A90B1898C91837080648C93938D848D981329
S1130AA006C00288F389E02D80818F7D80830895BC
S1130AB0EF92FF920F931F93CF93DF93EC0181E0AA
S1130AC0888F9B8D8C8D981305C0E889F989808166
S1130AD085FD26C0F62E0B8D10E00F5F1F4F0F73A0
S1130AE01127E02E8C8DE8120CC00FB607FCFACF4C
S1130AF0E889F989808185FFF5CFCE010E9436050A
S1130B00F1CF8B8DFE01E80FF11DE35AFF4FF08208
S1130B109FB7F8940B8FEA89FB89808180620AC0B1
S1130B209FB7F894EE89FF896083E889F989808109
S1130B308370806480839FBF81E090E0DF91CF91D8
S1130B401F910F91FF90EF900895CF93DF93EC01E5
S1130B50888D8823C9F0EA89FB89808185FD05C0D9
S1130B60A889B9898C9186FD0FC00FB607FCF5CF13
S1130B70808185FFF2CFA889B9898C9185FFEDCF5B
S1130B80CE010E943605E7CFDF91CF910895CF9231
S1130B90DF92EF92FF921F93CF93DF93EC016A01F0
S1130BA07B01122FE889F98982E080834115514E37
S1130BB061057105B1F060E079E08DE390E0A70193
S1130BC096010E94BB1BDA01C9010197A109B10971
S1130BD0B695A795979587959C01211580E13807CF
S1130BE0A8F0E889F989108260E874E88EE190E061
S1130BF0A70196010E94BB1BDA01C9010197A10953
S1130C00B109B695A795979587959C01EC85FD85C7
S1130C103083EE85FF852083188EEC89FD8910834F
S1130C20EA89FB89808180618083EA89FB898081EC
S1130C3088608083EA89FB89808180688083EA896F
S1130C40FB8980818F7D8083DF91CF911F91FF90FD
S1130C50EF90DF90CF90089580E090E008951F9288
S1130C600F920FB60F9211242F938F939F93EF93AC
S1130C70FF93E091BF03F091C0038081E091C5032D
S1130C80F091C60382FD12C090818091C8038F5FEA
S1130C908F732091C903821751F0E091C803F0E0EB
S1130CA0E155FC4F958F8093C80301C08081FF916B
S1130CB0EF919F918F912F910F900FBE0F901F90E6
S1130CC018951F920F920FB60F9211242F933F93F2
S1130CD04F935F936F937F938F939F93AF93BF9340
S1130CE0EF93FF938FEA93E00E943605FF91EF9113
S1130CF0BF91AF919F918F917F916F915F914F9130
S1130D003F912F910F900FBE0F901F901895EFEA0F
S1130D10F3E01382128288EE93E0A0E0B0E08483D3
S1130D209583A683B78382EC91E09183808385ECDD
S1130D3090E09587848784EC90E09787868780ECA1
S1130D4090E0918B808B81EC90E0938B828B82EC92
S1130D5090E0958B848B86EC90E0978B868B118E3C
S1130D60128E138E148E0895CF92DF92EF92FF921B
S1130D700F931F93CF93DF936C017A018B01C0E033
S1130D80D0E0CE15DF0581F0D8016D918D01D6013B
S1130D90ED91FC910190F081E02DC6010995892B1C
S1130DA011F02196EECF7E01C701DF91CF911F9103
S1130DB00F91FF90EF90DF90CF900895611571052A
S1130DC079F0FB0101900020E9F73197AF01461B50
S1130DD0570BDC01ED91FC910280F381E02D099425
S1130DE080E090E008950C94DE06DC01ED91FC9126
S1130DF00190F081E02D099460ED71E00C94DE0621
S1130E000F931F93CF93DF93EC010E94DE068C01B6
S1130E10CE010E94FC06800F911FDF91CF911F919C
S1130E200F9108958F929F92AF92BF92EF92FF928B
S1130E300F931F93CF93DF93CDB7DEB7A1970FB670
S1130E40F894DEBF0FBECDBF7C01FA01CB0119A21D
S1130E50223008F42AE08E010F5D1F4F822E912C60
S1130E60A12CB12CBF01A50194010E94BB1BF90167
S1130E70CA01015011096A3010F4605D01C0695C57
S1130E80D8016C93232B242B252B61F7B801C701C0
S1130E900E94DE06A1960FB6F894DEBF0FBECDBF4A
S1130EA0DF91CF911F910F91FF90EF90BF90AF9082
S1130EB09F908F9008952115310541F4DC01ED9147
S1130EC0FC910190F081E02D642F09940C94120799
S1130ED09A01462F50E060E070E00C945B070F939A
S1130EE01F93CF93DF93EC010E9468078C01CE011E
S1130EF00E94FC06800F911FDF91CF911F910F91EB
S1130F0008959A01AB0160E070E00C945B07CF9206
S1130F10DF92EF92FF920F931F93CF93DF932115EC
S1130F20310581F4DC01ED91FC910190F081E02D1B
S1130F30642FDF91CF911F910F91FF90EF90DF907D
S1130F40CF9009942A30310501F577FF1DC06A015D
S1130F507B01EC016DE20E94F5068C0144275527C4
S1130F60BA014C195D096E097F092AE0CE010E947D
S1130F701207800F911FDF91CF911F910F91FF9066
S1130F80EF90DF90CF9008952AE0DF91CF911F91E9
S1130F900F91FF90EF90DF90CF900C9412079A017D
S1130FA0AB01770F660B770B0C9487077F928F92B8
S1130FB09F92AF92BF92CF92DF92EF92FF920F93E4
S1130FC01F93CF93DF938C016A017B01722E9A01E8
S1130FD0AB01C701B6010E94821B882319F063ED9F
S1130FE071E027C046015701E894B7F82FEF3FEFAF
S1130FF04FE75FE7C501B4010E94821B81110DC058
S11310002FEF3FEF4FE75FE7C501B4010E94B81926
S113101018161CF467ED71E00CC02FEF3FEF4FE79B
S11310205FE4C701B6010E94101B181694F46BED1F
S113103071E0C801DF91CF911F910F91FF90EF9064
S1131040DF90CF90BF90AF909F908F907F900C9443
S1131050DE062FEF3FEF4FE75FECC701B6010E94BA
S1131060B81987FDE4CF20E030E0A901C701B6013B
S11310700E94B81987FF0AC06DE2C8010E94F506F4
S1131080EC01F7FAF094F7F8F09402C0C0E0D0E075
S1131090B12C60E070E080E09FE37B1441F020E03D
S11310A030E040E251E40E94BD19B394F6CFA701A9
S11310B096010E944C196B017C010E942F1A4B016E
S11310C05C012AE0AB01BC01C8010E941207C80FF1
S11310D0D91F7720B9F1C501B4010E945E1A9B01A2
S11310E0AC01C701B6010E944B196B017C016EE291
S11310F0C8010E94F506C80FD91F20E030E040E285
S113110051E4C701B6010E94151B4B015C010E940A
S11311102F1A6B017C014AE050E0C8010E9481074C
S1131120C80FD91FB60180E090E00E945E1A9B01AF
S1131130AC01C501B4010E944B196B017C017A9486
S11311407110DBCFCE01DF91CF911F910F91FF90F2
S1131150EF90DF90CF90BF90AF909F908F907F9053
S113116008950C94D6070F931F93CF93DF93EC014C
S11311700E94D6078C01CE010E94FC06800F911FAD
S1131180DF91CF911F910F9108951F920F920FB687
S11311900F9211242F933F938F939F93AF93BF93F9
S11311A080914D0490914E04A0914F04B09150044D
S11311B030914C0423E0230F2D3720F40196A11D18
S11311C0B11D05C026E8230F0296A11DB11D209371
S11311D04C0480934D0490934E04A0934F04B09319
S11311E050048091510490915204A0915304B09101
S11311F054040196A11DB11D80935104909352048F
S1131200A0935304B0935404BF91AF919F918F91D5
S11312103F912F910F900FBE0F901F9018952FB7ED
S1131220F89460914D0470914E0480914F04909114
S113123050042FBF08953FB7F894809151049091C2
S11312405204A0915304B091540426B5A89B05C040
S11312502F3F19F00196A11DB11D3FBFBA2FA92F31
S1131260982F8827820F911DA11DB11DBC01CD01AE
S113127042E0660F771F881F991F4A95D1F708959A
S11312808F929F92AF92BF92CF92DF92EF92FF9292
S11312906B017C010E941B094B015C01C114D10448
S11312A0E104F10401F10E94B5130E941B09DC0161
S11312B0CB0188199909AA09BB09883E9340A10565
S11312C0B10560F321E0C21AD108E108F10888EE03
S11312D0880E83E0981EA11CB11CC114D104E10442
S11312E0F10419F7DBCFFF90EF90DF90CF90BF9020
S11312F0AF909F908F900895789484B5826084BD58
S113130084B5816084BD85B5826085BD85B5816005
S113131085BDEEE6F0E0808181608083E1E8F0E065
S11313201082808182608083808181608083E0E894
S1131330F0E0808181608083E1EBF0E08081846073
S11313408083E0EBF0E0808181608083EAE7F0E075
S113135080818460808380818260808380818160D9
S113136080838081806880831092C10008958330D7
S113137081F028F4813099F08230A1F0089587300B
S1131380A9F08830B9F08430D1F4809180008F7D49
S113139003C0809180008F7780938000089584B586
S11313A08F7702C084B58F7D84BD08958091B0008D
S11313B08F7703C08091B0008F7D8093B000089533
S11313C0CF93DF9390E0FC01E458FF4F2491FC019C
S11313D0E057FF4F8491882361F190E0880F991FB3
S11313E0FC01E255FF4FC591D491FC01EC55FF4F30
S11313F0A591B491611109C09FB7F8948881209593
S113140082238883EC912E230BC0623061F49FB752
S1131410F8948881322F309583238883EC912E2B86
S11314202C939FBF06C08FB7F894E8812E2B288396
S11314308FBFDF91CF9108951F93CF93DF93282F10
S113144030E0F901E859FF4F8491F901E458FF4F66
S1131450D491F901E057FF4FC491CC23C1F0162F6A
S113146081110E94B709EC2FF0E0EE0FFF1FEC553D
S1131470FF4FA591B4919FB7F894111104C08C91BA
S1131480D095D82302C0EC91DE2BDC939FBFDF9173
S1131490CF911F9108958091890490E020918A044E
S11314A0821B9109089590918A0480918904981768
S11314B050F4E92FF0E0E557FB4F208130E09F5FC7
S11314C090938A0402C02FEF3FEFC9010895E09181
S11314D08A0480918904E81730F4F0E0E557FB4F63
S11314E0808190E008958FEF9FEF08950895CF9342
S11314F0DF93EC01E0916104F09162043097F1F024
S113150090918A04809189049817C0F090E0292F63
S113151030E02617370754F4DE01A20FB31F4C91B5
S1131520D901A557BB4F4C939F5FF1CF10928A040A
S113153060938904CB01DF91CF910994DF91CF911E
S11315400895E0916304F0916404309729F01092B7
S113155067041092660409940895CF92DF92EF9283
S1131560FF920F931F93CF93DF937C01CB018A01EA
S113157020916504222389F0EB016B01C40ED51E72
S1131580CC15DD0569F06991D701ED91FC910190CD
S1131590F081E02DC7010995F3CF642F0E94BF1598
S11315A0C801DF91CF911F910F91FF90EF90DF90D1
S11315B0CF900895CF93DF931F92CDB7DEB76983A1
S11315C0209165042223D1F020916604203240F05A
S11315D021E030E0FC013383228380E090E015C0F9
S11315E080916704E82FF0E0E859FB4F99819083DC
S11315F08F5F809367048093660405C061E0CE0129
S113160001960E94BF1581E090E00F90DF91CF9189
S11316100895FC011382128288EE93E0A0E0B0E00A
S113162084839583A683B78383EE91E0918380833B
S1131630089510928A0410928904109267041092FB
S113164066040E94941581EA9AE00E94EC1587E7EB
S11316509AE00C94E71581E0809365046093880414
S1131660109267041092660408950C942B0B0F9348
S1131670062F21E04091660468E674E080918804B6
S11316800E94F61610926704109266041092650484
S11316900F9108954F925F926F927F92AF92BF9293
S11316A0CF92EF92FF920F931F93CF93DF935C013E
S11316B0F62ED42F28013901EE2021F10E942B0BA4
S11316C0CE2DC43008F0C3E0C150C0F028E0C29F62
S11316D0C0011124A301920104C056954795379582
S11316E027958A95D2F7CA01B901D501ED91FC91EC
S11316F00190F081E02DC5010995E6CF60E0C501B8
S11317000E94370B4D2FD13208F040E22C2D6BE8AC
S113171074E08F2D0E940D1610928A048093890420
S1131720DF91CF911F910F91FF90EF90CF90BF90D9
S1131730AF907F906F905F904F900895CF92EF920B
S11317400F931F93C22EE12C00E010E098010E9439
S11317504A0B1F910F91EF90CF90089521E00C94C4
S11317609E0B21E00C949E0B61E00C94370B85E5F5
S113177094E00C94090BEF92FF920F931F93CF9375
S1131780DF938C017B01C42F69E172E08FEA93E05F
S11317900E94000761EF71E08FEA93E00E94F30674
S11317A0B8018FEA93E00E9400076EEF71E08FEAC0
S11317B093E00E94F3064AE050E06C2F8FEA93E036
S11317C00E946F078701D0E0C8018E199F098C170A
S11317D09D0784F4F80161918F014AE050E08FEA9B
S11317E093E00E9468076EE072E08FEA93E00E9443
S11317F0F306EACF8FEA93E0DF91CF911F910F9127
S1131800FF90EF900C94FC0661E172E08FEA93E0A4
S11318100E94000780E090E0089564E272E08FEA9D
S113182093E00E9400070C94040C6FED72E08FEAC1
S113183093E00E9400076FE070E085ED94E00E9461
S1131840901380E090E008956EEC72E08FEA93E0EC
S11318500E9400076EE070E089EC94E00E949F1201
S113186080E090E008952F923F924F925F926F92A2
S11318707F928F929F92AF92BF92CF92DF92EF921C
S1131880FF920F931F93CF93DF93CDB7DEB76E977D
S11318900FB6F894DEBF0FBECDBF7C016B0161ECC7
S11318A072E08FEA93E00E9400078E010F5F1F4FE2
S11318B088E1F80111928A95E9F7F701E080F18057
S11318C0C7010E94831264E0C7010E94C31081FF14
S11318D0FACF46E0B801C7010E9426118EE1282EF6
S11318E083E0382E96E0A92E93E0B92E7601C12C20
S11318F0D12C4E01FDE18F0E911C1E8F0D8FF10135
S113190021913191419151911F01F50141905190E3
S1131910619071905F01F801619171918191919150
S11319208F010E944B19A30192010E94151B698F1C
S11319307A8F8B8F9C8F60E372E08FEA93E00E9432
S1131940F3064AE050E0B6018FEA93E00E94CF0725
S11319506FE072E08FEA93E00E94F306ED8DFE8D56
S1131960408151816281738122E030E08FEA93E00B
S11319700E94B1086FE072E08FEA93E00E94F306E0
S1131980FE017996D701E815F90519F081918D9337
S1131990FACFFFEFCF1ADF0A84E0E80EF11CE6E08D
S11319A0CE16D10409F0A9CF8FEA93E00E94FC0679
S11319B088E16E960FB6F894DEBF0FBECDBFDF91FF
S11319C0CF911F910F91FF90EF90DF90CF90BF9038
S11319D0AF909F908F907F906F905F904F903F90CB
S11319E02F9008958F929F92AF92BF92CF92DF92E1
S11319F0EF92FF920F931F93CF93DF93CDB7DEB790
S1131A0028970FB6F894DEBF0FBECDBF7C018B01C3
S1131A1063EB72E08FEA93E00E940007F701E08035
S1131A20F180C7010E9452134B015C016D837E83D8
S1131A308F839887C7010E946D136B017C016983B2
S1131A407A838B839C8365E372E08FEA93E00E9440
S1131A50F30622E030E0B501A4018FEA93E00E948E
S1131A60B1086CE372E08FEA93E00E94F30622E08F
S1131A7030E0B701A6018FEA93E00E94B308DE01CB
S1131A801596B801CE010196AE01475F5F4FA417CA
S1131A90B50751F02D91FB012193BF01FC01219168
S1131AA0CF01FB012383F3CF88E028960FB6F89487
S1131AB0DEBF0FBECDBFDF91CF911F910F91FF907D
S1131AC0EF90DF90CF90BF90AF909F908F9008954C
S1131AD0CF92DF92EF92FF920F931F93CF93DF93F6
S1131AE000D000D0CDB7DEB77C018B0167EA72E08D
S1131AF08FEA93E00E940007F701808191810E94A0
S1131B0094136B017C0169837A838B839C8362E4E5
S1131B1072E08FEA93E00E94F30622E030E0B7011E
S1131B20A6018FEA93E00E94B10861ED71E08FEAAB
S1131B3093E00E94F306DE011196F8019E012B5FEB
S1131B403F4FA217B30719F08D918193FACF84E028
S1131B500F900F900F900F90DF91CF911F910F91E5
S1131B60FF90EF90DF90CF900895CF92DF92EF92A5
S1131B70FF920F931F93CF93DF9300D000D0CDB784
S1131B80DEB77C018B0166E972E08FEA93E00E9484
S1131B900007F701808191810E94A3126B017C01EF
S1131BA069837A838B839C8360E572E08FEA93E098
S1131BB00E94F30622E030E0B701A6018FEA93E029
S1131BC00E94B10861ED71E08FEA93E00E94F30690
S1131BD0DE011196F8019E012B5F3F4FA217B30758
S1131BE019F08D918193FACF84E00F900F900F90AC
S1131BF00F90DF91CF911F910F91FF90EF90DF90A5
S1131C00CF90089569EF72E08FEA93E00E94000795
S1131C1065E574E082EE94E00E942812811115C0FB
S1131C206CE572E08FEA93E00E94F30669EF72E0DC
S1131C308FEA93E00E94F30665E672E08FEA93E090
S1131C400E94000782E090E0089580E090E008950B
S1131C506BEE72E08FEA93E00E94000760E481EE8D
S1131C6094E00E94DF1241E061E081EE94E00E9482
S1131C70071381EE94E00E94821380359041A9F00D
S1131C806CE572E08FEA93E00E94F3066BEE72E07B
S1131C908FEA93E00E94F30665E672E08FEA93E030
S1131CA00E94000784E090E0089580E090E00895A9
S1131CB00F931F93CF93DF9369E872E08FEA93E069
S1131CC00E940007CBEAD4E000E010E0888199810B
S1131CD0892B41F0EA81FB81CE010995082B192B50
S1131CE02696F4CFC801DF91CF911F910F910895EB
S1131CF0EF92FF920F931F93CF93DF937C016CE7D6
S1131D0072E08FEA93E00E940007CBEAD4E000E09F
S1131D1010E088819981892B59F0B701600F711FF8
S1131D20EC81FD81CE010995080F111D2696F1CF96
S1131D30C801DF91CF911F910F91FF90EF9008950B
S1131D40E2EEF4E01182108289E4828381EE94E071
S1131D500E94DE122EEA37E441E350E46EE070E0C4
S1131D6085ED94E00E9485136EE070E089EC94E0C8
S1131D700E94981286E0E8E1F1E0ABEAB4E0019059
S1131D800D928A95E1F786E0E2E1F1E0A1EBB4E09F
S1131D9001900D928A95E1F786E0ECE0F1E0A7EB83
S1131DA0B4E001900D928A95E1F786E0E6E0F1E077
S1131DB0ADEBB4E001900D928A95E1F7089589ECBA
S1131DC094E00E949E1285ED94E00E948F1382EEAF
S1131DD094E00C945B10FF920F931F93CF93DF93C7
S1131DE0CDB7DEB760970FB6F894DEBF0FBECDBF98
S1131DF0F82E66E373E08FEA93E00E940007FE0189
S1131E00319686E0DF011D928A95E9F78EE08C8792
S1131E109EE19D879E878CE08F872FE02F83998793
S1131E208A87CE010C969C838B8305979E838D8332
S1131E30CF010E948A048C0162E083E00E94E009E1
S1131E40FF2031F064EE76E583E592E60E94960386
S1131E50C80160960FB6F894DEBF0FBECDBFDF9108
S1131E60CF911F910F91FF90089580E00C94EB0E99
S1131E7081E08093F10483B78E7F83BF81E00C946B
S1131E80DB1362E473E08FEA93E00E940007809121
S1131E90E904811107C080917A008093E80481E00D
S1131EA08093E90410927A0083B7817F846083BFB2
S1131EB083B7816083BF80E685BF80E485BFF894E3
S1131EC040E050E068E37FE081E00E94BB13789437
S1131ED08FEA93E00E94A50588958091E804809399
S1131EE07A000895D82F192F67E973E08FEA93E0F9
S1131EF00E940007D0FD0AC0D3FD0AC0D4FD0AC069
S1131F00D2FD0AC0D1FF0AC0C5E009C0C1E007C0C4
S1131F10C2E005C0C3E003C0C4E001C0C0E06DE49A
S1131F2073E08FEA93E00E94F3064AE050E06D2FDD
S1131F30712F8FEA93E00E94CF076CE573E08FEA7C
S1131F4093E00E94F3064AE050E06C2F8FEA93E09E
S1131F500E946F07D0E000E010E00C171D07BCF4EE
S1131F6061E082E00E941C0A68EC70E080E090E08E
S1131F700E94400960E082E00E941C0A68EC70E064
S1131F8080E090E00E9440090F5F1F4FE6CF60E9B8
S1131F9071E080E090E00E944009DDCF63E873E0E7
S1131FA08FEA93E00E94000761E082E00E94E0096A
S1131FB0F89410928000E1E8F0E080818F7E8083C5
S1131FC080818860808380818460808380818D7F2C
S1131FD080838081816080831092850010928400C8
S1131FE080ED93E09093890080938800EFE6F0E021
S1131FF0808182608083789408956CE673E08FEA30
S113200093E00E940007EFE6F0E080818D7F8083FB
S113201060E082E00E941C0A81E090E09093F30467
S11320208093F20408951F920F920FB60F92112419
S11320302F933F934F935F936F937F938F939F93CC
S1132040AF93BF93EF93FF938091F2049091F304C5
S1132050892BC1F48091F4049091F504892B29F023
S11320601092F5041092F40406C081E090E090937D
S1132070F5048093F4046091F4047091F50482E013
S11320800E941C0AFF91EF91BF91AF919F918F9194
S11320907F916F915F914F913F912F910F900FBE60
S11320A00F901F901895FC0180818E7F0895FC018C
S11320B080818F730895FC0180819181009711F0D4
S11320C00C94B8130895EF920F931F93CF93DF935B
S11320D01F92CDB7DEB76983022F10E0E12C9A017D
S11320E041E050E0BE016F5F7F4FFC018081918130
S11320F00E9462150F90DF91CF911F910F91EF9085
S11321000895CF93DF931F92CDB7DEB721E0AE01E0
S11321104F5F5F4F0E94631089810F90DF91CF91D1
S11321200895EF92FF920F931F93CF93DF931F9223
S1132130CDB7DEB7362FBA013983422F50E0EE24F3
S1132140E394F12C8E010F5F1F4F21E0FC0180818D
S113215091810E9497140F90DF91CF911F910F915D
S1132160FF90EF900895CF93DF931F92CDB7DEB722
S1132170498321E0AE014F5F5F4F0E9491100F90A1
S1132180DF91CF910895FF920F931F93CF93DF9325
S113219000D0CDB7DEB78C01F62E60E0C8010E94F6
S11321A081108A838A8181FDF8CF4F2D61E0C801B7
S11321B00E94B31060E0C8010E9481108A838A8162
S11321C080FFF8CF62E0C8010E9481108983898171
S11321D00F900F90DF91CF911F910F91FF90089571
S11321E0CF92DF92EF92FF920F931F93CF93DF93DF
S11321F0EC01162F0E94C310082F61E0610FCE017D
S11322000E94C310C82ED12CE12CF12C7601DD24C0
S1132210CC24F02A62E0610FCE010E94C310082F83
S113222063E0610FCE010E94C310A7019601282B21
S1132230DA01C901BC01CD01702BDF91CF911F914F
S11322400F91FF90EF90DF90CF900895CF92DF929F
S1132250EF92FF920F931F93CF93DF938C017B0137
S1132260C0E0D0E0C42ED12CCC15DD050CF04EC05E
S1132270C230D10561F184F42097F9F0C130D10561
S113228009F042C068E1C8010E94F010F7016483BC
S113229075838683978338C0C430D10561F10CF10E
S11322A0C530D10589F568E2C8010E94F010F70134
S11322B0648B758B868B978B27C064E1C8010E9461
S11322C0F010F70160837183828393831DC06CE1F6
S11322D0C8010E94F010F701608771878287938795
S11322E013C060E2C8010E94F010F701648775878B
S11322F08687978709C064E2C8010E94F010F7013D
S1132300608B718B828B938B2196AECFDF91CF91B3
S11323101F910F91FF90EF90DF90CF900895EF926F
S1132320FF920F931F93CF93DF931F92CDB7DEB726
S11323308C01F62EE42E60E0C8010E94811089838E
S1132340898181FDF8CF4F2D406861E0C8010E946A
S1132350B31060E0C8010E9481108983898181FDE6
S1132360F8CF4E2D61E0C8010E94B3100F90DF91A9
S1132370CF911F910F91FF90EF900895CF93DF932A
S1132380EC018D81877F8D83CE0105960E945710C5
S1132390482F67E0CE01DF91CF910C948F11CF933A
S11323A0DF93EC016370862F8295807F6D816F7C53
S11323B0682B6D83CE0105960E945710482F67E065
S11323C0CE01DF91CF910C948F11CF93DF93EC0169
S11323D06370862F880F880F6B81637F682B6B83F4
S11323E0CE0103960E945310482F64E0CE01DF9182
S11323F0CF910C948F11CF93DF93EC016370862FF0
S11324008295807F6B816F7C682B6B83CE010396F2
S11324100E945310482F64E0CE01DF91CF910C94B9
S11324208F11462FFC01648365E00C948F11CF93C8
S1132430DF93EC018B8180648B83CE0103960E9431
S11324405310482F64E0CE01DF91CF910C948F118B
S1132450EF92FF920F931F93CF93DF93EC017B01D5
S113246088819981009711F00E94B81386E090E06A
S11324700E94B6138C01A7016A810E945814198323
S1132480088361E0C8010E947F14182F811102C0E3
S113249010E031C08B8180688B83CE0103960E944B
S11324A05310482F64E0CE010E948F118B818F77E7
S11324B08B8368EE73E080E090E00E94400960E066
S11324C0CE010E94C310803419F7CE010E94171266
S11324D060E0CE010E94CF11CE010E94BE1162E3E2
S11324E0CE010E94111263E0CE010E94FB1163E051
S11324F0CE010E94E511812FDF91CF911F910F91A1
S1132500FF90EF900895CF93DF93EC018B818D7F43
S11325108B83CE0103960E945310482F64E0CE01B2
S11325200E948F1163E0CE01DF91CF910C94E511ED
S1132530FC01758364831782168208950895FC0153
S1132540758364830895CF92DF92EF92FF92CF93C5
S1132550DF93EC018C810E943B149F838E83BC012A
S1132560990F880B990B0E94601A2BE436E74CE212
S11325705DE30E94151B22E338E345E750E40E9423
S11325804B196B017C0120E030E0A9010E94B819CD
S113259087FD05C0C886D986EA86FB8604C01886EE
S11325A019861A861B86688579858A859B85DF91BD
S11325B0CF91FF90EF90DF90CF9008950895FC01A4
S11325C0608385E594E00C94190BCF93C62FFC012E
S11325D0608185E594E00E942B0B62E085E594E040
S11325E00E94DA0A6C2F85E594E00E94DA0A60E022
S11325F085E594E00E94DA0A85E594E00E94B40B34
S11326006AE070E080E090E0CF910C944009262FBE
S113261060E0413011F06B7F01C06460222329F037
S1132620213029F46C7F616002C06C7F62600E947B
S1132630E5120895FF920F931F93CF93DF938C01BC
S1132640F62EFC01608185E594E00E942B0B6F2D32
S113265085E594E00E94DA0A85E594E00E94B40BD3
S113266069E070E080E090E00E94400942E0F801F7
S1132670608185E594E00E94AE0B85E594E00E94BC
S1132680530A182F85E594E00E94530AD12FF0E0F5
S1132690CF2F9E01282BC901DF91CF911F910F915C
S11326A0FF90089560E00E941A13BC0180E090E05E
S11326B00E945E1A20E030E040E857E30E94151BB8
S11326C020E030E045E253E40E94151B20E030E0B6
S11326D040E252E40E944B19089561E00E941A13EB
S11326E0BC0180E090E00E945E1A20E030E040E807
S11326F057E30E94151B20E030E048EC52E40E94AE
S1132700151B08956FEF0C941A13FC012083318379
S113271042835383758364831782168208950895D0
S1132720FC01758364830895CF93DF93EC018C815E
S11327300E943B149F838E83BC01990F880B990BD5
S11327400E94601A20E030EC49E054E40E944B19E6
S11327502BE633E54BE15EE30E94151B688779871E
S11327608A879B87DF91CF91089508950C940E1C5E
S11327700C94A61C08958230E8F4E82FF0E0EE0FE4
S1132780FF1FE25EFE4F71836083813041F08091D0
S113279069008C7F482B40936900E89A08958091E2
S11327A06900837F440F551F440F551F482B4093E6
S11327B06900E99A0895823078F4813011F0E8983C
S11327C001C0E998E82FF0E0EE0FFF1FE25EFE4F34
S11327D08AEB93E19183808308951F920F920FB641
S11327E00F9211242F933F934F935F936F937F9393
S11327F08F939F93AF93BF93EF93FF93E0911E0149
S1132800F0911F010995FF91EF91BF91AF919F91B5
S11328108F917F916F915F914F913F912F910F9085
S11328200FBE0F901F9018951F920F920FB60F9224
S113283011242F933F934F935F936F937F938F93C1
S11328409F93AF93BF93EF93FF93E0912001F09197
S113285021010995FF91EF91BF91AF919F918F91C4
S11328607F916F915F914F913F912F910F900FBE88
S11328700F901F9018958E3008F08E5020912201F1
S113288090E4299F900111248770822B80937C000F
S113289080917A00806480937A0080917A0086FD2A
S11328A0FCCF809178002091790090E0922B0895DC
S11328B0FC01608352834183138280E290E095831C
S11328C084830895CF93DF93EC018B81811107C03A
S11328D061E0CE010E947F14982F882361F0688103
S11328E089819A810E942B0B89819A810E94B40B61
S11328F091E0811190E0892FDF91CF9108951F938A
S1132900CF93DF93EC01162F89819A810E94190BD2
S113291081E08B83112331F0CE01DF91CF911F91A0
S11329200C94621481E0DF91CF911F9108958F92EE
S11329309F92BF92CF92DF92EF92FF920F931F93D9
S1132940CF93DF93DA01AE0DBF1DEC01EC81FD8165
S1132950EA17FB07A0F1B22E6A014B01EC01688172
S113296089819A810E942B0BE114F10479F4898105
S11329709A81DC01ED91FC910280F381E02DA601A6
S1132980B4010995C816D906D1F412C00115110570
S113299071F389819A81DC01ED91FC910280F381CC
S11329A0E02DA701B8010995E816F90641F4DFCF37
S11329B06B2D89819A810E94370B91E0811190E0FF
S11329C0892FDF91CF911F910F91FF90EF90DF90AE
S11329D0CF90BF909F908F900895CF92DF92EF9207
S11329E0FF920F931F93CF93DF937C016B018A01B6
S11329F0DC016C9111968D919C9112970E949E0B13
S1132A0090E00817190791F4E6010C0D1D1DC0177D
S1132A10D10771F0F70181819281DC01ED91FC9184
S1132A200284F385E02D09958993F1CF80E001C0FC
S1132A3081E0DF91CF911F910F91FF90EF90DF9094
S1132A40CF9008959F92AF92BF92CF92DF92EF9270
S1132A50FF920F931F93CF93DF936C015B017A0175
S1132A60922EC0E0D0E0CE15DF05F8F4F6018481A3
S1132A70958187010C1B1D0B8017910708F48C01AD
S1132A80C701801B910BC817D90710F0292D01C06D
S1132A9020E0A801B5016C0F7D1FC6010E94ED1452
S1132AA0882321F0C00FD11FDECF81E0DF91CF91C9
S1132AB01F910F91FF90EF90DF90CF90BF90AF9058
S1132AC09F900895AF92BF92CF92DF92EF92FF92C0
S1132AD00F931F93CF93DF93EC01690158012E2DBF
S1132AE0E12CF12C00E010E00E949714882381F07F
S1132AF021E0A501B601CE01DF91CF911F910F9185
S1132B00FF90EF90DF90CF90BF90AF900C94221580
S1132B1080E0DF91CF911F910F91FF90EF90DF90B4
S1132B20CF90BF90AF9008951092690581E0809393
S1132B3067051092660561E082E10E941C0A61E06B
S1132B4083E10E941C0AE9EBF0E080818E7F8083A0
S1132B5080818D7F808388E48093B80085E48093AE
S1132B60BC000895ECEBF0E080818A7B808360E018
S1132B7082E10E941C0A60E083E10C941C0A4091EB
S1132B801805262F30E0240F311D21323105DCF4E5
S1132B90209169052430C9F4FC0180E090E0861797
S1132BA058F4309118052191DC01A65EBA4FA30FA9
S1132BB0B11D2C930196F3CF80911805680F609393
S1132BC0180580E0089581E0089582E008959093C7
S1132BD05D0580935C05089590935F0580935E0581
S1132BE0089585EC8093BC00109269050895CF93F5
S1132BF0DF9391E090936105882361F0C091B80060
S1132C00D091BA000E94B2150E949415D093BA00D4
S1132C10C093B800DF91CF9108954F925F926F9265
S1132C207F928F929F92AF92BF92CF92DF92EF9258
S1132C30FF920F931F93CF93DF93F82E162F072F36
S1132C40C42FE22E413208F0BEC00E941B094B0182
S1132C505C01D0916905DD2331F180916205909189
S1132C606305A0916405B0916505892B8A2B8B2B94
S1132C7081F30E941B0940906205509063056090A7
S1132C80640570906505DC01CB0188199909AA09CE
S1132C90BB09481659066A067B06D8F6809160057A
S1132CA00E94F71590C081E080936905E092670562
S1132CB09FEF9093F60410923B059C0F90933A0576
S1132CC080936805909168058F2D880F892B8093D8
S1132CD0680580916605813089F5109266050E9429
S1132CE01B096B017C01809168058093BB00809176
S1132CF0620590916305A0916405B0916505892BE7
S1132D008A2B8B2BA9F00E941B098090620590905E
S1132D106305A0906405B0906505DC01CB018C19B6
S1132D209D09AE09BF0988169906AA06BB0690F14B
S1132D308091BC0083FDD7CF85EC01C085EE8093E4
S1132D40BC000E941B096B017C01809169058130E4
S1132D5031F58091620590916305A0916405B0916D
S1132D606505892B8A2B8B2B81F30E941B0980908C
S1132D70620590906305A0906405B0906505DC0140
S1132D80CB018C199D09AE09BF0988169906AA06BC
S1132D90BB06D8F6809160050E94F71515C0809196
S1132DA03B058C1710F4C0913B05ACE3B5E0912FC3
S1132DB0E12FF02F8E2F891B8C1718F48D9181939E
S1132DC0F9CFDC2F01C0D0E08D2FDF91CF911F917F
S1132DD00F91FF90EF90DF90CF90BF90AF909F90B6
S1132DE08F907F906F905F904F9008954F925F9275
S1132DF06F927F928F929F92AF92BF92CF92DF9207
S1132E00EF92FF920F931F93CF93DF93413208F019
S1132E10C6C0122FF42ED72EE62ED82F0E941B09DF
S1132E204B015C01C0916905CC2311F180916205CD
S1132E3090916305A0916405B0916505892B8A2B57
S1132E408B2B81F30E941B0940906205509063050F
S1132E506090640570906505DC01CB0188199909BF
S1132E60AA09BB09481659066A067B06D8F683C028
S1132E7082E080936905009367058FEF8093F604E1
S1132E8010923B05F0923A059E2DACE3B5E0EE2D91
S1132E90FD2D8E2F891B8F1518F481918D93F9CFF9
S1132EA01092680590916805DD0FD92BD0936805C1
S1132EB080916605813089F5109266050E941B0990
S1132EC06B017C01809168058093BB008091620551
S1132ED090916305A0916405B0916505892B8A2BB7
S1132EE08B2BA9F00E941B098090620590906305CA
S1132EF0A0906405B0906505DC01CB018C199D0997
S1132F00AE09BF0988169906AA06BB06A0F18091EE
S1132F10BC0083FDD7CF85EC01C085EE8093BC0057
S1132F200E941B096B017C01112359F180916905F1
S1132F30823039F58091620590916305A091640512
S1132F40B0916505892B8A2B8B2B71F30E941B0989
S1132F508090620590906305A0906405B09065052B
S1132F60DC01CB018C199D09AE09BF0988169906AD
S1132F70AA06BB06C8F6809160050E94F715C5E055
S1132F8013C08091F6048F3F79F08091F60480326B
S1132F9041F08091F604803331F0C4E005C0C1E013
S1132FA003C0C2E001C0C3E08C2FDF91CF911F9119
S1132FB00F91FF90EF90DF90CF90BF90AF909F90D4
S1132FC08F907F906F905F904F90089585ED8093E0
S1132FD0BC008091620590916305A0916405B09155
S1132FE065050796A11DB11D23E0B695A795979594
S1132FF087952A95D1F72091BC0024FF1CC04091ED
S11330006205509163056091640570916505452BD7
S1133010462B472B81F30097A105B10541F025E329
S11330202A95F1F700000197A109B109E4CF809135
S113303060050C94F7151092690508951F920F927C
S11330400FB60F9211242F933F934F935F936F9377
S11330507F938F939F93AF93BF93EF93FF9380914D
S1133060B900887F803609F49EC078F5883209F467
S11330705DC090F4803109F456C038F4882309F413
S1133080F5C0883009F44FC0F5C0883109F44EC04A
S1133090803209F45FC0EEC0803409F46AC058F489
S11330A0803309F457C0883309F0E4C08093F604F0
S11330B00E94F115DFC0803509F44FC0883509F44A
S11330C05DC0883409F0D6C0D3C0883909F4C4C0BF
S11330D0A8F4883709F467C038F4883609F463C063
S11330E0803709F460C0C6C0883809F4B5C0803997
S11330F009F45FC0803809F0BDC05BC0803B09F4AF
S113310083C038F4803A09F466C0883A09F47CC074
S1133110B1C0803C09F4A4C0883C09F4A1C0883B38
S113312009F487C0A7C08091680510C090913B0541
S113313080913A05981770F5E0913B0581E08E0F78
S113314080933B05F0E0E45CFA4F80818093BB0000
S113315085EC83C08093F6048BC0E0913B0581E04D
S11331608E0F80933B058091BB00F0E0E45CFA4F46
S1133170808390913B0580913A056BC0E0913B05BB
S113318081E08E0F80933B058091BB00F0E0E45C0E
S1133190FA4F80838091670581116AC081E0809332
S11331A0660584EA5EC083E0809369051092F704A3
S11331B0CFCF8091F704803208F04EC0E091F7043D
S11331C081E08E0F8093F7048091BB00F0E0E8501B
S11331D0FB4F8083BDCF0E94F1158091F7048032AC
S11331E030F4E091F704F0E0E850FB4F1082609176
S11331F0F70470E0E0915C05F0915D0588EF94E0E0
S113320009951092F70436C084E080936905109202
S1133210190510921805E0915E05F0915F05099576
S113322080911805811105C081E0809318051092E2
S11332301A05E091190581E08E0F80931905F0E0DD
S1133240E65EFA4F80818093BB00909119058091CE
S11332501805981708F47CCF85E88093BC000AC051
S113326085EC8093BC001092690504C01092F604AA
S11332700E94E617FF91EF91BF91AF919F918F91BB
S11332807F916F915F914F913F912F910F900FBE5E
S11332900F901F9018955058BB27AA270E946319B6
S11332A00C94D61A0E94C81A38F00E94CF1A20F043
S11332B039F49F3F19F426F40C94C51A0EF4E095E2
S11332C0E7FB0C94BF1AE92F0E94E71A58F3BA17C8
S11332D0620773078407950720F079F4A6F50C9428
S11332E0091B0EF4E0950B2EBA2FA02D0B01B9018A
S11332F090010C01CA01A0011124FF27591B99F068
S1133300593F50F4503E68F11A16F040A22F232F73
S1133310342F4427585FF3CF469537952795A795C3
S1133320F0405395C9F77EF41F16BA0B620B730B6A
S1133330840BBAF09150A1F0FF0FBB1F661F771FDB
S1133340881FC2F70EC0BA0F621F731F841F48F490
S1133350879577956795B795F7959E3F08F0B0CF19
S11333609395880F08F09927EE0F97958795089500
S11333700E949B1A08F481E008950E94D1190C94CC
S1133380D61A0E94CF1A58F00E94C81A40F029F4A5
S11333905F3F29F00C94BF1A51110C940A1B0C9432
S11333A0C51A0E94E71A68F39923B1F3552391F3E0
S11333B0951B550BBB27AA2762177307840738F0A0
S11333C09F5F5F4F220F331F441FAA1FA9F335D0FD
S11333D00E2E3AF0E0E832D091505040E695001CB1
S11333E0CAF72BD0FE2F29D0660F771F881FBB1F6B
S11333F0261737074807AB07B0E809F0BB0B802D49
S1133400BF01FF2793585F4F3AF09E3F510578F074
S11334100C94BF1A0C940A1B5F3FE4F3983ED4F358
S1133420869577956795B795F7959F5FC9F7880F48
S1133430911D9695879597F90895E1E0660F771F9A
S1133440881FBB1F621773078407BA0720F0621B2B
S1133450730B840BBA0BEE1F88F7E09508950E9456
S1133460EF1A88F09F5798F0B92F9927B751B0F009
S1133470E1F0660F771F881F991F1AF0BA95C9F7F4
S113348014C0B13091F00E94091BB1E008950C946E
S1133490091B672F782F8827B85F39F0B93FCCF321
S11334A0869577956795B395D9F73EF49095809571
S11334B0709561957F4F8F4F9F4F0895E89409C091
S11334C097FB3EF490958095709561957F4F8F4F53
S11334D09F4F9923A9F0F92F96E9BB279395F69569
S11334E0879577956795B795F111F8CFFAF4BB0FE7
S11334F011F460FF1BC06F5F7F4F8F4F9F4F16C04B
S1133500882311F096E911C0772321F09EE8872FD4
S1133510762F05C0662371F096E8862F70E060E090
S11335202AF09A95660F771F881FDAF7880F969509
S1133530879597F90895990F0008550FAA0BE0E8AD
S1133540FEEF16161706E807F907C0F01216130661
S1133550E407F50798F0621B730B840B950B39F4A1
S11335600A2661F0232B242B252B21F408950A2607
S113357009F4A140A6958FEF811D811D089597F947
S11335809F6780E870E060E008959FEF80EC089505
S113359000240A941616170618060906089500242E
S11335A00A9412161306140605060895092E0394A8
S11335B0000C11F4882352F0BB0F40F4BF2B11F41C
S11335C060FF04C06F5F7F4F8F4F9F4F089557FD7B
S11335D09058440F551F59F05F3F71F04795880F7D
S11335E097FB991F61F09F3F79F087950895121614
S11335F013061406551FF2CF4695F1DF08C01616C0
S113360017061806991FF1CF869571056105089470
S11336100895E894BB2766277727CB0197F9089587
S11336200E949B1A08F48FEF08950E94281B0C94A3
S1133630D61A0E94C81A38F00E94CF1A20F0952397
S113364011F00C94BF1A0C94C51A11240C940A1B83
S11336500E94E71A70F3959FC1F3950F50E0551F30
S1133660629FF001729FBB27F00DB11D639FAA27D3
S1133670F00DB11DAA1F649F6627B00DA11D661F22
S1133680829F2227B00DA11D621F739FB00DA11D43
S1133690621F839FA00D611D221F749F3327A00DFD
S11336A0611D231F849F600D211D822F762F6A2F99
S11336B011249F5750409AF0F1F088234AF0EE0FFE
S11336C0FF1FBB1F661F771F881F91505040A9F72B
S11336D09E3F510580F00C94BF1A0C940A1B5F3F67
S11336E0E4F3983ED4F3869577956795B795F79567
S11336F0E7959F5FC1F7FE2B880F911D96958795DF
S113370097F908950E949B1A880B990B0895991BA9
S113371079E004C0991F961708F0961B881F7A95C4
S1133720C9F780950895AA1BBB1B51E107C0AA1FC6
S1133730BB1FA617B70710F0A61BB70B881F991F4E
S11337405A95A9F780959095BC01CD01089597FBF2
S1133750072E16F4009407D077FD09D00E94931B1E
S113376007FC05D03EF4909581959F4F0895709580
S113377061957F4F0895A1E21A2EAA1BBB1BFD0180
S11337800DC0AA1FBB1FEE1FFF1FA217B307E4073C
S1133790F50720F0A21BB30BE40BF50B661F771F94
S11337A0881F991F1A9469F7609570958095909574
S11337B09B01AC01BD01CF010895A29FB001B39F4D
S11337C0C001A39F700D811D1124911DB29F700D26
S11337D0811D1124911D08950E94DD1BA59F900D4C
S11337E0B49F900DA49F800D911D11240895B7FFDF
S11337F00C94EC1B0E94EC1B821B930B08952A0D66
S11338003B1D4C1D5D1D6E1D7F1D801F911F089566
S1133810EE0FFF1F0590F491E02D09940F931F9371
S1133820CF93DF938230910510F482E090E0E09131
S11338306C05F0916D0520E030E0A0E0B0E0309739
S113384019F1408151810281138148175907C8F049
S11338508417950769F4109731F012960C93129718
S113386013961C9327C000936C0510936D0522C01A
S11338702115310519F04217530718F49A01BD01B7
S1133880EF01DF01F801DBCF21153105F9F0281B29
S1133890390B2430310580F48A819B8161157105CF
S11338A021F0FB019383828304C090936D05809380
S11338B06C05FE01329644C0FE01E20FF31F8193B2
S11338C0919322503109398328833AC020916A05A3
S11338D030916B05232B41F42091020130910301B7
S11338E030936B0520936A0520910001309101010A
S11338F02115310541F42DB73EB740910401509193
S11339000501241B350BE0916A05F0916B05E21764
S1133910F307A0F42E1B3F0B2817390778F0AC01EE
S11339204E5F5F4F2417350748F04E0F5F1F5093CB
S11339306B0540936A058193919302C0E0E0F0E047
S1133940CF01DF91CF911F910F910895CF93DF9312
S1133950009709F481C0FC01329713821282A0916E
S11339606C05B0916D05109781F420813181820F2F
S1133970931F20916A0530916B052817390751F57B
S1133980F0936B05E0936A0567C0ED0120E030E039
S1133990CE17DF0740F44A815B819E014115510532
S11339A0F1F0EA01F5CFD383C28340815181840FC2
S11339B0951FC817D90759F488819981840F951FD9
S11339C00296918380838A819B81938382832115CC
S11339D0310529F4F0936D05E0936C053DC0E901D0
S11339E0FB83EA8349915991C40FD51FEC17FD0756
S11339F061F480819181840F951F0296E901998376
S1133A008883828193819B838A83E0E0F0E012962D
S1133A108D919C911397009719F0FD01DC01F7CF6C
S1133A208D919C9111979D012E5F3F4F820F931FA3
S1133A3020916A0530916B052817390769F430978E
S1133A4029F410926D0510926C0502C01382128243
S1133A50B0936B05A0936A05DF91CF91089510E0B0
S1133A60CFE5D0E004C0FE010E94081C2196C036B8
S10B3A70D107C9F7F894FFCF58
S1133A7800006E052000C904240CB50DD504150CEE
S1133A88680DE104280EF20CE204020E330CBA139A
S1133A98BA1301646174616C6F672E62696E0063A6
S1133AA86865636B73756D006465616374697661D9
S1133AB874655F696E737472756D656E7473006195
S1133AC8637469766174655F696E737472756D6524
S1133AD86E747300696E69745F696E737472756D60
S1133AE8656E747300646561637469766174655F97
S1133AF872656C61790061637469766174655F727B
S1133B08656C617900696E69745F72656C617900CE
S1133B18696E69745F7365747570006D61696E00B0
S1133B28070B1F1C1F1E1F1E1F1F1E1F1E1F00000A
S1133B3800005805B4062705A505F904130505056D
S1133B480D0A006E616E00696E66006F766600008D
S1133B58000000DA0AAD0A2C06760A4B0A530A67F3
S1133B680A46696C65206E616D65203A20004672CC
S1133B78616D65206C656E676874203A20002C09B5
S1133B880073645F696E697400736176655F667259
S1133B98616D6500696E69745F6D656D6F7279003A
S1133BA843483A200054656D703A20000952483A57
S1133BB8200054656D70285054313030293A200063
S1133BC85669742E2056656E743A20004552524F39
S1133BD852203A2000203A2053656E736F72207584
S1133BE86E726561636861626C652E0065786563F1
S1133BF85F6D6F64756C657300696E69745F6D6F72
S1133C0864756C6573005F616E656D6F6D65746571
S1133C18725F72656164005F70743130305F726521
S1133C286164005F686463313038305F7265616471
S1133C38005F6173373236325F72656164005F61B9
S1133C486E656D6F6D657465725F696E6974005F2A
S1133C5870743130305F696E6974005F6864633111
S1133C683038305F696E6974005F61733732363299
S1133C785F696E69740033337341AE47AF418FC2D5
S1133C88F540E17A094285EBB34166E68E428FC27C
S1133C9895407B14CE405C8F5240A4706D401F85C4
S1133CA83B403D0A8F406473333233315F696E6938
S1133CB87400676F746F5F736C656570004572722A
S1133CC86F722076616C7565203A200009426C6930
S1133CD86E6B20636F756E74203A20007374617480
S1133CE875735F626C696E6B65725F646973616238
S1133CF86C65007374617475735F626C696E6B656F
S1133D08725F696E6974007369676E616C5F65726E
S1073D18726F720050
S9030000FC
