:100000000C9460000C94AB130C94D2130C948800E5
:100010000C9488000C9488000C9488000C94880040
:100020000C9488000C9488000C9488000C94D10FD8
:100030000C9488000C9488000C9488000C94880020
:100040000C94A9080C9488000C9413060C94450693
:100050000C9488000C9488000C9488000C94880000
:100060000C94DC170C9488000000000800020100CA
:100070000003040700000000000000000102040863
:100080001020408001020408102001020408102002
:10009000040404040404040402020202020203032E
:1000A0000303030300000000250028002B000000CC
:1000B0000000240027002A006B069B0B830E9D0E78
:1000C00011241FBECFEFD8E0DEBFCDBF13E0A0E00C
:1000D000B1E0E4EFF9E302C005900D92A436B10758
:1000E000D9F725E0A4E6B3E001C01D92A832B2071B
:1000F000E1F710E0CFE5D0E004C02197FE010E94B7
:10010000C61BCC35D107C9F70E9423010C94ED1C06
:100110000C94000064E871E08FE693E00E94E4062E
:1001200061E085E00C94C40965E771E08FE693E037
:100130000E94E40660E085E00C94000A64E671E049
:100140008FE693E00E94E40661E085E00C94000AEB
:1001500063E571E08FE693E00E94E40661E087E0EA
:100160000E94C40961E088E00E94C40961E089E05E
:100170000C94C4096EE371E08FE693E00E94E406FC
:1001800061E087E00E94000A61E088E00E94000AC6
:1001900061E089E00E94000A68EE73E080E090E090
:1001A0000C942409CF93DF9326E040E855E260E009
:1001B00070E08FE693E00E94AB056FE871E08FE698
:1001C00093E00E94E4060E948C0F0E948A000E9425
:1001D000A8000E94BA0085E194E00E94FD0A0E94F6
:1001E000F30EEC010E94F10BC82BD92B0E94380EA4
:1001F000C82BD92B64EF71E080E090E00E942409C5
:100200000E94BB0FCE01DF91CF9108950F931F93F2
:10021000CF93DF938C01EB0165E371E08FE693E010
:100220000E94E406F801C00FD11F80E090E0EC17B7
:10023000FD0721F02191820F911DF9CFDF91CF9120
:100240001F910F910895CF93DF93CDB7DEB7E2975B
:100250000FB6F894DEBF0FBECDBF0E9460090E94AA
:10026000D200009711F00E94300F8E010F5F1F4FD8
:100270008AE2F80111928A95E9F76E01FBE2CF0E4E
:10028000D11C6AE971E08FE693E00E94E406809158
:10029000AB04882309F444C01092AB040E94D2003E
:1002A000009711F00E94300F0E94EB039B01AC01FC
:1002B0006BA73CA74DA75EA71FA618AA19AA1AAA42
:1002C000FE01F396D80182918D93EC15FD05D9F7C7
:1002D0000E94940068EE73E080E090E00E942409A0
:1002E000CE0109960E94570EB82E88E0E82EEB0C3E
:1002F0000E949E00F12CB701C8010E940601F8017E
:10030000EE0DFF1D908399E09B0DF801E90FF11DA3
:1003100080834AE04B0DB80189E291E00E949F0B77
:100320000E94FF0EAECF8F929F92AF92BF92CF925C
:10033000DF92EF92FF920F931F93CF93DF93C090C2
:100340006B03D0906C03E0906D03F0906E0380ED32
:10035000C81A89E8D80A8DE6E80A88E3F80AE1EDC8
:10036000F7E0C4E6D0E000E911E09F012150310937
:1003700081E8C81683E3D80681EEE80681E0F80636
:1003800010F1C90183709927892BA1F4C901BE011D
:100390000E94511B892B31F4C901B8010E94511BE5
:1003A000892B41F485E8D81A82EEE80A81E0F80A40
:1003B0003196DBCF80E8C81A83E3D80A81EEE80AD9
:1003C00081E0F80AF5CF30936A0320936903C1EA0C
:1003D000D1E0FE01E15AF140A991B0E020E831E519
:1003E00041E050E00E94AA1B6C157D058E059F051B
:1003F00028F4C61AD70AE80AF90AEBCFEF5FE093B0
:100400006803C701B60120E831E541E050E00E94F1
:10041000791B4B015C012F5F209367032CE3C22EF5
:10042000D12CE12CF12CA70196010E94791B60933D
:100430006403C501B40120E13EE040E050E00E94C9
:10044000791BC22FA70196010E94791B2093650397
:10045000C0936603DF91CF911F910F91FF90EF90B2
:10046000DF90CF90BF90AF909F908F9008952F9284
:100470003F924F925F926F927F928F929F92AF9234
:10048000BF92CF92DF92EF92FF920F931F93CF9381
:10049000DF93CDB7DEB72C970FB6F894DEBF0FBE53
:1004A000CDBFC0906503809164030CE3C09E6001E2
:1004B0001124C80ED11C0D2C000CEE08FF08209151
:1004C000660330E0A0E1BEE00E949B1BC60ED71E73
:1004D000E81EF91E16012701612C712C4301E090E2
:1004E0006903F0906A03FC82EB82C701837099274D
:1004F000892B81F4C70164E670E00E94651B892B9B
:1005000059F4C70160E971E00E94651B01E00983AD
:10051000892B21F0198202C011E01983E0EDF7E088
:1005200084E6E82EF12C00E911E02B813C81E217F2
:10053000F3077CF5CF0183709927892BC1F4CF0194
:10054000B7010E94651B892B31F4CF01B8010E94CD
:10055000651B892B61F49101A201B301C4013B57D2
:100560004D415E4F6F4F7F4F8F4F9F4F0CC091019A
:10057000A201B301C40120583C4C4E415E4F6F4F65
:100580007F4F8F4F9F4F19012A013B014C0131963C
:10059000CCCF309168033A83432F50E0415051094A
:1005A0005C834B83E1EAF1E0CF01815A9140EB801B
:1005B000FC808E159F05DCF4A191B0E020E831E5C8
:1005C00041E050E00E94AA1B5B016C019B01A60167
:1005D00060E070E080E090E051016201730184010D
:1005E0000E94BD1B19012A013B014C01DDCFA091E6
:1005F0006703B0E0119720E831E541E050E00E9448
:10060000B51B7B018C019B01A80160E070E080E0DC
:1006100090E051016201730184010E94BD1B4901F8
:100620005A010981002369F01A81133050F02058D3
:100630003E4A4E4F5F4F6F4F7F4F8F4F9F4F490145
:100640005A0120E3821A26E7920A22E9A20A27EC3D
:10065000B20A80926B0390926C03A0926D03B092E9
:100660006E032C960FB6F894DEBF0FBECDBFDF91A0
:10067000CF911F910F91FF90EF90DF90CF90BF909F
:10068000AF909F908F907F906F905F904F903F9032
:100690002F9008952AE0622F0E94451B392F0E9457
:1006A000451B20E1929FC0011124832B0895982FB0
:1006B00092959F708F702AE0929F800D112408956B
:1006C000CF93DF93D82FC62F68E670E085E194E0E2
:1006D0000E94190B6D2F85E194E00E94BE0A6C2FD9
:1006E00085E194E00E94BE0A85E194E0DF91CF911C
:1006F0000C94980BCF93DF93C4E6D3E06F83788795
:1007000089879A870E94930188810E944A03682FF3
:1007100080E00E94600389810E944A03682F81E083
:100720000E9460038A810E944A03682F82E00E942F
:1007300060038B810E944A03682F84E00E9460035B
:100740008C810E944A03682F85E00E9460038D819E
:10075000805D0E944A03682F86E0DF91CF910C9460
:100760006003CF92DF92EF92FF92F82E68E670E07E
:1007700085E194E00E94190B6F2D85E194E00E94C1
:10078000BE0A85E194E00E94980B0E94F3086B0179
:100790007C010E94F308DC01CB018C199D09AE0994
:1007A000BF0984369105A105B10578F441E050E018
:1007B00068E670E085E194E00E94950B813049F78E
:1007C00085E194E00E94370A01C080E0FF90EF903D
:1007D000DF90CF900895CF938FE00E94B103C82F90
:1007E00080FF04C060E08FE00E946003C1FF04C08E
:1007F00060E08FE00E94600380E00E94B1030E94ED
:1008000057038093640381E00E94B1030E94570361
:100810008093650382E00E94B1030E945703809396
:10082000660384E00E94B1030E945703809367032C
:1008300085E00E94B1030E9457038093680386E01D
:100840000E94B1030E94570390E08053984F909309
:100850006A03809369030E94370260916B03709171
:100860006C0380916D0390916E03CF910895EF9288
:10087000FF920F931F93CF93DF93623030F5C62F13
:10088000D0E0FE01E156FE4FF080082F10E08F2DE2
:100890000E94B103B8010C2E02C0759567950A94A9
:1008A000E2F77695762F662777956795682BEE2485
:1008B000E394EF0C8F2D0E9460032196FE2CC43030
:1008C000D10529F780E090E002C08FEF9FEFDF9124
:1008D000CF911F910F91FF90EF900895EF92FF92AB
:1008E0001F93CF93DF93EC01EA81FB81309759F19D
:1008F00081810E944A03682F87E00E946003EA8199
:10090000FB8182810E944A03682F88E00E94600375
:10091000EA81FB8183810E944A03682F89E00E945B
:100920006003EA81FB8184810E944A03682F8AE088
:100930000E946003EA81FB8160E080810E943704AD
:100940007C0161E003C060E0E12CF12CEC81FD81D1
:10095000309721F1162F126082810E944A03682F7E
:100960008BE00E946003EC81FD8183810E944A0339
:10097000682F8CE00E946003EC81FD8184810E94DD
:100980004A03682F8DE00E946003EC81FD8161E0E5
:1009900080810E943704E82AF92A03C0662319F0EF
:1009A00011E0612F64608EE00E946003C701DF9157
:1009B000CF911F91FF90EF900895FC01918D228DB2
:1009C000892F90E0805C9F4F821B91098F7399273C
:1009D0000895FC01918D828D981731F0828DE80F7A
:1009E000F11D858D90E008958FEF9FEF0895FC0134
:1009F000918D828D981761F0828DDF01A80FB11D56
:100A00005D968C91928D9F5F9F73928F90E0089579
:100A10008FEF9FEF0895FC01538D448D252F30E01B
:100A2000842F90E0821B930B541710F0CF960895FB
:100A300001970895FC01848DDF01A80FB11DA35A11
:100A4000BF4F2C91848D90E001968F739927848FEE
:100A5000A689B7892C93A089B1898C918370806411
:100A60008C93938D848D981306C00288F389E02DB2
:100A700080818F7D80830895EF92FF920F931F9363
:100A8000CF93DF93EC0181E0888F9B8D8C8D981341
:100A900005C0E889F989808185FD26C0F62E0B8D79
:100AA00010E00F5F1F4F0F731127E02E8C8DE8129F
:100AB0000CC00FB607FCFACFE889F989808185FF61
:100AC000F5CFCE010E941A05F1CF8B8DFE01E80F04
:100AD000F11DE35AFF4FF0829FB7F8940B8FEA891C
:100AE000FB89808180620AC09FB7F894EE89FF89F4
:100AF0006083E889F98980818370806480839FBFE7
:100B000081E090E0DF91CF911F910F91FF90EF90E6
:100B10000895CF93DF93EC01888D8823C9F0EA898B
:100B2000FB89808185FD05C0A889B9898C9186FDE6
:100B30000FC00FB607FCF5CF808185FFF2CFA889E3
:100B4000B9898C9185FFEDCFCE010E941A05E7CFC0
:100B5000DF91CF910895CF92DF92EF92FF921F9392
:100B6000CF93DF93EC016A017B01122FE889F989A9
:100B700082E080834115514E61057105B1F060E05E
:100B800079E08DE390E0A70196010E94791BDA01DC
:100B9000C9010197A109B109B695A79597958795C0
:100BA0009C01211580E13807A8F0E889F9891082B5
:100BB00060E874E88EE190E0A70196010E94791B3D
:100BC000DA01C9010197A109B109B695A7959795D1
:100BD00087959C01EC85FD853083EE85FF8520831C
:100BE000188EEC89FD891083EA89FB8980818061F8
:100BF0008083EA89FB89808188608083EA89FB8918
:100C0000808180688083EA89FB8980818F7D8083F1
:100C1000DF91CF911F91FF90EF90DF90CF900895DB
:100C200080E090E008951F920F920FB60F9211246A
:100C30002F938F939F93EF93FF93E0917F03F09116
:100C400080038081E0918503F091860382FD12C0CC
:100C50009081809188038F5F8F7320918903821721
:100C600051F0E0918803F0E0E159FC4F958F8093BB
:100C7000880301C08081FF91EF919F918F912F9107
:100C80000F900FBE0F901F9018951F920F920FB6E6
:100C90000F9211242F933F934F935F936F937F9302
:100CA0008F939F93AF93BF93EF93FF938FE693E060
:100CB0000E941A05FF91EF91BF91AF919F918F9183
:100CC0007F916F915F914F913F912F910F900FBE48
:100CD0000F901F901895EFE6F3E01382128288EED2
:100CE00093E0A0E0B0E084839583A683B78381EB93
:100CF00091E09183808385EC90E09587848784ECF4
:100D000090E09787868780EC90E0918B808B81ECD8
:100D100090E0938B828B82EC90E0958B848B86ECB9
:100D200090E0978B868B118E128E138E148E089501
:100D3000CF92DF92EF92FF920F931F93CF93DF93A7
:100D40006C017A018B01C0E0D0E0CE15DF0581F0A7
:100D5000D8016D918D01D601ED91FC910190F0814A
:100D6000E02DC6010995892B11F02196EECF7E0169
:100D7000C701DF91CF911F910F91FF90EF90DF900E
:100D8000CF9008956115710579F0FB010190002065
:100D9000E9F73197AF01461B570BDC01ED91FC9150
:100DA0000280F381E02D099480E090E008950C9496
:100DB000C206DC01ED91FC910190F081E02D0994D7
:100DC0006FEB71E00C94C2060F931F93CF93DF93E8
:100DD000EC010E94C2068C01CE010E94E006800F49
:100DE000911FDF91CF911F910F9108958F929F9244
:100DF000AF92BF92EF92FF920F931F93CF93DF9327
:100E0000CDB7DEB7A1970FB6F894DEBF0FBECDBF4A
:100E10007C01FA01CB0119A2223008F42AE08E01EC
:100E20000F5D1F4F822E912CA12CB12CBF01A5016B
:100E300094010E94791BF901CA01015011096A301D
:100E400010F4605D01C0695CD8016C93232B242BE6
:100E5000252B61F7B801C7010E94C206A1960FB603
:100E6000F894DEBF0FBECDBFDF91CF911F910F91E0
:100E7000FF90EF90BF90AF909F908F9008952115B5
:100E8000310541F4DC01ED91FC910190F081E02D00
:100E9000642F09940C94F6069A01462F50E060E006
:100EA00070E00C943F070F931F93CF93DF93EC01F7
:100EB0000E944C078C01CE010E94E006800F911F1A
:100EC000DF91CF911F910F9108959A01AB0160E0DE
:100ED00070E00C943F07CF92DF92EF92FF920F9356
:100EE0001F93CF93DF932115310581F4DC01ED9140
:100EF000FC910190F081E02D642FDF91CF911F9143
:100F00000F91FF90EF90DF90CF9009942A30310538
:100F100001F577FF1DC06A017B01EC016DE20E94C3
:100F2000D9068C0144275527BA014C195D096E0971
:100F30007F092AE0CE010E94F606800F911FDF9103
:100F4000CF911F910F91FF90EF90DF90CF90089578
:100F50002AE0DF91CF911F910F91FF90EF90DF90EA
:100F6000CF900C94F6069A01AB01770F660B770BC6
:100F70000C946B077F928F929F92AF92BF92CF9209
:100F8000DF92EF92FF920F931F93CF93DF938C0129
:100F90006A017B01722E9A01AB01C701B6010E9462
:100FA000401B882319F062EC71E027C0460157010D
:100FB000E894B7F82FEF3FEF4FE75FE7C501B401C3
:100FC0000E94401B81110DC02FEF3FEF4FE75FE7FD
:100FD000C501B4010E94761918161CF466EC71E084
:100FE0000CC02FEF3FEF4FE75FE4C701B6010E944F
:100FF000CE1A181694F46AEC71E0C801DF91CF9113
:101000001F910F91FF90EF90DF90CF90BF90AF9026
:101010009F908F907F900C94C2062FEF3FEF4FE789
:101020005FECC701B6010E94761987FDE4CF20E08E
:1010300030E0A901C701B6010E94761987FF0AC0F6
:101040006DE2C8010E94D906EC01F7FAF094F7F8B6
:10105000F09402C0C0E0D0E0B12C60E070E080E02D
:101060009FE37B1441F020E030E040E251E40E9435
:101070007B19B394F6CFA70196010E940A196B0160
:101080007C010E94ED194B015C012AE0AB01BC011F
:10109000C8010E94F606C80FD91F7720B9F1C50113
:1010A000B4010E941C1A9B01AC01C701B6010E9449
:1010B00009196B017C016EE2C8010E94D906C80FB4
:1010C000D91F20E030E040E251E4C701B6010E94A0
:1010D000D31A4B015C010E94ED196B017C014AE0BF
:1010E00050E0C8010E946507C80FD91FB60180E013
:1010F00090E00E941C1A9B01AC01C501B4010E9442
:1011000009196B017C017A947110DBCFCE01DF915C
:10111000CF911F910F91FF90EF90DF90CF90BF90F4
:10112000AF909F908F907F9008950C94BA070F9383
:101130001F93CF93DF93EC010E94BA078C01CE017D
:101140000E94E006800F911FDF91CF911F910F91B8
:1011500008951F920F920FB60F9211242F933F9371
:101160008F939F93AF93BF9380910D0490910E0442
:10117000A0910F04B091100430910C0423E0230FD0
:101180002D3720F40196A11DB11D05C026E8230FBF
:101190000296A11DB11D20930C0480930D04909321
:1011A0000E04A0930F04B093100480911104909149
:1011B0001204A0911304B09114040196A11DB11D55
:1011C0008093110490931204A0931304B093140419
:1011D000BF91AF919F918F913F912F910F900FBE33
:1011E0000F901F9018952FB7F89460910D0470918F
:1011F0000E0480910F04909110042FBF08953FB703
:10120000F8948091110490911204A0911304B0916C
:10121000140426B5A89B05C02F3F19F00196A11D07
:10122000B11D3FBFBA2FA92F982F8827820F911D7C
:10123000A11DB11DBC01CD0142E0660F771F881FC3
:10124000991F4A95D1F708958F929F92AF92BF92BE
:10125000CF92DF92EF92FF926B017C010E94FF0818
:101260004B015C01C114D104E104F10401F10E94BD
:1012700073130E94FF08DC01CB0188199909AA09A0
:10128000BB09883E9340A105B10560F321E0C21A75
:10129000D108E108F10888EE880E83E0981EA11CB1
:1012A000B11CC114D104E104F10419F7DBCFFF90A4
:1012B000EF90DF90CF90BF90AF909F908F90089568
:1012C000789484B5826084BD84B5816084BD85B521
:1012D000826085BD85B5816085BDEEE6F0E08081E8
:1012E00081608083E1E8F0E0108280818260808309
:1012F000808181608083E0E8F0E08081816080838C
:10130000E1EBF0E0808184608083E0EBF0E08081BD
:1013100081608083EAE7F0E080818460808380815F
:101320008260808380818160808380818068808307
:101330001092C1000895833081F028F4813099F033
:101340008230A1F008958730A9F08830B9F0843058
:10135000D1F4809180008F7D03C0809180008F77D1
:1013600080938000089584B58F7702C084B58F7D07
:1013700084BD08958091B0008F7703C08091B00044
:101380008F7D8093B0000895CF93DF9390E0FC01B0
:10139000E458FF4F2491FC01E057FF4F84918823CC
:1013A00061F190E0880F991FFC01E255FF4FC59154
:1013B000D491FC01EC55FF4FA591B491611109C086
:1013C0009FB7F8948881209582238883EC912E23FF
:1013D0000BC0623061F49FB7F8948881322F30954A
:1013E00083238883EC912E2B2C939FBF06C08FB74D
:1013F000F894E8812E2B28838FBFDF91CF91089539
:101400001F93CF93DF93282F30E0F901E859FF4F66
:101410008491F901E458FF4FD491F901E057FF4F4F
:10142000C491CC23C1F0162F81110E949B09EC2F8F
:10143000F0E0EE0FFF1FEC55FF4FA591B4919FB761
:10144000F894111104C08C91D095D82302C0EC916E
:10145000DE2BDC939FBFDF91CF911F910895809188
:10146000490490E020914A04821B910908959091CB
:101470004A0480914904981750F4E92FF0E0E55BA5
:10148000FB4F208130E09F5F90934A0402C02FEF12
:101490003FEFC9010895E0914A0480914904E8179B
:1014A00030F4F0E0E55BFB4F808190E008958FEF32
:1014B0009FEF08950895CF93DF93EC01E09121040D
:1014C000F09122043097F1F090914A048091490400
:1014D0009817C0F090E0292F30E02617370754F412
:1014E000DE01A20FB31F4C91D901A55BBB4F4C93FA
:1014F0009F5FF1CF10924A0460934904CB01DF91C2
:10150000CF910994DF91CF910895E0912304F09158
:101510002404309729F0109227041092260409948D
:101520000895CF92DF92EF92FF920F931F93CF9384
:10153000DF937C01CB018A0120912504222389F0CD
:10154000EB016B01C40ED51ECC15DD0569F0699168
:10155000D701ED91FC910190F081E02DC701099533
:10156000F3CF642F0E947D15C801DF91CF911F91A9
:101570000F91FF90EF90DF90CF900895CF93DF937E
:101580001F92CDB7DEB76983209125042223D1F0C5
:1015900020912604203240F021E030E0FC0133832A
:1015A000228380E090E015C080912704E82FF0E0CE
:1015B000E85DFB4F998190838F5F80932704809330
:1015C000260405C061E0CE0101960E947D1581E0F0
:1015D00090E00F90DF91CF910895FC011382128269
:1015E00088EE93E0A0E0B0E084839583A683B78380
:1015F00082ED91E091838083089510924A041092C5
:10160000490410922704109226040E94521585E87E
:101610009AE00E94AA158BE59AE00C94A51581E04A
:1016200080932504609348041092270410922604A6
:1016300008950C940F0B0F93062F21E04091260480
:1016400068E274E0809148040E94B4161092270466
:1016500010922604109225040F9108954F925F92E4
:101660006F927F92AF92BF92CF92EF92FF920F93C1
:101670001F93CF93DF935C01F62ED42F28013901FD
:10168000EE2021F10E940F0BCE2DC43008F0C3E0F4
:10169000C150C0F028E0C29FC0011124A3019201F3
:1016A00004C056954795379527958A95D2F7CA0174
:1016B000B901D501ED91FC910190F081E02DC501BA
:1016C0000995E6CF60E0C5010E941B0B4D2FD1327A
:1016D00008F040E22C2D6BE474E08F2D0E94CB15B6
:1016E00010924A0480934904DF91CF911F910F918A
:1016F000FF90EF90CF90BF90AF907F906F905F90F2
:101700004F900895CF92EF920F931F93C22EE12C2A
:1017100000E010E098010E942E0B1F910F91EF90B6
:10172000CF90089521E00C94820B21E00C94820B61
:1017300061E00C941B0B85E194E00C94ED0AEF92B0
:10174000FF920F931F93CF93DF938C017B01C42FE4
:1017500068E072E08FE693E00E94E40660EE71E0DC
:101760008FE693E00E94D706B8018FE693E00E94CF
:10177000E4066DEE71E08FE693E00E94D7064AE042
:1017800050E06C2F8FE693E00E9453078701D0E072
:10179000C8018E199F098C179D0784F4F801619187
:1017A0008F014AE050E08FE693E00E944C076DEF16
:1017B00071E08FE693E00E94D706EACF8FE693E0D0
:1017C000DF91CF911F910F91FF90EF900C94E00665
:1017D00060E072E08FE693E00E94E40680E090E033
:1017E000089563E172E08FE693E00E94E4060C94B2
:1017F000E80BCF93DF93EC016EEC72E08FE693E0A1
:101800000E94E4066FE070E087E794E00E944E13C8
:1018100087E794E09983888380E090E0DF91CF911F
:101820000895CF93DF93EC016DEB72E08FE693E0C8
:101830000E94E4066EE070E08BE694E00E945D1288
:101840008BE694E09983888380E090E0DF91CF91EC
:1018500008958F929F92AF92BF92CF92DF92EF92B4
:10186000FF920F931F93CF93DF93CDB7DEB76C97A3
:101870000FB6F894DEBF0FBECDBF7C015B0160EBFD
:1018800072E08FE693E00E94E4068E010F5F1F4F27
:1018900088E1F80111928A95E9F7F701E080F1807B
:1018A000C7010E94411264E0C7010E94811081FFBC
:1018B000FACF46E0B801C7010E94E4106801850133
:1018C000E12CF12C5E01FDE1AF0EB11C4601F601E9
:1018D00081919191A191B1916F01898F9A8FAB8F75
:1018E000BC8F6FE172E08FE693E00E94D7064AE07A
:1018F00050E0B7018FE693E00E94B3076EEF71E00E
:101900008FE693E00E94D706F40140815181628105
:10191000738122E030E08FE693E00E9495086EEF3D
:1019200071E08FE693E00E94D706FE017996D80118
:10193000EA15FB0519F081918D93FACFFFEFEF1AAD
:10194000FF0A0C5F1F4F86E0E816F10409F0BECFD6
:101950008FE693E00E94E00688E16C960FB6F8945B
:10196000DEBF0FBECDBFDF91CF911F910F91FF90D2
:10197000EF90DF90CF90BF90AF909F908F900895A1
:101980008F929F92AF92BF92CF92DF92EF92FF928F
:101990000F931F93CF93DF93CDB7DEB728970FB682
:1019A000F894DEBF0FBECDBF7C018B0162EA72E00E
:1019B0008FE693E00E94E406F701E080F180C70122
:1019C0000E9410134B015C016D837E838F83988787
:1019D000C7010E942B136B017C0169837A838B837F
:1019E0009C8364E272E08FE693E00E94D70622E0D7
:1019F00030E0B501A4018FE693E00E9495086BE208
:101A000072E08FE693E00E94D70622E030E0B70153
:101A1000A6018FE693E00E949708DE011596B801B3
:101A2000CE010196AE01475F5F4FA417B50751F095
:101A30002D91FB012193BF01FC012191CF01FB01FD
:101A40002383F3CF88E028960FB6F894DEBF0FBE4D
:101A5000CDBFDF91CF911F910F91FF90EF90DF905D
:101A6000CF90BF90AF909F908F900895CF92DF92CC
:101A7000EF92FF920F931F93CF93DF9300D000D08C
:101A8000CDB7DEB77C018B0166E972E08FE693E0AB
:101A90000E94E406F701808191810E9452136B013C
:101AA0007C0169837A838B839C8361E372E08FE698
:101AB00093E00E94D70622E030E0B701A6018FE64E
:101AC00093E00E94950860EC71E08FE693E00E943D
:101AD000D706DE011196F8019E012B5F3F4FA2173A
:101AE000B30719F08D918193FACF84E00F900F9096
:101AF0000F900F90DF91CF911F910F91FF90EF907A
:101B0000DF90CF900895CF92DF92EF92FF920F93E4
:101B10001F93CF93DF9300D000D0CDB7DEB77C0109
:101B20008B0165E872E08FE693E00E94E406F7011E
:101B3000808191810E9461126B017C0169837A83AB
:101B40008B839C836FE372E08FE693E00E94D7065D
:101B500022E030E0B701A6018FE693E00E949508ED
:101B600060EC71E08FE693E00E94D706DE011196EB
:101B7000F8019E012B5F3F4FA217B30719F08D911B
:101B80008193FACF84E00F900F900F900F90DF9128
:101B9000CF911F910F91FF90EF90DF90CF9008951C
:101BA000CF93DF93EC0168EE72E08FE693E00E9442
:101BB000E40665E174E084E894E00E94E611811196
:101BC00015C06BE472E08FE693E00E94D70668EEE2
:101BD00072E08FE693E00E94D70664E572E08FE63C
:101BE00093E00E94E40682E090E006C084E894E07E
:101BF0009983888380E090E0DF91CF910895CF931F
:101C0000DF93EC016AED72E08FE693E00E94E40658
:101C100060E483E894E00E949D1241E061E083E883
:101C200094E00E94C51283E894E00E94401380353E
:101C30009041A9F06BE472E08FE693E00E94D70632
:101C40006AED72E08FE693E00E94D70664E572E0E9
:101C50008FE693E00E94E40684E090E006C083E80B
:101C600094E09983888380E090E0DF91CF9108959C
:101C70000F931F93CF93DF9368E772E08FE693E0B3
:101C80000E94E406C6E0D1E000E010E0888199817E
:101C9000009739F0EA81FB810995082B192B2696CC
:101CA000F5CFC801DF91CF911F910F910895EF9269
:101CB000FF920F931F93CF93DF937C016BE672E04B
:101CC0008FE693E00E94E40606E011E0C0E0D0E079
:101CD000D8018D919C911197009769F0B7016C0F15
:101CE0007D1F1496ED91FC9115970995C80FD11D94
:101CF0000A5F1F4FEDCFCE01DF91CF911F910F9162
:101D0000FF90EF900895E4E8F4E01182108289E4F6
:101D1000828383E894E00E949C122EEA37E441E338
:101D200050E46EE070E087E794E00E9443136EE0B9
:101D300070E08BE694E00C9456128BE694E00E94DF
:101D40005C1287E794E00E944D1384E894E00C94C1
:101D50001910FF920F931F93CF93DF93CDB7DEB788
:101D600060970FB6F894DEBF0FBECDBFF82E65EFBB
:101D700072E08FE693E00E94E406FE01319686E071
:101D8000DF011D928A95E9F78EE08C879EE19D87A1
:101D90009E878CE08F872FE02F8399878A87CE01DB
:101DA0000C969C838B8305979E838D83CF010E9425
:101DB0006E048C0162E083E00E94C409FF2031F0D0
:101DC00062E679E081E492E60E947A03C8016096B7
:101DD0000FB6F894DEBF0FBECDBFDF91CF911F913C
:101DE0000F91FF90089580E00C94A90E81E08093FC
:101DF000AB0483B78E7F83BF81E00C94991361E0BD
:101E000073E08FE693E00E94E4068091A3048111C1
:101E100007C080917A008093A20481E08093A3049C
:101E200010927A0083B7817F846083BF83B781601B
:101E300083BF80E685BF80E485BFF89440E050E032
:101E400066EF7EE081E00E94791378948FE693E05C
:101E50000E94890588958091A20480937A00089554
:101E6000D82F192F66E573E08FE693E00E94E40611
:101E7000D0FD0AC0D3FD0AC0D4FD0AC0D2FD0AC0FD
:101E8000D1FF0AC0C5E009C0C1E007C0C2E005C07B
:101E9000C3E003C0C4E001C0C0E06CE073E08FE6C3
:101EA00093E00E94D7064AE050E06D2F712F8FE635
:101EB00093E00E94B3076BE173E08FE693E00E942A
:101EC000D7064AE050E06C2F8FE693E00E9453075C
:101ED000D0E000E010E00C171D07BCF461E082E0E8
:101EE0000E94000A68EC70E080E090E00E94240903
:101EF00060E082E00E94000A68EC70E080E090E020
:101F00000E9424090F5F1F4FE6CF60E971E080E077
:101F100090E00E942409DDCF62E473E08FE693E055
:101F20000E94E40661E082E00E94C409F8941092E5
:101F30008000E1E8F0E080818F7E8083808188608E
:101F4000808380818460808380818D7F8083808195
:101F500081608083109285001092840080ED93E070
:101F60009093890080938800EFE6F0E080818260A2
:101F70008083789408956BE273E08FE693E00E948B
:101F8000E406EFE6F0E080818D7F808360E082E010
:101F90000E94000A81E090E09093AD048093AC042D
:101FA00008951F920F920FB60F9211242F933F9313
:101FB0004F935F936F937F938F939F93AF93BF9351
:101FC000EF93FF938091AC049091AD04892BC1F401
:101FD0008091AE049091AF04892B29F01092AF0448
:101FE0001092AE0406C081E090E09093AF0480931D
:101FF000AE046091AE047091AF0482E00E94000ACA
:10200000FF91EF91BF91AF919F918F917F916F91D0
:102010005F914F913F912F910F900FBE0F901F90A6
:102020001895FC0180818E7F0895FC0180818F735B
:102030000895FC0180819181009711F00C94761332
:102040000895EF920F931F93CF93DF931F92CDB715
:10205000DEB76983022F10E0E12C9A0141E050E0E5
:10206000BE016F5F7F4FFC01808191810E9420152E
:102070000F90DF91CF911F910F91EF900895CF9323
:10208000DF931F92CDB7DEB721E0AE014F5F5F4F08
:102090000E94211089810F90DF91CF910895EF92D6
:1020A000FF920F931F93CF93DF931F92CDB7DEB7AD
:1020B000362FBA013983422F50E0EE24E394F12CFD
:1020C0008E010F5F1F4F21E0FC01808191810E94F2
:1020D00055140F90DF91CF911F910F91FF90EF90CA
:1020E0000895CF93DF931F92CDB7DEB7498321E0E8
:1020F000AE014F5F5F4F0E944F100F90DF91CF9165
:102100000895FF920F931F93CF93DF9300D0CDB725
:10211000DEB78C01F62E60E0C8010E943F108A8372
:102120008A8181FDF8CF4F2D61E0C8010E947110B6
:1021300060E0C8010E943F108A838A8180FFF8CF47
:1021400062E0C8010E943F10898389810F900F903F
:10215000DF91CF911F910F91FF900895CF92DF9261
:10216000EF92FF920F931F93CF93DF93EC01162F03
:102170000E948110082F61E0610FCE010E94811042
:10218000C82ED12CE12CF12C7601DD24CC24F02AB0
:1021900062E0610FCE010E948110082F63E0610FA1
:1021A000CE010E948110A7019601282BDA01C901F6
:1021B000BC01CD01702BDF91CF911F910F91FF904A
:1021C000EF90DF90CF900895CF92DF92EF92FF9241
:1021D0000F931F93CF93DF938C017B01C0E0D0E07E
:1021E000C42ED12CCC15DD050CF04EC0C230D1056B
:1021F00061F184F42097F9F0C130D10509F042C0B3
:1022000068E1C8010E94AE10F7016483758386837C
:10221000978338C0C430D10561F10CF1C530D105C8
:1022200089F568E2C8010E94AE10F701648B758BD6
:10223000868B978B27C064E1C8010E94AE10F7011E
:1022400060837183828393831DC06CE1C8010E9407
:10225000AE10F701608771878287938713C060E2B1
:10226000C8010E94AE10F70164877587868797873B
:1022700009C064E2C8010E94AE10F701608B718B47
:10228000828B938B2196AECFDF91CF911F910F91CF
:10229000FF90EF90DF90CF900895EF92FF920F9311
:1022A0001F93CF93DF931F92CDB7DEB78C01F62E2D
:1022B000E42E60E0C8010E943F108983898181FD7E
:1022C000F8CF4F2D406861E0C8010E94711060E0B6
:1022D000C8010E943F108983898181FDF8CF4E2D6E
:1022E00061E0C8010E9471100F90DF91CF911F91A2
:1022F0000F91FF90EF900895CF93DF93EC018D81C4
:10230000877F8D83CE0105960E941510482F67E0C8
:10231000CE01DF91CF910C944D11CF93DF93EC015F
:102320006370862F8295807F6D816F7C682B6D83B3
:10233000CE0105960E941510482F67E0CE01DF916F
:10234000CF910C944D11CF93DF93EC016370862FE6
:10235000880F880F6B81637F682B6B83CE01039698
:102360000E941110482F64E0CE01DF91CF910C94B0
:102370004D11CF93DF93EC016370862F8295807FA0
:102380006B816F7C682B6B83CE0103960E941110CA
:10239000482F64E0CE01DF91CF910C944D11462F70
:1023A000FC01648365E00C944D11CF93DF93EC0145
:1023B0008B8180648B83CE0103960E941110482F7D
:1023C00064E0CE01DF91CF910C944D11EF92FF921A
:1023D0000F931F93CF93DF93EC017B018881998149
:1023E000009711F00E94761386E090E00E9474132B
:1023F0008C01A7016A810E9416141983088361E089
:10240000C8010E943D14182F811102C010E031C094
:102410008B8180688B83CE0103960E941110482F18
:1024200064E0CE010E944D118B818F778B8368EE23
:1024300073E080E090E00E94240960E0CE010E94F9
:102440008110803419F7CE010E94D51160E0CE01D1
:102450000E948D11CE010E947C1162E3CE010E9488
:10246000CF1163E0CE010E94B91163E0CE010E945A
:10247000A311812FDF91CF911F910F91FF90EF90CA
:102480000895CF93DF93EC018B818D7F8B83CE01F9
:1024900003960E941110482F64E0CE010E944D1156
:1024A00063E0CE01DF91CF910C94A311FC01758301
:1024B00064831782168208950895FC0175836483EE
:1024C0000895CF92DF92EF92FF92CF93DF93EC01CA
:1024D0008C810E94F9139F838E83BC01990F880B16
:1024E000990B0E941E1A21EE32EB4AEC5DE30E942A
:1024F000D31A2AE939E941E051E40E9409196B0134
:102500007C0120E030E0A9010E94761987FD05C01A
:10251000C886D986EA86FB8604C0188619861A867C
:102520001B86688579858A859B85DF91CF91FF9091
:10253000EF90DF90CF9008950895FC01608385E1CE
:1025400094E00C94FD0ACF93C62FFC01608185E1D5
:1025500094E00E940F0B62E085E194E00E94BE0AC5
:102560006C2F85E194E00E94BE0A60E085E194E072
:102570000E94BE0A85E194E00E94980B6AE070E038
:1025800080E090E0CF910C942409262F60E0413048
:1025900011F06B7F01C06460222329F0213029F4FF
:1025A0006C7F616002C06C7F62600E94A31208951C
:1025B000FF920F931F93CF93DF938C01F62EFC01B4
:1025C000608185E194E00E940F0B6F2D85E194E01E
:1025D0000E94BE0A85E194E00E94980B69E070E0D9
:1025E00080E090E00E94240942E0F801608185E1EA
:1025F00094E00E94920B85E194E00E94370A182F24
:1026000085E194E00E94370AD12FF0E0CF2F9E01A0
:10261000282BC901DF91CF911F910F91FF90089551
:1026200060E00E94D812BC0180E090E00E941C1A79
:1026300020E030E040E857E30E94D31A20E030E089
:1026400045E253E40E94D31A20E030E040E252E435
:102650000E940919089561E00E94D812BC0180E02F
:1026600090E00E941C1A20E030E040E857E30E940E
:10267000D31A20E030E048EC52E40E94D31A0895C7
:102680006FEF0C94D812FC01208331834283538373
:10269000758364831782168208950895FC017583FB
:1026A00064830895CF93DF93EC018C810E94F9132A
:1026B0009F838E83BC01990F880B990B0E941E1A71
:1026C0002DE73FEA4DE054E40E94091925E436EF76
:1026D00041E15EE30E94D31A688779878A879B87E6
:1026E000DF91CF91089508950C94CC1B0C94641C39
:1026F00008958230E8F4E82FF0E0EE0FFF1FEC5D64
:10270000FE4F71836083813041F0809169008C7F3E
:10271000482B40936900E89A089580916900837F6F
:10272000440F551F440F551F482B40936900E99AE9
:102730000895823078F4813011F0E89801C0E9986A
:10274000E82FF0E0EE0FFF1FEC5DFE4F88E793E10E
:102750009183808308951F920F920FB60F921124D8
:102760002F933F934F935F936F937F938F939F9399
:10277000AF93BF93EF93FF93E0912401F091250174
:102780000995FF91EF91BF91AF919F918F917F91AB
:102790006F915F914F913F912F910F900FBE0F90CE
:1027A0001F9018951F920F920FB60F9211242F931E
:1027B0003F934F935F936F937F938F939F93AF93C9
:1027C000BF93EF93FF93E0912601F09127010995C4
:1027D000FF91EF91BF91AF919F918F917F916F91F9
:1027E0005F914F913F912F910F900FBE0F901F90CF
:1027F00018958E3008F08E502091280190E4299F82
:10280000900111248770822B80937C0080917A0044
:10281000806480937A0080917A0086FDFCCF80915D
:1028200078002091790090E0922B0895FC0160835C
:1028300052834183138280E290E0958384830895DC
:10284000CF93DF93EC018B81811107C061E0CE0152
:102850000E943D14982F882361F0688189819A81B4
:102860000E940F0B89819A810E94980B91E081113F
:1028700090E0892FDF91CF9108951F93CF93DF933D
:10288000EC01162F89819A810E94FD0A81E08B83D9
:10289000112331F0CE01DF91CF911F910C942014C0
:1028A00081E0DF91CF911F9108958F929F92BF9207
:1028B000CF92DF92EF92FF920F931F93CF93DF930C
:1028C000DA01AE0DBF1DEC01EC81FD81EA17FB07BB
:1028D000A0F1B22E6A014B01EC01688189819A81D5
:1028E0000E940F0BE114F10479F489819A81DC01D3
:1028F000ED91FC910280F381E02DA601B4010995D0
:10290000C816D906D1F412C00115110571F38981D9
:102910009A81DC01ED91FC910280F381E02DA70109
:10292000B8010995E816F90641F4DFCF6B2D8981CE
:102930009A810E941B0B91E0811190E0892FDF9119
:10294000CF911F910F91FF90EF90DF90CF90BF90AC
:102950009F908F900895CF92DF92EF92FF920F9306
:102960001F93CF93DF937C016B018A01DC016C9193
:1029700011968D919C9112970E94820B90E00817FE
:10298000190791F4E6010C0D1D1DC017D10771F058
:10299000F70181819281DC01ED91FC910284F38544
:1029A000E02D09958993F1CF80E001C081E0DF91AE
:1029B000CF911F910F91FF90EF90DF90CF900895EE
:1029C0009F92AF92BF92CF92DF92EF92FF920F93BE
:1029D0001F93CF93DF936C015B017A01922EC0E0CD
:1029E000D0E0CE15DF05F8F4F601848195818701EA
:1029F0000C1B1D0B8017910708F48C01C701801B6D
:102A0000910BC817D90710F0292D01C020E0A801AB
:102A1000B5016C0F7D1FC6010E94AB14882321F005
:102A2000C00FD11FDECF81E0DF91CF911F910F91B9
:102A3000FF90EF90DF90CF90BF90AF909F90089560
:102A4000AF92BF92CF92DF92EF92FF920F931F93BC
:102A5000CF93DF93EC01690158012E2DE12CF12C6D
:102A600000E010E00E945514882381F021E0A501C8
:102A7000B601CE01DF91CF911F910F91FF90EF90A2
:102A8000DF90CF90BF90AF900C94E01480E0DF9186
:102A9000CF911F910F91FF90EF90DF90CF90BF905B
:102AA000AF9008951092230581E080932105109244
:102AB000200561E082E10E94000A61E083E10E945A
:102AC000000AE9EBF0E080818E7F808380818D7F3A
:102AD000808388E48093B80085E48093BC000895E7
:102AE000ECEBF0E080818A7B808360E082E10E94F1
:102AF000000A60E083E10C94000A4091D204262F82
:102B000030E0240F311D21323105DCF42091230502
:102B10002430C9F4FC0180E090E0861758F430912D
:102B2000D2042191DC01AC52BB4FA30FB11D2C93F9
:102B30000196F3CF8091D204680F6093D20480E0B5
:102B4000089581E0089582E0089590931705809399
:102B5000160508959093190580931805089585EC3E
:102B60008093BC00109223050895CF93DF9391E0EA
:102B700090931B05882361F0C091B800D091BA00F2
:102B80000E9470150E945215D093BA00C093B800ED
:102B9000DF91CF9108954F925F926F927F928F92C3
:102BA0009F92AF92BF92CF92DF92EF92FF920F93DC
:102BB0001F93CF93DF93F82E162F072FC42FE22EEB
:102BC000413208F0BEC00E94FF084B015C01D09169
:102BD0002305DD2331F180911C0590911D05A09105
:102BE0001E05B0911F05892B8A2B8B2B81F30E9428
:102BF000FF0840901C0550901D0560901E057090C8
:102C00001F05DC01CB0188199909AA09BB094816DF
:102C100059066A067B06D8F680911A050E94B515FA
:102C200090C081E080932305E09221059FEF90936F
:102C3000B0041092F5049C0F9093F4048093220545
:102C4000909122058F2D880F892B809322058091EA
:102C50002005813089F5109220050E94FF086B0144
:102C60007C01809122058093BB0080911C0590918E
:102C70001D05A0911E05B0911F05892B8A2B8B2B5A
:102C8000A9F00E94FF0880901C0590901D05A0905F
:102C90001E05B0901F05DC01CB018C199D09AE0902
:102CA000BF0988169906AA06BB0690F18091BC0060
:102CB00083FDD7CF85EC01C085EE8093BC000E94D8
:102CC000FF086B017C0180912305813031F58091F3
:102CD0001C0590911D05A0911E05B0911F05892B23
:102CE0008A2B8B2B81F30E94FF0880901C0590900B
:102CF0001D05A0901E05B0901F05DC01CB018C19AD
:102D00009D09AE09BF0988169906AA06BB06D8F622
:102D100080911A050E94B51515C08091F5048C1795
:102D200010F4C091F504A6EFB4E0912FE12FF02F3D
:102D30008E2F891B8C1718F48D918193F9CFDC2F7E
:102D400001C0D0E08D2FDF91CF911F910F91FF90A7
:102D5000EF90DF90CF90BF90AF909F908F907F903B
:102D60006F905F904F9008954F925F926F927F9215
:102D70008F929F92AF92BF92CF92DF92EF92FF928B
:102D80000F931F93CF93DF93413208F0C6C0122FE9
:102D9000F42ED72EE62ED82F0E94FF084B015C019F
:102DA000C0912305CC2311F180911C0590911D0544
:102DB000A0911E05B0911F05892B8A2B8B2B81F3C7
:102DC0000E94FF0840901C0550901D0560901E0554
:102DD00070901F05DC01CB0188199909AA09BB096C
:102DE000481659066A067B06D8F683C082E08093AF
:102DF0002305009321058FEF8093B0041092F50412
:102E0000F092F4049E2DA6EFB4E0EE2DFD2D8E2F52
:102E1000891B8F1518F481918D93F9CF109222059B
:102E200090912205DD0FD92BD093220580912005AA
:102E3000813089F5109220050E94FF086B017C010A
:102E4000809122058093BB0080911C0590911D0507
:102E5000A0911E05B0911F05892B8A2B8B2BA9F001
:102E60000E94FF0880901C0590901D05A0901E05F3
:102E7000B0901F05DC01CB018C199D09AE09BF097B
:102E800088169906AA06BB06A0F18091BC0083FDB6
:102E9000D7CF85EC01C085EE8093BC000E94FF086F
:102EA0006B017C01112359F180912305823039F5A2
:102EB00080911C0590911D05A0911E05B0911F05E4
:102EC000892B8A2B8B2B71F30E94FF0880901C05A5
:102ED00090901D05A0901E05B0901F05DC01CB0150
:102EE0008C199D09AE09BF0988169906AA06BB066A
:102EF000C8F680911A050E94B515C5E013C08091EF
:102F0000B0048F3F79F08091B004803241F080911D
:102F1000B004803331F0C4E005C0C1E003C0C2E0BA
:102F200001C0C3E08C2FDF91CF911F910F91FF90D3
:102F3000EF90DF90CF90BF90AF909F908F907F9059
:102F40006F905F904F90089585ED8093BC008091C5
:102F50001C0590911D05A0911E05B0911F050796B7
:102F6000A11DB11D23E0B695A795979587952A9544
:102F7000D1F72091BC0024FF1CC040911C0550914A
:102F80001D0560911E0570911F05452B462B472B93
:102F900081F30097A105B10541F025E32A95F1F7EA
:102FA00000000197A109B109E4CF80911A050C94A2
:102FB000B5151092230508951F920F920FB60F9228
:102FC00011242F933F934F935F936F937F938F932E
:102FD0009F93AF93BF93EF93FF938091B900887F46
:102FE000803609F49EC078F5883209F45DC090F40B
:102FF000803109F456C038F4882309F4F5C08830CC
:1030000009F44FC0F5C0883109F44EC0803209F48C
:103010005FC0EEC0803409F46AC058F4803309F40C
:1030200057C0883309F0E4C08093B0040E94AF1504
:10303000DFC0803509F44FC0883509F45DC088349D
:1030400009F0D6C0D3C0883909F4C4C0A8F48837C1
:1030500009F467C038F4883609F463C0803709F48E
:1030600060C0C6C0883809F4B5C0803909F45FC0B3
:10307000803809F0BDC05BC0803B09F483C038F4E0
:10308000803A09F466C0883A09F47CC0B1C0803C3B
:1030900009F4A4C0883C09F4A1C0883B09F487C0A6
:1030A000A7C08091220510C09091F5048091F4048E
:1030B000981770F5E091F50481E08E0F8093F50488
:1030C000F0E0EA50FB4F80818093BB0085EC83C029
:1030D0008093B0048BC0E091F50481E08E0F809363
:1030E000F5048091BB00F0E0EA50FB4F80839091A3
:1030F000F5048091F4046BC0E091F50481E08E0F3B
:103100008093F5048091BB00F0E0EA50FB4F808390
:103110008091210581116AC081E08093200584EAB5
:103120005EC083E0809323051092B104CFCF8091DD
:10313000B104803208F04EC0E091B10481E08E0FFE
:103140008093B1048091BB00F0E0EE54FB4F80838C
:10315000BDCF0E94AF158091B104803230F4E09170
:10316000B104F0E0EE54FB4F10826091B10470E0C6
:10317000E0911605F091170582EB94E00995109205
:10318000B10436C084E0809323051092D3041092DA
:10319000D204E0911805F091190509958091D204A7
:1031A000811105C081E08093D2041092D404E09193
:1031B000D30481E08E0F8093D304F0E0EC52FB4FF8
:1031C00080818093BB009091D3048091D2049817A2
:1031D00008F47CCF85E88093BC000AC085EC80931E
:1031E000BC001092230504C01092B0040E94A417E2
:1031F000FF91EF91BF91AF919F918F917F916F91CF
:103200005F914F913F912F910F900FBE0F901F90A4
:1032100018955058BB27AA270E9421190C94941A7C
:103220000E94861A38F00E948D1A20F039F49F3FD0
:1032300019F426F40C94831A0EF4E095E7FB0C9431
:103240007D1AE92F0E94A51A58F3BA17620773076F
:103250008407950720F079F4A6F50C94C71A0EF4AC
:10326000E0950B2EBA2FA02D0B01B90190010C0196
:10327000CA01A0011124FF27591B99F0593F50F4AE
:10328000503E68F11A16F040A22F232F342F442706
:10329000585FF3CF469537952795A795F0405395FE
:1032A000C9F77EF41F16BA0B620B730B840BBAF0CE
:1032B0009150A1F0FF0FBB1F661F771F881FC2F739
:1032C0000EC0BA0F621F731F841F48F4879577954D
:1032D0006795B795F7959E3F08F0B0CF9395880F07
:1032E00008F09927EE0F9795879508950E94591A2F
:1032F00008F481E008950E948F190C94941A0E949A
:103300008D1A58F00E94861A40F029F45F3F29F088
:103310000C947D1A51110C94C81A0C94831A0E94B3
:10332000A51A68F39923B1F3552391F3951B550B17
:10333000BB27AA2762177307840738F09F5F5F4F88
:10334000220F331F441FAA1FA9F335D00E2E3AF0C7
:10335000E0E832D091505040E695001CCAF72BD0DF
:10336000FE2F29D0660F771F881FBB1F2617370730
:103370004807AB07B0E809F0BB0B802DBF01FF2762
:1033800093585F4F3AF09E3F510578F00C947D1AA8
:103390000C94C81A5F3FE4F3983ED4F38695779572
:1033A0006795B795F7959F5FC9F7880F911D96951B
:1033B000879597F90895E1E0660F771F881FBB1F77
:1033C000621773078407BA0720F0621B730B840B24
:1033D000BA0BEE1F88F7E09508950E94AD1A88F0A9
:1033E0009F5798F0B92F9927B751B0F0E1F0660FC9
:1033F000771F881F991F1AF0BA95C9F714C0B1300A
:1034000091F00E94C71AB1E008950C94C71A672F73
:10341000782F8827B85F39F0B93FCCF38695779538
:103420006795B395D9F73EF4909580957095619521
:103430007F4F8F4F9F4F0895E89409C097FB3EF44C
:1034400090958095709561957F4F8F4F9F4F9923F1
:10345000A9F0F92F96E9BB279395F695879577956F
:103460006795B795F111F8CFFAF4BB0F11F460FF2F
:103470001BC06F5F7F4F8F4F9F4F16C0882311F087
:1034800096E911C0772321F09EE8872F762F05C09B
:10349000662371F096E8862F70E060E02AF09A9536
:1034A000660F771F881FDAF7880F9695879597F92B
:1034B0000895990F0008550FAA0BE0E8FEEF1616C5
:1034C0001706E807F907C0F012161306E407F50718
:1034D00098F0621B730B840B950B39F40A2661F08C
:1034E000232B242B252B21F408950A2609F4A1402F
:1034F000A6958FEF811D811D089597F99F6780E83C
:1035000070E060E008959FEF80EC089500240A9435
:103510001616170618060906089500240A941216AE
:103520001306140605060895092E0394000C11F4E1
:10353000882352F0BB0F40F4BF2B11F460FF04C08E
:103540006F5F7F4F8F4F9F4F089557FD9058440FE7
:10355000551F59F05F3F71F04795880F97FB991FF2
:1035600061F09F3F79F087950895121613061406AF
:10357000551FF2CF4695F1DF08C01616170618063C
:10358000991FF1CF86957105610508940895E89417
:10359000BB2766277727CB0197F908950E94591A10
:1035A00008F48FEF08950E94E61A0C94941A0E9472
:1035B000861A38F00E948D1A20F0952311F00C9491
:1035C0007D1A0C94831A11240C94C81A0E94A51A0F
:1035D00070F3959FC1F3950F50E0551F629FF00166
:1035E000729FBB27F00DB11D639FAA27F00DB11D7F
:1035F000AA1F649F6627B00DA11D661F829F222708
:10360000B00DA11D621F739FB00DA11D621F839F8E
:10361000A00D611D221F749F3327A00D611D231F64
:10362000849F600D211D822F762F6A2F11249F57B2
:1036300050409AF0F1F088234AF0EE0FFF1FBB1FB5
:10364000661F771F881F91505040A9F79E3F510574
:1036500080F00C947D1A0C94C81A5F3FE4F3983EF6
:10366000D4F3869577956795B795F795E7959F5F1E
:10367000C1F7FE2B880F911D9695879597F90895B0
:103680000E94591A880B990B0895991B79E004C080
:10369000991F961708F0961B881F7A95C9F7809591
:1036A0000895AA1BBB1B51E107C0AA1FBB1FA61789
:1036B000B70710F0A61BB70B881F991F5A95A9F7DB
:1036C00080959095BC01CD01089597FB072E16F4C7
:1036D000009407D077FD09D00E94511B07FC05D04C
:1036E0003EF4909581959F4F0895709561957F4F19
:1036F0000895A1E21A2EAA1BBB1BFD010DC0AA1F33
:10370000BB1FEE1FFF1FA217B307E407F50720F04A
:10371000A21BB30BE40BF50B661F771F881F991FC5
:103720001A9469F760957095809590959B01AC010E
:10373000BD01CF010895A29FB001B39FC001A39F17
:10374000700D811D1124911DB29F700D811D1124DA
:10375000911D08950E949B1BA59F900DB49F900DF5
:10376000A49F800D911D11240895B7FF0C94AA1BEE
:103770000E94AA1B821B930B08952A0D3B1D4C1D12
:103780005D1D6E1D7F1D801F911F0895EE0FFF1F91
:103790000590F491E02D09940F931F93CF93DF933D
:1037A0008230910510F482E090E0E0912605F091DE
:1037B000270520E030E0A0E0B0E0309719F140812B
:1037C00051810281138148175907C8F08417950762
:1037D00069F4109731F012960C93129713961C937C
:1037E00027C0009326051093270522C02115310517
:1037F00019F04217530718F49A01BD01EF01DF01D8
:10380000F801DBCF21153105F9F0281B390B2430E5
:10381000310580F48A819B816115710521F0FB01DE
:103820009383828304C09093270580932605FE012D
:10383000329644C0FE01E20FF31F81939193225010
:103840003109398328833AC0209124053091250518
:10385000232B41F42091020130910301309325057F
:10386000209324052091000130910101211531059B
:1038700041F42DB73EB74091040150910501241B3E
:10388000350BE0912405F0912505E217F307A0F42C
:103890002E1B3F0B2817390778F0AC014E5F5F4FA6
:1038A0002417350748F04E0F5F1F509325054093AE
:1038B00024058193919302C0E0E0F0E0CF01DF9115
:1038C000CF911F910F910895CF93DF93009709F443
:1038D00081C0FC01329713821282A0912605B0911B
:1038E0002705109781F420813181820F931F209149
:1038F0002405309125052817390751F5F093250542
:10390000E093240567C0ED0120E030E0CE17DF072B
:1039100040F44A815B819E0141155105F1F0EA01B5
:10392000F5CFD383C28340815181840F951FC8177F
:10393000D90759F488819981840F951F0296918344
:1039400080838A819B81938382832115310529F4A9
:10395000F0932705E09326053DC0E901FB83EA8348
:1039600049915991C40FD51FEC17FD0761F480816F
:103970009181840F951F0296E90199838883828142
:1039800093819B838A83E0E0F0E012968D919C9175
:103990001397009719F0FD01DC01F7CF8D919C91F1
:1039A00011979D012E5F3F4F820F931F2091240599
:1039B000309125052817390769F4309729F41092BA
:1039C00027051092260502C013821282B0932505A6
:1039D000A0932405DF91CF91089510E0CFE5D0E0CA
:1039E00004C0FE010E94C61B2196C036D107C9F74C
:0439F000F894FFCF79
:1039F4000000280520009C04D00D290C9604FF0D1E
:103A0400C00C9004F90B360D8A04110C830D0000D0
:103A1400000000007813781301646174616C6F67AF
:103A24002E62696E00636865636B73756D00616314
:103A34007469766174655F696E737472756D656EB1
:103A4400747300696E69745F696E737472756D6501
:103A54006E747300646561637469766174655F7222
:103A6400656C61790061637469766174655F726520
:103A74006C617900696E69745F72656C6179006963
:103A84006E69745F7365747570006D61696E0007AB
:103A94000B1F1C1F1E1F1E1F1F1E1F1E1F000000AA
:103AA400003C0598060B058905DD04F704E9040DBF
:103AB4000A006E616E00696E66006F766600000033
:103AC4000000BE0A910A10065A0A2F0A370A4B0A46
:103AD40046696C65206E616D65203A20004672610E
:103AE4006D65206C656E676874203A20002C0900AF
:103AF40073645F696E697400736176655F66726191
:103B04006D6500696E69745F6D656D6F72790043F0
:103B1400483A200054656D703A20000952483A2012
:103B24000054656D70285054313030293A200056C5
:103B340069742E2056656E743A20004552524F52D5
:103B4400203A2000203A2053656E736F7220756E00
:103B5400726561636861626C652E00657865635F98
:103B64006D6F64756C657300696E69745F6D6F6405
:103B7400756C6573005F616E656D6F6D65746572FC
:103B84005F72656164005F70743130305F726561CB
:103B940064005F686463313038305F72656164006B
:103BA4005F6173373236325F72656164005F616EE4
:103BB400656D6F6D657465725F696E6974005F70C1
:103BC400743130305F696E6974005F6864633130EA
:103BD40038305F696E6974005F6173373236325F03
:103BE400696E6974006473333233315F696E69746A
:103BF40000676F746F5F736C656570004572726FF8
:103C0400722076616C7565203A200009426C696EF9
:103C14006B20636F756E74203A2000737461747541
:103C2400735F626C696E6B65725F64697361626C09
:103C340065007374617475735F626C696E6B657231
:103C44005F696E6974007369676E616C5F65727237
:043C54006F7200008B
:00000001FF
